{
  "contractName": "CryptoLegacy",
  "abi": [
    {
      "constant": true,
      "inputs": [],
      "name": "getNumSuppliedKeyParts",
      "outputs": [
        {
          "name": "",
          "type": "uint256"
        }
      ],
      "payable": false,
      "stateMutability": "view",
      "type": "function"
    },
    {
      "constant": true,
      "inputs": [
        {
          "name": "addr",
          "type": "address"
        }
      ],
      "name": "didSendProposal",
      "outputs": [
        {
          "name": "",
          "type": "bool"
        }
      ],
      "payable": false,
      "stateMutability": "view",
      "type": "function"
    },
    {
      "constant": true,
      "inputs": [],
      "name": "getVersion",
      "outputs": [
        {
          "name": "",
          "type": "uint256"
        }
      ],
      "payable": false,
      "stateMutability": "view",
      "type": "function"
    },
    {
      "constant": false,
      "inputs": [
        {
          "name": "publicKey",
          "type": "bytes"
        },
        {
          "name": "keepingFee",
          "type": "uint256"
        }
      ],
      "name": "submitKeeperProposal",
      "outputs": [],
      "payable": false,
      "stateMutability": "nonpayable",
      "type": "function"
    },
    {
      "constant": true,
      "inputs": [
        {
          "name": "addr",
          "type": "address"
        }
      ],
      "name": "isActiveKeeper",
      "outputs": [
        {
          "name": "",
          "type": "bool"
        }
      ],
      "payable": false,
      "stateMutability": "view",
      "type": "function"
    },
    {
      "constant": false,
      "inputs": [
        {
          "name": "keyPart",
          "type": "bytes"
        }
      ],
      "name": "supplyKey",
      "outputs": [],
      "payable": false,
      "stateMutability": "nonpayable",
      "type": "function"
    },
    {
      "constant": false,
      "inputs": [],
      "name": "ownerCheckIn",
      "outputs": [],
      "payable": true,
      "stateMutability": "payable",
      "type": "function"
    },
    {
      "constant": true,
      "inputs": [
        {
          "name": "",
          "type": "uint256"
        }
      ],
      "name": "activeKeepersAddresses",
      "outputs": [
        {
          "name": "",
          "type": "address"
        }
      ],
      "payable": false,
      "stateMutability": "view",
      "type": "function"
    },
    {
      "constant": true,
      "inputs": [
        {
          "name": "",
          "type": "address"
        }
      ],
      "name": "proposedKeeperFlags",
      "outputs": [
        {
          "name": "",
          "type": "bool"
        }
      ],
      "payable": false,
      "stateMutability": "view",
      "type": "function"
    },
    {
      "constant": true,
      "inputs": [],
      "name": "isAcceptingKeeperProposals",
      "outputs": [
        {
          "name": "",
          "type": "bool"
        }
      ],
      "payable": false,
      "stateMutability": "view",
      "type": "function"
    },
    {
      "constant": true,
      "inputs": [],
      "name": "lastOwnerCheckInAt",
      "outputs": [
        {
          "name": "",
          "type": "uint256"
        }
      ],
      "payable": false,
      "stateMutability": "view",
      "type": "function"
    },
    {
      "constant": true,
      "inputs": [
        {
          "name": "",
          "type": "uint256"
        }
      ],
      "name": "keeperProposals",
      "outputs": [
        {
          "name": "keeperAddress",
          "type": "address"
        },
        {
          "name": "publicKey",
          "type": "bytes"
        },
        {
          "name": "keepingFee",
          "type": "uint256"
        }
      ],
      "payable": false,
      "stateMutability": "view",
      "type": "function"
    },
    {
      "constant": true,
      "inputs": [],
      "name": "getNumProposals",
      "outputs": [
        {
          "name": "",
          "type": "uint256"
        }
      ],
      "payable": false,
      "stateMutability": "view",
      "type": "function"
    },
    {
      "constant": true,
      "inputs": [],
      "name": "calculateApproximateCheckInPrice",
      "outputs": [
        {
          "name": "",
          "type": "uint256"
        }
      ],
      "payable": false,
      "stateMutability": "view",
      "type": "function"
    },
    {
      "constant": true,
      "inputs": [],
      "name": "totalKeepingFee",
      "outputs": [
        {
          "name": "",
          "type": "uint256"
        }
      ],
      "payable": false,
      "stateMutability": "view",
      "type": "function"
    },
    {
      "constant": true,
      "inputs": [],
      "name": "getOwner",
      "outputs": [
        {
          "name": "",
          "type": "address"
        }
      ],
      "payable": false,
      "stateMutability": "view",
      "type": "function"
    },
    {
      "constant": true,
      "inputs": [],
      "name": "KEEPING_FEE_ROUNDING_MULT",
      "outputs": [
        {
          "name": "",
          "type": "uint256"
        }
      ],
      "payable": false,
      "stateMutability": "view",
      "type": "function"
    },
    {
      "constant": true,
      "inputs": [],
      "name": "owner",
      "outputs": [
        {
          "name": "",
          "type": "address"
        }
      ],
      "payable": false,
      "stateMutability": "view",
      "type": "function"
    },
    {
      "constant": true,
      "inputs": [],
      "name": "continuationContractAddress",
      "outputs": [
        {
          "name": "",
          "type": "address"
        }
      ],
      "payable": false,
      "stateMutability": "view",
      "type": "function"
    },
    {
      "constant": true,
      "inputs": [],
      "name": "MINIMUM_CHECK_IN_INTERVAL",
      "outputs": [
        {
          "name": "",
          "type": "uint256"
        }
      ],
      "payable": false,
      "stateMutability": "view",
      "type": "function"
    },
    {
      "constant": true,
      "inputs": [],
      "name": "checkInInterval",
      "outputs": [
        {
          "name": "",
          "type": "uint256"
        }
      ],
      "payable": false,
      "stateMutability": "view",
      "type": "function"
    },
    {
      "constant": true,
      "inputs": [],
      "name": "state",
      "outputs": [
        {
          "name": "",
          "type": "uint8"
        }
      ],
      "payable": false,
      "stateMutability": "view",
      "type": "function"
    },
    {
      "constant": false,
      "inputs": [],
      "name": "keeperCheckIn",
      "outputs": [],
      "payable": false,
      "stateMutability": "nonpayable",
      "type": "function"
    },
    {
      "constant": false,
      "inputs": [
        {
          "name": "_continuationContractAddress",
          "type": "address"
        }
      ],
      "name": "announceContinuationContract",
      "outputs": [],
      "payable": false,
      "stateMutability": "nonpayable",
      "type": "function"
    },
    {
      "constant": true,
      "inputs": [
        {
          "name": "",
          "type": "address"
        }
      ],
      "name": "activeKeepers",
      "outputs": [
        {
          "name": "publicKey",
          "type": "bytes"
        },
        {
          "name": "keyPartHash",
          "type": "bytes32"
        },
        {
          "name": "keepingFee",
          "type": "uint256"
        },
        {
          "name": "balance",
          "type": "uint256"
        },
        {
          "name": "lastCheckInAt",
          "type": "uint256"
        },
        {
          "name": "keyPartSupplied",
          "type": "bool"
        }
      ],
      "payable": false,
      "stateMutability": "view",
      "type": "function"
    },
    {
      "constant": true,
      "inputs": [
        {
          "name": "selectedProposalIndices",
          "type": "uint256[]"
        }
      ],
      "name": "calculateActivationPrice",
      "outputs": [
        {
          "name": "",
          "type": "uint256"
        }
      ],
      "payable": false,
      "stateMutability": "view",
      "type": "function"
    },
    {
      "constant": true,
      "inputs": [
        {
          "name": "index",
          "type": "uint256"
        }
      ],
      "name": "getSuppliedKeyPart",
      "outputs": [
        {
          "name": "",
          "type": "bytes"
        }
      ],
      "payable": false,
      "stateMutability": "view",
      "type": "function"
    },
    {
      "constant": true,
      "inputs": [],
      "name": "getNumKeepers",
      "outputs": [
        {
          "name": "",
          "type": "uint256"
        }
      ],
      "payable": false,
      "stateMutability": "view",
      "type": "function"
    },
    {
      "constant": true,
      "inputs": [],
      "name": "getContinuationContractAddress",
      "outputs": [
        {
          "name": "",
          "type": "address"
        }
      ],
      "payable": false,
      "stateMutability": "view",
      "type": "function"
    },
    {
      "constant": true,
      "inputs": [],
      "name": "encryptedData",
      "outputs": [
        {
          "name": "encryptedData",
          "type": "bytes"
        },
        {
          "name": "aesCounter",
          "type": "bytes16"
        },
        {
          "name": "dataHash",
          "type": "bytes32"
        },
        {
          "name": "encryptedKeyParts",
          "type": "bytes"
        },
        {
          "name": "shareLength",
          "type": "uint16"
        }
      ],
      "payable": false,
      "stateMutability": "view",
      "type": "function"
    },
    {
      "constant": false,
      "inputs": [],
      "name": "cancel",
      "outputs": [],
      "payable": true,
      "stateMutability": "payable",
      "type": "function"
    },
    {
      "constant": false,
      "inputs": [
        {
          "name": "selectedProposalIndices",
          "type": "uint256[]"
        },
        {
          "name": "keyPartHashes",
          "type": "bytes32[]"
        },
        {
          "name": "encryptedKeyParts",
          "type": "bytes"
        },
        {
          "name": "shareLength",
          "type": "uint16"
        },
        {
          "name": "_encryptedData",
          "type": "bytes"
        },
        {
          "name": "dataHash",
          "type": "bytes32"
        },
        {
          "name": "aesCounter",
          "type": "bytes16"
        }
      ],
      "name": "acceptKeepers",
      "outputs": [],
      "payable": true,
      "stateMutability": "payable",
      "type": "function"
    },
    {
      "constant": true,
      "inputs": [],
      "name": "VERSION",
      "outputs": [
        {
          "name": "",
          "type": "uint256"
        }
      ],
      "payable": false,
      "stateMutability": "view",
      "type": "function"
    },
    {
      "inputs": [
        {
          "name": "_checkInInterval",
          "type": "uint256"
        }
      ],
      "payable": false,
      "stateMutability": "nonpayable",
      "type": "constructor"
    },
    {
      "anonymous": false,
      "inputs": [],
      "name": "KeysNeeded",
      "type": "event"
    },
    {
      "anonymous": false,
      "inputs": [
        {
          "indexed": false,
          "name": "continuationContractAddress",
          "type": "address"
        }
      ],
      "name": "ContinuationContractAnnounced",
      "type": "event"
    },
    {
      "anonymous": false,
      "inputs": [],
      "name": "Cancelled",
      "type": "event"
    }
  ],
  "bytecode": "0x6060604052336000806101000a81548173ffffffffffffffffffffffffffffffffffffffff021916908373ffffffffffffffffffffffffffffffffffffffff1602179055506000600160006101000a81548173ffffffffffffffffffffffffffffffffffffffff021916908373ffffffffffffffffffffffffffffffffffffffff1602179055506000600460006101000a81548160ff021916908360038111156100a557fe5b021790555034156100b557600080fd5b604051602080612a7783398101604052808051906020019091905050603c81101515156100e157600080fd5b806002819055505061297f806100f86000396000f3006060604052600436106101a1576000357c0100000000000000000000000000000000000000000000000000000000900463ffffffff16806304ed3e4e146101a6578063071f8601146101cf5780630d8e6e2c1461022057806317995d7b146102495780632224768d14610280578063259c3aed146102d157806339dd4f6d146102ff5780633afd601a146103095780633f135f861461036c578063760a4440146103bd57806376eca21e146103ea578063781970e614610413578063798974dd146105065780637a54c1921461052f57806387a083ca14610558578063893d20e8146105815780638d594651146105d65780638da5cb5b146105ff578063a3521f1314610654578063ba4ff498146106a9578063bfd25fa5146106d2578063c19d93fb146106fb578063c53c9bb614610732578063cc1b3b9c14610747578063cdd35b2d14610780578063ce35d2461461087e578063d830d1e5146108ec578063d97cdcbc14610988578063e01ee277146109b1578063e9fc715a14610a06578063ea8a1af014610b85578063f36115d914610b8f578063ffa1ad7414610c24575b600080fd5b34156101b157600080fd5b6101b9610c4d565b6040518082815260200191505060405180910390f35b34156101da57600080fd5b610206600480803573ffffffffffffffffffffffffffffffffffffffff16906020019091905050610c5c565b604051808215151515815260200191505060405180910390f35b341561022b57600080fd5b610233610cb2565b6040518082815260200191505060405180910390f35b341561025457600080fd5b61027e60048080359060200190820180359060200191909192908035906020019091905050610cbb565b005b341561028b57600080fd5b6102b7600480803573ffffffffffffffffffffffffffffffffffffffff16906020019091905050610f5a565b604051808215151515815260200191505060405180910390f35b34156102dc57600080fd5b6102fd60048080359060200190820180359060200191909192905050610fa8565b005b610307611156565b005b341561031457600080fd5b61032a6004808035906020019091905050611250565b604051808273ffffffffffffffffffffffffffffffffffffffff1673ffffffffffffffffffffffffffffffffffffffff16815260200191505060405180910390f35b341561037757600080fd5b6103a3600480803573ffffffffffffffffffffffffffffffffffffffff1690602001909190505061128f565b604051808215151515815260200191505060405180910390f35b34156103c857600080fd5b6103d06112af565b604051808215151515815260200191505060405180910390f35b34156103f557600080fd5b6103fd6112de565b6040518082815260200191505060405180910390f35b341561041e57600080fd5b61043460048080359060200190919050506112e4565b604051808473ffffffffffffffffffffffffffffffffffffffff1673ffffffffffffffffffffffffffffffffffffffff168152602001806020018381526020018281038252848181546001816001161561010002031660029004815260200191508054600181600116156101000203166002900480156104f55780601f106104ca576101008083540402835291602001916104f5565b820191906000526020600020905b8154815290600101906020018083116104d857829003601f168201915b505094505050505060405180910390f35b341561051157600080fd5b61051961133c565b6040518082815260200191505060405180910390f35b341561053a57600080fd5b610542611349565b6040518082815260200191505060405180910390f35b341561056357600080fd5b61056b611486565b6040518082815260200191505060405180910390f35b341561058c57600080fd5b61059461148c565b604051808273ffffffffffffffffffffffffffffffffffffffff1673ffffffffffffffffffffffffffffffffffffffff16815260200191505060405180910390f35b34156105e157600080fd5b6105e96114b5565b6040518082815260200191505060405180910390f35b341561060a57600080fd5b6106126114c1565b604051808273ffffffffffffffffffffffffffffffffffffffff1673ffffffffffffffffffffffffffffffffffffffff16815260200191505060405180910390f35b341561065f57600080fd5b6106676114e6565b604051808273ffffffffffffffffffffffffffffffffffffffff1673ffffffffffffffffffffffffffffffffffffffff16815260200191505060405180910390f35b34156106b457600080fd5b6106bc61150c565b6040518082815260200191505060405180910390f35b34156106dd57600080fd5b6106e5611511565b6040518082815260200191505060405180910390f35b341561070657600080fd5b61070e611517565b6040518082600381111561071e57fe5b60ff16815260200191505060405180910390f35b341561073d57600080fd5b61074561152a565b005b341561075257600080fd5b61077e600480803573ffffffffffffffffffffffffffffffffffffffff16906020019091905050611690565b005b341561078b57600080fd5b6107b7600480803573ffffffffffffffffffffffffffffffffffffffff16906020019091905050611a45565b604051808060200187600019166000191681526020018681526020018581526020018481526020018315151515815260200182810382528881815460018160011615610100020316600290048152602001915080546001816001161561010002031660029004801561086a5780601f1061083f5761010080835404028352916020019161086a565b820191906000526020600020905b81548152906001019060200180831161084d57829003601f168201915b505097505050505050505060405180910390f35b341561088957600080fd5b6108d6600480803590602001908201803590602001908080602002602001604051908101604052809392919081815260200183836020028082843782019150505050505091905050611a8d565b6040518082815260200191505060405180910390f35b34156108f757600080fd5b61090d6004808035906020019091905050611b08565b6040518080602001828103825283818151815260200191508051906020019080838360005b8381101561094d578082015181840152602081019050610932565b50505050905090810190601f16801561097a5780820380516001836020036101000a031916815260200191505b509250505060405180910390f35b341561099357600080fd5b61099b611bcc565b6040518082815260200191505060405180910390f35b34156109bc57600080fd5b6109c4611bd9565b604051808273ffffffffffffffffffffffffffffffffffffffff1673ffffffffffffffffffffffffffffffffffffffff16815260200191505060405180910390f35b3415610a1157600080fd5b610a19611c03565b6040518080602001866fffffffffffffffffffffffffffffffff19166fffffffffffffffffffffffffffffffff191681526020018560001916600019168152602001806020018461ffff1661ffff168152602001838103835288818154600181600116156101000203166002900481526020019150805460018160011615610100020316600290048015610aee5780601f10610ac357610100808354040283529160200191610aee565b820191906000526020600020905b815481529060010190602001808311610ad157829003601f168201915b5050838103825285818154600181600116156101000203166002900481526020019150805460018160011615610100020316600290048015610b715780601f10610b4657610100808354040283529160200191610b71565b820191906000526020600020905b815481529060010190602001808311610b5457829003601f168201915b505097505050505050505060405180910390f35b610b8d611c50565b005b610c22600480803590602001908201803590602001919091929080359060200190820180359060200191909192908035906020019082018035906020019190919290803561ffff169060200190919080359060200190820180359060200191909192908035600019169060200190919080356fffffffffffffffffffffffffffffffff1916906020019091905050611df1565b005b3415610c2f57600080fd5b610c3761211f565b6040518082815260200191505060405180910390f35b60006005800180549050905090565b6000600c60008373ffffffffffffffffffffffffffffffffffffffff1673ffffffffffffffffffffffffffffffffffffffff16815260200190815260200160002060009054906101000a900460ff169050919050565b60006001905090565b600080806003811115610cca57fe5b600460009054906101000a900460ff166003811115610ce557fe5b141515610cf157600080fd5b6000809054906101000a900473ffffffffffffffffffffffffffffffffffffffff1673ffffffffffffffffffffffffffffffffffffffff163373ffffffffffffffffffffffffffffffffffffffff1614151515610d4d57600080fd5b610d5633610c5c565b151515610d6257600080fd5b60808585905011151515610d7557600080fd5b84846040518083838082843782019150509250505060405180910390209150600d6000836000191660001916815260200190815260200160002060009054906101000a900460ff16151515610dc957600080fd5b600b8054806001018281610ddd919061264a565b916000526020600020906003020160006060604051908101604052803373ffffffffffffffffffffffffffffffffffffffff16815260200189898080601f016020809104026020016040519081016040528093929190818152602001838380828437820191505050505050815260200187815250909190915060008201518160000160006101000a81548173ffffffffffffffffffffffffffffffffffffffff021916908373ffffffffffffffffffffffffffffffffffffffff1602179055506020820151816001019080519060200190610eb992919061267c565b50604082015181600201555050506001600c60003373ffffffffffffffffffffffffffffffffffffffff1673ffffffffffffffffffffffffffffffffffffffff16815260200190815260200160002060006101000a81548160ff0219169083151502179055506001600d6000846000191660001916815260200190815260200160002060006101000a81548160ff0219169083151502179055505050505050565b600080600e60008473ffffffffffffffffffffffffffffffffffffffff1673ffffffffffffffffffffffffffffffffffffffff16815260200190815260200160002060040154119050919050565b6000806000610fb633610f5a565b1515610fc157600080fd5b6002806003811115610fcf57fe5b600460009054906101000a900460ff166003811115610fea57fe5b141515610ff657600080fd5b600e60003373ffffffffffffffffffffffffffffffffffffffff1673ffffffffffffffffffffffffffffffffffffffff16815260200190815260200160002093508360050160009054906101000a900460ff1615151561105557600080fd5b85856040518083838082843782019150509250505060405180910390209250836001015460001916836000191614151561108e57600080fd5b6005800180548060010182816110a491906126fc565b9160005260206000209001600088889091929091925091906110c7929190612728565b505060018460050160006101000a81548160ff0219169083151502179055506110f884600301548560020154612124565b915060008460030181905550600082111561114e573373ffffffffffffffffffffffffffffffffffffffff166108fc839081150290604051600060405180830381858888f19350505050151561114d57600080fd5b5b505050505050565b60008060009054906101000a900473ffffffffffffffffffffffffffffffffffffffff1673ffffffffffffffffffffffffffffffffffffffff163373ffffffffffffffffffffffffffffffffffffffff161415156111b357600080fd5b60018060038111156111c157fe5b600460009054906101000a900460ff1660038111156111dc57fe5b1415156111e857600080fd5b6111f26001612142565b91506111fc61228c565b600381905550600082111561124c573373ffffffffffffffffffffffffffffffffffffffff166108fc839081150290604051600060405180830381858888f19350505050151561124b57600080fd5b5b5050565b600f8181548110151561125f57fe5b90600052602060002090016000915054906101000a900473ffffffffffffffffffffffffffffffffffffffff1681565b600c6020528060005260406000206000915054906101000a900460ff1681565b60008060038111156112bd57fe5b600460009054906101000a900460ff1660038111156112d857fe5b14905090565b60035481565b600b818154811015156112f357fe5b90600052602060002090600302016000915090508060000160009054906101000a900473ffffffffffffffffffffffffffffffffffffffff169080600101908060020154905083565b6000600b80549050905090565b60008060008060008060008061135d612294565b965060009550600094505b600f8054905085101561143c57600e6000600f8781548110151561138857fe5b906000526020600020900160009054906101000a900473ffffffffffffffffffffffffffffffffffffffff1673ffffffffffffffffffffffffffffffffffffffff1673ffffffffffffffffffffffffffffffffffffffff1681526020019081526020016000209350670de0b6b3a7640000611407856002015489612300565b81151561141057fe5b049250611421846003015484612124565b915061142d8683612124565b95508480600101955050611368565b61144886601054612124565b95503073ffffffffffffffffffffffffffffffffffffffff163190508581101515611476576000975061147c565b80860397505b5050505050505090565b60105481565b60008060009054906101000a900473ffffffffffffffffffffffffffffffffffffffff16905090565b670de0b6b3a764000081565b6000809054906101000a900473ffffffffffffffffffffffffffffffffffffffff1681565b600160009054906101000a900473ffffffffffffffffffffffffffffffffffffffff1681565b603c81565b60025481565b600460009054906101000a900460ff1681565b60008060008061153933610f5a565b151561154457600080fd5b61154c61228c565b9350600e60003373ffffffffffffffffffffffffffffffffffffffff1673ffffffffffffffffffffffffffffffffffffffff1681526020019081526020016000209250838360040181905550600160038111156115a557fe5b600460009054906101000a900460ff1660038111156115c057fe5b141561162f576115d284600354612333565b915060025482111561162e576002600460006101000a81548160ff021916908360038111156115fd57fe5b02179055507eea067c7113f3002f0fc5fa11a22f4b7d7c84b63d99d4871ba53c077afc8da560405160405180910390a15b5b82600301549050600081111561168a57600083600301819055503373ffffffffffffffffffffffffffffffffffffffff166108fc829081150290604051600060405180830381858888f19350505050151561168957600080fd5b5b50505050565b60008060009054906101000a900473ffffffffffffffffffffffffffffffffffffffff1673ffffffffffffffffffffffffffffffffffffffff163373ffffffffffffffffffffffffffffffffffffffff161415156116ed57600080fd5b60018060038111156116fb57fe5b600460009054906101000a900460ff16600381111561171657fe5b14151561172257600080fd5b6000600160009054906101000a900473ffffffffffffffffffffffffffffffffffffffff1673ffffffffffffffffffffffffffffffffffffffff1614151561176957600080fd5b3073ffffffffffffffffffffffffffffffffffffffff168373ffffffffffffffffffffffffffffffffffffffff16141515156117a457600080fd5b8291506117af61148c565b73ffffffffffffffffffffffffffffffffffffffff168273ffffffffffffffffffffffffffffffffffffffff1663893d20e86000604051602001526040518163ffffffff167c0100000000000000000000000000000000000000000000000000000000028152600401602060405180830381600087803b151561183157600080fd5b6102c65a03f1151561184257600080fd5b5050506040518051905073ffffffffffffffffffffffffffffffffffffffff1614151561186e57600080fd5b611876610cb2565b8273ffffffffffffffffffffffffffffffffffffffff16630d8e6e2c6000604051602001526040518163ffffffff167c0100000000000000000000000000000000000000000000000000000000028152600401602060405180830381600087803b15156118e257600080fd5b6102c65a03f115156118f357600080fd5b505050604051805190501015151561190a57600080fd5b8173ffffffffffffffffffffffffffffffffffffffff1663760a44406000604051602001526040518163ffffffff167c0100000000000000000000000000000000000000000000000000000000028152600401602060405180830381600087803b151561197657600080fd5b6102c65a03f1151561198757600080fd5b50505060405180519050151561199c57600080fd5b82600160006101000a81548173ffffffffffffffffffffffffffffffffffffffff021916908373ffffffffffffffffffffffffffffffffffffffff1602179055507fd517b3f28983d7964c0ca51f29522226735af584b0a113f040f8a8b10686873b83604051808273ffffffffffffffffffffffffffffffffffffffff1673ffffffffffffffffffffffffffffffffffffffff16815260200191505060405180910390a1505050565b600e60205280600052604060002060009150905080600001908060010154908060020154908060030154908060040154908060050160009054906101000a900460ff16905086565b6000806000806000809350600092505b8551831015611afc578583815181101515611ab457fe5b906020019060200201519150600b82815481101515611acf57fe5b90600052602060002090600302019050611aed848260020154612124565b93508280600101935050611a9d565b83945050505050919050565b611b106127a8565b6005800182815481101515611b2157fe5b90600052602060002090018054600181600116156101000203166002900480601f016020809104026020016040519081016040528092919081815260200182805460018160011615610100020316600290048015611bc05780601f10611b9557610100808354040283529160200191611bc0565b820191906000526020600020905b815481529060010190602001808311611ba357829003601f168201915b50505050509050919050565b6000600f80549050905090565b6000600160009054906101000a900473ffffffffffffffffffffffffffffffffffffffff16905090565b600580600001908060010160009054906101000a9004700100000000000000000000000000000000029080600201549080600301908060040160009054906101000a900461ffff16905085565b60008060009054906101000a900473ffffffffffffffffffffffffffffffffffffffff1673ffffffffffffffffffffffffffffffffffffffff163373ffffffffffffffffffffffffffffffffffffffff16141515611cad57600080fd5b60006001816003811115611cbd57fe5b600460009054906101000a900460ff166003811115611cd857fe5b1480611d085750806003811115611ceb57fe5b600460009054906101000a900460ff166003811115611d0657fe5b145b1515611d1357600080fd5b6000925060016003811115611d2457fe5b600460009054906101000a900460ff166003811115611d3f57fe5b1415611d5257611d4f6000612142565b92505b6003600460006101000a81548160ff02191690836003811115611d7157fe5b02179055507f63b958841f79ab97cb5456da181454b9932c0e15a3b17f1cbd27e2a8bc61043760405160405180910390a16000831115611dec573373ffffffffffffffffffffffffffffffffffffffff166108fc849081150290604051600060405180830381858888f193505050501515611deb57600080fd5b5b505050565b60008060009054906101000a900473ffffffffffffffffffffffffffffffffffffffff1673ffffffffffffffffffffffffffffffffffffffff163373ffffffffffffffffffffffffffffffffffffffff16141515611e4e57600080fd5b6000806003811115611e5c57fe5b600460009054906101000a900460ff166003811115611e7757fe5b141515611e8357600080fd5b60c06040519081016040528087878080601f0160208091040260200160405190810160405280939291908181526020018383808284378201915050505050508152602001846fffffffffffffffffffffffffffffffff19168152602001856000191681526020018a8a8080601f01602080910402602001604051908101604052809392919081815260200183838082843782019150505050505081526020018861ffff1681526020016000604051805910611f3b5750595b908082528060200260200182016040528015611f7157816020015b611f5e6127bc565b815260200190600190039081611f565790505b5081525060056000820151816000019080519060200190611f9392919061267c565b5060208201518160010160006101000a8154816fffffffffffffffffffffffffffffffff02191690837001000000000000000000000000000000009004021790555060408201518160020190600019169055606082015181600301908051906020019061200192919061267c565b5060808201518160040160006101000a81548161ffff021916908361ffff16021790555060a08201518160050190805190602001906120419291906127d0565b509050506120ad8d8d808060200260200160405190810160405280939291908181526020018383602002808284378201915050505050508c8c8080602002602001604051908101604052809392919081815260200183836020028082843782019150505050505061234c565b6010819055503073ffffffffffffffffffffffffffffffffffffffff1631915060105482101515156120de57600080fd5b6001600460006101000a81548160ff021916908360038111156120fd57fe5b021790555061210a61228c565b60038190555050505050505050505050505050565b600181565b600080828401905083811015151561213857fe5b8091505092915050565b6000806000806000806000612155612294565b955060009450600093505b600f8054905084101561223e57600e6000600f8681548110151561218057fe5b906000526020600020900160009054906101000a900473ffffffffffffffffffffffffffffffffffffffff1673ffffffffffffffffffffffffffffffffffffffff1673ffffffffffffffffffffffffffffffffffffffff1681526020019081526020016000209250670de0b6b3a76400006121ff846002015488612300565b81151561220857fe5b049150612219836003015483612124565b836003018190555061222f858460030154612124565b94508380600101945050612160565b87156122535761225085601054612124565b94505b3073ffffffffffffffffffffffffffffffffffffffff1631905084811015151561227c57600080fd5b8481039650505050505050919050565b600042905090565b6000806122aa6122a261228c565b600354612333565b905060025481111515156122bd57600080fd5b6122c98161025861261a565b90506002548111156122db5760025490505b6002546122f0670de0b6b3a764000083612300565b8115156122f957fe5b0491505090565b60008082840290506000841480612321575082848281151561231e57fe5b04145b151561232957fe5b8091505092915050565b600082821115151561234157fe5b818303905092915050565b60008060008060008061235d61228c565b945060009350600092505b875183101561260c57878381518110151561237f57fe5b906020019060200201519150600b8281548110151561239a57fe5b9060005260206000209060030201905060c060405190810160405280826001018054600181600116156101000203166002900480601f01602080910402602001604051908101604052809291908181526020018280546001816001161561010002031660029004801561244e5780601f106124235761010080835404028352916020019161244e565b820191906000526020600020905b81548152906001019060200180831161243157829003601f168201915b50505050508152602001888581518110151561246657fe5b90602001906020020151600019168152602001826002015481526020016000815260200186815260200160001515815250600e60008360000160009054906101000a900473ffffffffffffffffffffffffffffffffffffffff1673ffffffffffffffffffffffffffffffffffffffff1673ffffffffffffffffffffffffffffffffffffffff168152602001908152602001600020600082015181600001908051906020019061251692919061267c565b506020820151816001019060001916905560408201518160020155606082015181600301556080820151816004015560a08201518160050160006101000a81548160ff021916908315150217905550905050600f805480600101828161257c9190612830565b916000526020600020900160008360000160009054906101000a900473ffffffffffffffffffffffffffffffffffffffff16909190916101000a81548173ffffffffffffffffffffffffffffffffffffffff021916908373ffffffffffffffffffffffffffffffffffffffff160217905550506125fd848260020154612124565b93508280600101935050612368565b839550505050505092915050565b60008083141561262d5760009050612644565b81826001850381151561263c57fe5b046001010290505b92915050565b81548183558181151161267757600302816003028360005260206000209182019101612676919061285c565b5b505050565b828054600181600116156101000203166002900490600052602060002090601f016020900481019282601f106126bd57805160ff19168380011785556126eb565b828001600101855582156126eb579182015b828111156126ea5782518255916020019190600101906126cf565b5b5090506126f891906128ba565b5090565b8154818355818115116127235781836000526020600020918201910161272291906128df565b5b505050565b828054600181600116156101000203166002900490600052602060002090601f016020900481019282601f1061276957803560ff1916838001178555612797565b82800160010185558215612797579182015b8281111561279657823582559160200191906001019061277b565b5b5090506127a491906128ba565b5090565b602060405190810160405280600081525090565b602060405190810160405280600081525090565b82805482825590600052602060002090810192821561281f579160200282015b8281111561281e57825182908051906020019061280e92919061267c565b50916020019190600101906127f0565b5b50905061282c91906128df565b5090565b8154818355818115116128575781836000526020600020918201910161285691906128ba565b5b505050565b6128b791905b808211156128b357600080820160006101000a81549073ffffffffffffffffffffffffffffffffffffffff02191690556001820160006128a2919061290b565b600282016000905550600301612862565b5090565b90565b6128dc91905b808211156128d85760008160009055506001016128c0565b5090565b90565b61290891905b8082111561290457600081816128fb919061290b565b506001016128e5565b5090565b90565b50805460018160011615610100020316600290046000825580601f106129315750612950565b601f01602090049060005260206000209081019061294f91906128ba565b5b505600a165627a7a72305820207ce9034d1c5e150cf48d061836c372ce8b510761a3384c8396b7c08f272ecc0029",
  "source": "pragma solidity 0.4.18;\n\nimport \"./SafeMath.sol\";\nimport \"./CryptoLegacyBaseAPI.sol\";\n\ncontract CryptoLegacy is CryptoLegacyBaseAPI {\n\n  // Version of the contract API.\n  uint public constant VERSION = 1;\n\n  event KeysNeeded();\n  event ContinuationContractAnnounced(address continuationContractAddress);\n  event Cancelled();\n\n  enum States {\n    CallForKeepers,\n    Active,\n    CallForKeys,\n    Cancelled\n  }\n\n  modifier atState(States _state) {\n    require(state == _state);\n    _;\n  }\n\n  modifier atEitherOfStates(States state1, States state2) {\n    require(state == state1 || state == state2);\n    _;\n  }\n\n  modifier ownerOnly() {\n    require(msg.sender == owner);\n    _;\n  }\n\n  modifier activeKeepersOnly() {\n    require(isActiveKeeper(msg.sender));\n    _;\n  }\n\n  struct KeeperProposal {\n    address keeperAddress;\n    bytes publicKey; // 64-byte\n    uint keepingFee;\n  }\n\n  struct ActiveKeeper {\n    bytes publicKey; // 64-byte\n    bytes32 keyPartHash; // sha-3 hash\n    uint keepingFee;\n    uint balance;\n    uint lastCheckInAt;\n    bool keyPartSupplied;\n  }\n\n  struct EncryptedData {\n    bytes encryptedData;\n    bytes16 aesCounter;\n    bytes32 dataHash; // sha-3 hash\n    bytes encryptedKeyParts; // packed array of key parts\n    uint16 shareLength;\n    bytes[] suppliedKeyParts;\n  }\n\n  address public owner = msg.sender;\n\n  // When owner wants to elect new Keepers, she cancels the contract and starts a new one.\n  // This variable contains the address of the new continuation contract.\n  address public continuationContractAddress = 0;\n\n  uint public checkInInterval;\n  uint public lastOwnerCheckInAt;\n\n  States public state = States.CallForKeepers;\n\n  EncryptedData public encryptedData;\n\n  KeeperProposal[] public keeperProposals;\n  mapping(address => bool) public proposedKeeperFlags;\n  mapping(bytes32 => bool) private proposedPublicKeyHashes;\n\n  mapping(address => ActiveKeeper) public activeKeepers;\n  address[] public activeKeepersAddresses;\n\n  // Sum of keeping fees of all active Keepers.\n  uint public totalKeepingFee;\n\n  // We need this because current version of Solidity doesn't support non-integer numbers.\n  // We set it to be equal to number of wei in eth to make sure we transfer keeping fee with\n  // enough precision.\n  uint public constant KEEPING_FEE_ROUNDING_MULT = 1 ether;\n\n  // Don't allow owner to specify check-in interval less than this when creating a new contract.\n  uint public constant MINIMUM_CHECK_IN_INTERVAL = 1 minutes;\n\n\n  // Called by the person who possesses the data they wish to transfer.\n  // This person becomes the owner of the contract.\n  //\n  function CryptoLegacy(uint _checkInInterval) public {\n    require(_checkInInterval >= MINIMUM_CHECK_IN_INTERVAL);\n    checkInInterval = _checkInInterval;\n  }\n\n\n  function getVersion() public view returns (uint) {\n    return VERSION;\n  }\n\n\n  function getOwner() public view returns (address) {\n    return owner;\n  }\n\n\n  function getContinuationContractAddress() public view returns (address) {\n    return continuationContractAddress;\n  }\n\n\n  function isAcceptingKeeperProposals() public view returns (bool) {\n    return state == States.CallForKeepers;\n  }\n\n\n  function getNumProposals() external view returns (uint) {\n    return keeperProposals.length;\n  }\n\n\n  function getNumKeepers() external view returns (uint) {\n    return activeKeepersAddresses.length;\n  }\n\n\n  function getNumSuppliedKeyParts() external view returns (uint) {\n    return encryptedData.suppliedKeyParts.length;\n  }\n\n\n  function getSuppliedKeyPart(uint index) external view returns (bytes) {\n    return encryptedData.suppliedKeyParts[index];\n  }\n\n  function isActiveKeeper(address addr) public view returns (bool) {\n    return activeKeepers[addr].lastCheckInAt > 0;\n  }\n\n  function didSendProposal(address addr) public view returns (bool) {\n    return proposedKeeperFlags[addr];\n  }\n\n\n  // Called by a Keeper to submit their proposal.\n  //\n  function submitKeeperProposal(bytes publicKey, uint keepingFee) external\n    atState(States.CallForKeepers)\n  {\n    require(msg.sender != owner);\n    require(!didSendProposal(msg.sender));\n    require(publicKey.length <= 128);\n\n    bytes32 publicKeyHash = keccak256(publicKey);\n    require(!proposedPublicKeyHashes[publicKeyHash]);\n\n    keeperProposals.push(KeeperProposal({\n      keeperAddress: msg.sender,\n      publicKey: publicKey,\n      keepingFee: keepingFee\n    }));\n\n    proposedKeeperFlags[msg.sender] = true;\n    proposedPublicKeyHashes[publicKeyHash] = true;\n  }\n\n  // Calculates how much would it cost the owner to activate contract with given Keepers.\n  //\n  function calculateActivationPrice(uint[] selectedProposalIndices) public view returns (uint) {\n    uint _totalKeepingFee = 0;\n\n    for (uint i = 0; i < selectedProposalIndices.length; i++) {\n      uint proposalIndex = selectedProposalIndices[i];\n      KeeperProposal storage proposal = keeperProposals[proposalIndex];\n      _totalKeepingFee = SafeMath.add(_totalKeepingFee, proposal.keepingFee);\n    }\n\n    return _totalKeepingFee;\n  }\n\n\n  // Called by owner to accept selected proposals and activate the contract.\n  //\n  function acceptKeepers(\n    uint[] selectedProposalIndices,\n    bytes32[] keyPartHashes,\n    bytes encryptedKeyParts,\n    uint16 shareLength,\n    bytes _encryptedData,\n    bytes32 dataHash,\n    bytes16 aesCounter\n  ) payable external\n    ownerOnly()\n    atState(States.CallForKeepers)\n  {\n    encryptedData = EncryptedData({\n      encryptedData: _encryptedData,\n      aesCounter: aesCounter,\n      dataHash: dataHash,\n      encryptedKeyParts: encryptedKeyParts,\n      shareLength: shareLength,\n      suppliedKeyParts: new bytes[](0)\n    });\n\n    totalKeepingFee = writeKeepers(selectedProposalIndices, keyPartHashes);\n\n    uint balance = this.balance;\n    require(balance >= totalKeepingFee);\n\n    state = States.Active;\n    lastOwnerCheckInAt = getBlockTimestamp();\n  }\n\n\n  // Returns: sum of keeping fees of all selected Keepers.\n  //\n  function writeKeepers(\n    uint[] selectedProposalIndices,\n    bytes32[] keyPartHashes\n  )\n  internal returns (uint)\n  {\n    uint timestamp = getBlockTimestamp();\n    uint _totalKeepingFee = 0;\n\n    for (uint i = 0; i < selectedProposalIndices.length; i++) {\n      uint proposalIndex = selectedProposalIndices[i];\n      KeeperProposal storage proposal = keeperProposals[proposalIndex];\n\n      activeKeepers[proposal.keeperAddress] = ActiveKeeper({\n        publicKey: proposal.publicKey,\n        keyPartHash: keyPartHashes[i],\n        keepingFee: proposal.keepingFee,\n        lastCheckInAt: timestamp,\n        balance: 0,\n        keyPartSupplied: false\n      });\n\n      activeKeepersAddresses.push(proposal.keeperAddress);\n      _totalKeepingFee = SafeMath.add(_totalKeepingFee, proposal.keepingFee);\n    }\n\n    return _totalKeepingFee;\n  }\n\n\n  // Updates owner check-in time and credits all active Keepers with keeping fee.\n  //\n  function ownerCheckIn() payable external\n    ownerOnly()\n    atState(States.Active)\n  {\n    uint excessBalance = creditKeepers({prepayOneKeepingPeriodUpfront: true});\n\n    lastOwnerCheckInAt = getBlockTimestamp();\n\n    if (excessBalance > 0) {\n      msg.sender.transfer(excessBalance);\n    }\n  }\n\n\n  // Calculates approximate price of a check-in, given that it will be performed right now.\n  // Actual price may differ because\n  //\n  function calculateApproximateCheckInPrice() public view returns (uint) {\n    uint keepingFeeMult = calculateKeepingFeeMult();\n    uint requiredBalance = 0;\n\n    for (uint i = 0; i < activeKeepersAddresses.length; i++) {\n      ActiveKeeper storage keeper = activeKeepers[activeKeepersAddresses[i]];\n      uint balanceToAdd = SafeMath.mul(keeper.keepingFee, keepingFeeMult) / KEEPING_FEE_ROUNDING_MULT;\n      uint newKeeperBalance = SafeMath.add(keeper.balance, balanceToAdd);\n      requiredBalance = SafeMath.add(requiredBalance, newKeeperBalance);\n    }\n\n    requiredBalance = SafeMath.add(requiredBalance, totalKeepingFee);\n    uint balance = this.balance;\n\n    if (balance >= requiredBalance) {\n      return 0;\n    } else {\n      return requiredBalance - balance;\n    }\n  }\n\n\n  // Returns: excess balance that can be transferred back to owner.\n  //\n  function creditKeepers(bool prepayOneKeepingPeriodUpfront) internal returns (uint) {\n    uint keepingFeeMult = calculateKeepingFeeMult();\n    uint requiredBalance = 0;\n\n    for (uint i = 0; i < activeKeepersAddresses.length; i++) {\n      ActiveKeeper storage keeper = activeKeepers[activeKeepersAddresses[i]];\n      uint balanceToAdd = SafeMath.mul(keeper.keepingFee, keepingFeeMult) / KEEPING_FEE_ROUNDING_MULT;\n      keeper.balance = SafeMath.add(keeper.balance, balanceToAdd);\n      requiredBalance = SafeMath.add(requiredBalance, keeper.balance);\n    }\n\n    if (prepayOneKeepingPeriodUpfront) {\n      requiredBalance = SafeMath.add(requiredBalance, totalKeepingFee);\n    }\n\n    uint balance = this.balance;\n\n    require(balance >= requiredBalance);\n    return balance - requiredBalance;\n  }\n\n\n  function calculateKeepingFeeMult() internal view returns (uint) {\n    uint timeSinceLastOwnerCheckIn = SafeMath.sub(getBlockTimestamp(), lastOwnerCheckInAt);\n    require(timeSinceLastOwnerCheckIn <= checkInInterval);\n\n    timeSinceLastOwnerCheckIn = ceil(timeSinceLastOwnerCheckIn, 600); // ceil to 10 minutes\n    if (timeSinceLastOwnerCheckIn > checkInInterval) {\n      timeSinceLastOwnerCheckIn = checkInInterval;\n    }\n\n    return SafeMath.mul(KEEPING_FEE_ROUNDING_MULT, timeSinceLastOwnerCheckIn) / checkInInterval;\n  }\n\n\n  // Pays the Keeper their balance and updates their check-in time. Verifies that the owner\n  // checked in in time and, if not, transfers the contract into CALL_FOR_KEYS state.\n  //\n  // A Keeper can call this method to get his reward regardless of the contract state.\n  //\n  function keeperCheckIn() external\n    activeKeepersOnly()\n  {\n    uint timestamp = getBlockTimestamp();\n\n    ActiveKeeper storage keeper = activeKeepers[msg.sender];\n    keeper.lastCheckInAt = timestamp;\n\n    if (state == States.Active) {\n      uint timeSinceLastOwnerCheckIn = SafeMath.sub(timestamp, lastOwnerCheckInAt);\n      if (timeSinceLastOwnerCheckIn > checkInInterval) {\n        state = States.CallForKeys;\n        KeysNeeded();\n      }\n    }\n\n    uint keeperBalance = keeper.balance;\n    if (keeperBalance > 0) {\n      keeper.balance = 0;\n      msg.sender.transfer(keeperBalance);\n    }\n  }\n\n\n  // Called by Keepers to supply their decrypted key parts.\n  //\n  function supplyKey(bytes keyPart) external\n    activeKeepersOnly()\n    atState(States.CallForKeys)\n  {\n    ActiveKeeper storage keeper = activeKeepers[msg.sender];\n    require(!keeper.keyPartSupplied);\n\n    bytes32 suppliedKeyPartHash = keccak256(keyPart);\n    require(suppliedKeyPartHash == keeper.keyPartHash);\n\n    encryptedData.suppliedKeyParts.push(keyPart);\n    keeper.keyPartSupplied = true;\n\n    // Include one-period keeping fee that was held by contract in advance.\n    uint toBeTransferred = SafeMath.add(keeper.balance, keeper.keepingFee);\n    keeper.balance = 0;\n\n    if (toBeTransferred > 0) {\n      msg.sender.transfer(toBeTransferred);\n    }\n  }\n\n\n  // Allows owner to announce continuation contract to all active Keepers.\n  //\n  // Continuation contract is used to elect new set of Keepers, e.g. to replace inactive ones.\n  // When the continuation contract gets sufficient number of keeping proposals, owner will\n  // cancel this contract and start the continuation one.\n  //\n  function announceContinuationContract(address _continuationContractAddress) external\n    ownerOnly()\n    atState(States.Active)\n  {\n    require(continuationContractAddress == 0);\n    require(_continuationContractAddress != address(this));\n\n    CryptoLegacyBaseAPI continuationContract = CryptoLegacyBaseAPI(_continuationContractAddress);\n\n    require(continuationContract.getOwner() == getOwner());\n    require(continuationContract.getVersion() >= getVersion());\n    require(continuationContract.isAcceptingKeeperProposals());\n\n    continuationContractAddress = _continuationContractAddress;\n    ContinuationContractAnnounced(_continuationContractAddress);\n  }\n\n\n  // Cancels the contract and notifies the Keepers. Credits all active Keepers with keeping fee,\n  // as if this was a check-in.\n  //\n  function cancel() payable external\n    ownerOnly()\n    atEitherOfStates(States.CallForKeepers, States.Active)\n  {\n    uint excessBalance = 0;\n\n    if (state == States.Active) {\n      // We don't require paying one keeping period upfront as the contract is being cancelled;\n      // we just require paying till the present moment.\n      excessBalance = creditKeepers({prepayOneKeepingPeriodUpfront: false});\n    }\n\n    state = States.Cancelled;\n    Cancelled();\n\n    if (excessBalance > 0) {\n      msg.sender.transfer(excessBalance);\n    }\n  }\n\n\n  // We can rely on the value of now (block.timestamp) for our purposes, as the consensus\n  // rule is that a block's timestamp must be 1) more than the parent's block timestamp;\n  // and 2) less than the current wall clock time. See:\n  // https://github.com/ethereum/go-ethereum/blob/885c13c/consensus/ethash/consensus.go#L223\n  //\n  function getBlockTimestamp() internal view returns (uint) {\n    return now;\n  }\n\n\n  // See: https://stackoverflow.com/a/2745086/804678\n  //\n  function ceil(uint x, uint y) internal pure returns (uint) {\n    if (x == 0) return 0;\n    return (1 + ((x - 1) / y)) * y;\n  }\n\n}\n",
  "sourcePath": "/Users/sam/dev/projects/crypto-legacy/crypto-legacy/truffle/contracts/CryptoLegacy.sol",
  "compiler": {
    "name": "solc",
    "version": "0.4.18+commit.9cf6e910.Emscripten.clang"
  },
  "schemaVersion": "1.0.1",
  "updatedAt": "2018-02-22T14:37:03.096Z"
}