{
  "contractName": "CryptoLegacyDebug",
  "abi": [
    {
      "constant": true,
      "inputs": [],
      "name": "getNumSuppliedKeyParts",
      "outputs": [
        {
          "name": "",
          "type": "uint256"
        }
      ],
      "payable": false,
      "stateMutability": "view",
      "type": "function"
    },
    {
      "constant": true,
      "inputs": [
        {
          "name": "addr",
          "type": "address"
        }
      ],
      "name": "didSendProposal",
      "outputs": [
        {
          "name": "",
          "type": "bool"
        }
      ],
      "payable": false,
      "stateMutability": "view",
      "type": "function"
    },
    {
      "constant": true,
      "inputs": [],
      "name": "getVersion",
      "outputs": [
        {
          "name": "",
          "type": "uint256"
        }
      ],
      "payable": false,
      "stateMutability": "view",
      "type": "function"
    },
    {
      "constant": false,
      "inputs": [
        {
          "name": "publicKey",
          "type": "bytes"
        },
        {
          "name": "keepingFee",
          "type": "uint256"
        }
      ],
      "name": "submitKeeperProposal",
      "outputs": [],
      "payable": false,
      "stateMutability": "nonpayable",
      "type": "function"
    },
    {
      "constant": true,
      "inputs": [
        {
          "name": "addr",
          "type": "address"
        }
      ],
      "name": "isActiveKeeper",
      "outputs": [
        {
          "name": "",
          "type": "bool"
        }
      ],
      "payable": false,
      "stateMutability": "view",
      "type": "function"
    },
    {
      "constant": false,
      "inputs": [
        {
          "name": "keyPart",
          "type": "bytes"
        }
      ],
      "name": "supplyKey",
      "outputs": [],
      "payable": false,
      "stateMutability": "nonpayable",
      "type": "function"
    },
    {
      "constant": false,
      "inputs": [],
      "name": "ownerCheckIn",
      "outputs": [],
      "payable": true,
      "stateMutability": "payable",
      "type": "function"
    },
    {
      "constant": true,
      "inputs": [
        {
          "name": "",
          "type": "uint256"
        }
      ],
      "name": "activeKeepersAddresses",
      "outputs": [
        {
          "name": "",
          "type": "address"
        }
      ],
      "payable": false,
      "stateMutability": "view",
      "type": "function"
    },
    {
      "constant": false,
      "inputs": [
        {
          "name": "selectedProposalIndices",
          "type": "uint256[]"
        },
        {
          "name": "keyPartHashes",
          "type": "bytes32[]"
        },
        {
          "name": "encryptedKeyParts",
          "type": "bytes"
        },
        {
          "name": "_encryptedData",
          "type": "bytes"
        },
        {
          "name": "dataHash",
          "type": "bytes32"
        },
        {
          "name": "aesCounter",
          "type": "uint256"
        }
      ],
      "name": "acceptKeepers",
      "outputs": [],
      "payable": true,
      "stateMutability": "payable",
      "type": "function"
    },
    {
      "constant": true,
      "inputs": [
        {
          "name": "",
          "type": "address"
        }
      ],
      "name": "proposedKeeperFlags",
      "outputs": [
        {
          "name": "",
          "type": "bool"
        }
      ],
      "payable": false,
      "stateMutability": "view",
      "type": "function"
    },
    {
      "constant": false,
      "inputs": [
        {
          "name": "newVersion",
          "type": "uint256"
        }
      ],
      "name": "setVersion",
      "outputs": [],
      "payable": false,
      "stateMutability": "nonpayable",
      "type": "function"
    },
    {
      "constant": true,
      "inputs": [],
      "name": "debugVersion",
      "outputs": [
        {
          "name": "",
          "type": "uint256"
        }
      ],
      "payable": false,
      "stateMutability": "view",
      "type": "function"
    },
    {
      "constant": true,
      "inputs": [],
      "name": "isAcceptingKeeperProposals",
      "outputs": [
        {
          "name": "",
          "type": "bool"
        }
      ],
      "payable": false,
      "stateMutability": "view",
      "type": "function"
    },
    {
      "constant": true,
      "inputs": [],
      "name": "lastOwnerCheckInAt",
      "outputs": [
        {
          "name": "",
          "type": "uint256"
        }
      ],
      "payable": false,
      "stateMutability": "view",
      "type": "function"
    },
    {
      "constant": true,
      "inputs": [
        {
          "name": "",
          "type": "uint256"
        }
      ],
      "name": "keeperProposals",
      "outputs": [
        {
          "name": "keeperAddress",
          "type": "address"
        },
        {
          "name": "publicKey",
          "type": "bytes"
        },
        {
          "name": "keepingFee",
          "type": "uint256"
        }
      ],
      "payable": false,
      "stateMutability": "view",
      "type": "function"
    },
    {
      "constant": true,
      "inputs": [],
      "name": "getNumProposals",
      "outputs": [
        {
          "name": "",
          "type": "uint256"
        }
      ],
      "payable": false,
      "stateMutability": "view",
      "type": "function"
    },
    {
      "constant": true,
      "inputs": [],
      "name": "calculateApproximateCheckInPrice",
      "outputs": [
        {
          "name": "",
          "type": "uint256"
        }
      ],
      "payable": false,
      "stateMutability": "view",
      "type": "function"
    },
    {
      "constant": true,
      "inputs": [],
      "name": "totalKeepingFee",
      "outputs": [
        {
          "name": "",
          "type": "uint256"
        }
      ],
      "payable": false,
      "stateMutability": "view",
      "type": "function"
    },
    {
      "constant": true,
      "inputs": [],
      "name": "getOwner",
      "outputs": [
        {
          "name": "",
          "type": "address"
        }
      ],
      "payable": false,
      "stateMutability": "view",
      "type": "function"
    },
    {
      "constant": true,
      "inputs": [],
      "name": "KEEPING_FEE_ROUNDING_MULT",
      "outputs": [
        {
          "name": "",
          "type": "uint256"
        }
      ],
      "payable": false,
      "stateMutability": "view",
      "type": "function"
    },
    {
      "constant": true,
      "inputs": [],
      "name": "owner",
      "outputs": [
        {
          "name": "",
          "type": "address"
        }
      ],
      "payable": false,
      "stateMutability": "view",
      "type": "function"
    },
    {
      "constant": true,
      "inputs": [],
      "name": "continuationContractAddress",
      "outputs": [
        {
          "name": "",
          "type": "address"
        }
      ],
      "payable": false,
      "stateMutability": "view",
      "type": "function"
    },
    {
      "constant": true,
      "inputs": [],
      "name": "debugTimestamp",
      "outputs": [
        {
          "name": "",
          "type": "uint256"
        }
      ],
      "payable": false,
      "stateMutability": "view",
      "type": "function"
    },
    {
      "constant": true,
      "inputs": [],
      "name": "MINIMUM_CHECK_IN_INTERVAL",
      "outputs": [
        {
          "name": "",
          "type": "uint256"
        }
      ],
      "payable": false,
      "stateMutability": "view",
      "type": "function"
    },
    {
      "constant": true,
      "inputs": [],
      "name": "checkInInterval",
      "outputs": [
        {
          "name": "",
          "type": "uint256"
        }
      ],
      "payable": false,
      "stateMutability": "view",
      "type": "function"
    },
    {
      "constant": true,
      "inputs": [],
      "name": "state",
      "outputs": [
        {
          "name": "",
          "type": "uint8"
        }
      ],
      "payable": false,
      "stateMutability": "view",
      "type": "function"
    },
    {
      "constant": false,
      "inputs": [],
      "name": "keeperCheckIn",
      "outputs": [],
      "payable": false,
      "stateMutability": "nonpayable",
      "type": "function"
    },
    {
      "constant": false,
      "inputs": [
        {
          "name": "_continuationContractAddress",
          "type": "address"
        }
      ],
      "name": "announceContinuationContract",
      "outputs": [],
      "payable": false,
      "stateMutability": "nonpayable",
      "type": "function"
    },
    {
      "constant": true,
      "inputs": [
        {
          "name": "",
          "type": "address"
        }
      ],
      "name": "activeKeepers",
      "outputs": [
        {
          "name": "publicKey",
          "type": "bytes"
        },
        {
          "name": "keyPartHash",
          "type": "bytes32"
        },
        {
          "name": "keepingFee",
          "type": "uint256"
        },
        {
          "name": "balance",
          "type": "uint256"
        },
        {
          "name": "lastCheckInAt",
          "type": "uint256"
        },
        {
          "name": "keyPartSupplied",
          "type": "bool"
        }
      ],
      "payable": false,
      "stateMutability": "view",
      "type": "function"
    },
    {
      "constant": true,
      "inputs": [
        {
          "name": "selectedProposalIndices",
          "type": "uint256[]"
        }
      ],
      "name": "calculateActivationPrice",
      "outputs": [
        {
          "name": "",
          "type": "uint256"
        }
      ],
      "payable": false,
      "stateMutability": "view",
      "type": "function"
    },
    {
      "constant": false,
      "inputs": [
        {
          "name": "sec",
          "type": "uint256"
        }
      ],
      "name": "increaseTimeBy",
      "outputs": [],
      "payable": false,
      "stateMutability": "nonpayable",
      "type": "function"
    },
    {
      "constant": true,
      "inputs": [
        {
          "name": "index",
          "type": "uint256"
        }
      ],
      "name": "getSuppliedKeyPart",
      "outputs": [
        {
          "name": "",
          "type": "bytes"
        }
      ],
      "payable": false,
      "stateMutability": "view",
      "type": "function"
    },
    {
      "constant": true,
      "inputs": [],
      "name": "getNumKeepers",
      "outputs": [
        {
          "name": "",
          "type": "uint256"
        }
      ],
      "payable": false,
      "stateMutability": "view",
      "type": "function"
    },
    {
      "constant": true,
      "inputs": [],
      "name": "encryptedData",
      "outputs": [
        {
          "name": "encryptedData",
          "type": "bytes"
        },
        {
          "name": "aesCounter",
          "type": "uint256"
        },
        {
          "name": "dataHash",
          "type": "bytes32"
        },
        {
          "name": "encryptedKeyParts",
          "type": "bytes"
        }
      ],
      "payable": false,
      "stateMutability": "view",
      "type": "function"
    },
    {
      "constant": false,
      "inputs": [],
      "name": "cancel",
      "outputs": [],
      "payable": true,
      "stateMutability": "payable",
      "type": "function"
    },
    {
      "constant": true,
      "inputs": [],
      "name": "VERSION",
      "outputs": [
        {
          "name": "",
          "type": "uint256"
        }
      ],
      "payable": false,
      "stateMutability": "view",
      "type": "function"
    },
    {
      "inputs": [
        {
          "name": "_checkInInterval",
          "type": "uint256"
        }
      ],
      "payable": false,
      "stateMutability": "nonpayable",
      "type": "constructor"
    },
    {
      "anonymous": false,
      "inputs": [],
      "name": "KeysNeeded",
      "type": "event"
    },
    {
      "anonymous": false,
      "inputs": [
        {
          "indexed": false,
          "name": "continuationContractAddress",
          "type": "address"
        }
      ],
      "name": "ContinuationContractAnnounced",
      "type": "event"
    },
    {
      "anonymous": false,
      "inputs": [],
      "name": "Cancelled",
      "type": "event"
    }
  ],
  "bytecode": "0x6060604052336000806101000a81548173ffffffffffffffffffffffffffffffffffffffff021916908373ffffffffffffffffffffffffffffffffffffffff1602179055506000600160006101000a81548173ffffffffffffffffffffffffffffffffffffffff021916908373ffffffffffffffffffffffffffffffffffffffff1602179055506000600460006101000a81548160ff021916908360038111156100a557fe5b0217905550602a60105534156100ba57600080fd5b6040516020806129c48339810160405280805190602001909190505080610e1081101515156100e857600080fd5b8060028190555050506128c4806101006000396000f3006060604052600436106101c2576000357c0100000000000000000000000000000000000000000000000000000000900463ffffffff16806304ed3e4e146101c7578063071f8601146101f05780630d8e6e2c1461024157806317995d7b1461026a5780632224768d146102a1578063259c3aed146102f257806339dd4f6d146103205780633afd601a1461032a5780633cc2798a1461038d5780633f135f8614610402578063408def1e146104535780636b72096e14610476578063760a44401461049f57806376eca21e146104cc578063781970e6146104f5578063798974dd146105e85780637a54c1921461061157806387a083ca1461063a578063893d20e8146106635780638d594651146106b85780638da5cb5b146106e1578063a3521f1314610736578063b63c9e441461078b578063ba4ff498146107b4578063bfd25fa5146107dd578063c19d93fb14610806578063c53c9bb61461083d578063cc1b3b9c14610852578063cdd35b2d1461088b578063ce35d24614610989578063d4cd51bf146109f7578063d830d1e514610a1a578063d97cdcbc14610ab6578063e9fc715a14610adf578063ea8a1af014610c29578063ffa1ad7414610c33575b600080fd5b34156101d257600080fd5b6101da610c5c565b6040518082815260200191505060405180910390f35b34156101fb57600080fd5b610227600480803573ffffffffffffffffffffffffffffffffffffffff16906020019091905050610c6c565b604051808215151515815260200191505060405180910390f35b341561024c57600080fd5b610254610cc2565b6040518082815260200191505060405180910390f35b341561027557600080fd5b61029f60048080359060200190820180359060200191909192908035906020019091905050610ce0565b005b34156102ac57600080fd5b6102d8600480803573ffffffffffffffffffffffffffffffffffffffff16906020019091905050610f7f565b604051808215151515815260200191505060405180910390f35b34156102fd57600080fd5b61031e60048080359060200190820180359060200191909192905050610fcd565b005b61032861117c565b005b341561033557600080fd5b61034b6004808035906020019091905050611276565b604051808273ffffffffffffffffffffffffffffffffffffffff1673ffffffffffffffffffffffffffffffffffffffff16815260200191505060405180910390f35b61040060048080359060200190820180359060200191909192908035906020019082018035906020019190919290803590602001908201803590602001919091929080359060200190820180359060200191909192908035600019169060200190919080359060200190919050506112b5565b005b341561040d57600080fd5b610439600480803573ffffffffffffffffffffffffffffffffffffffff1690602001909190505061156b565b604051808215151515815260200191505060405180910390f35b341561045e57600080fd5b610474600480803590602001909190505061158b565b005b341561048157600080fd5b610489611595565b6040518082815260200191505060405180910390f35b34156104aa57600080fd5b6104b261159b565b604051808215151515815260200191505060405180910390f35b34156104d757600080fd5b6104df6115ca565b6040518082815260200191505060405180910390f35b341561050057600080fd5b61051660048080359060200190919050506115d0565b604051808473ffffffffffffffffffffffffffffffffffffffff1673ffffffffffffffffffffffffffffffffffffffff168152602001806020018381526020018281038252848181546001816001161561010002031660029004815260200191508054600181600116156101000203166002900480156105d75780601f106105ac576101008083540402835291602001916105d7565b820191906000526020600020905b8154815290600101906020018083116105ba57829003601f168201915b505094505050505060405180910390f35b34156105f357600080fd5b6105fb611628565b6040518082815260200191505060405180910390f35b341561061c57600080fd5b610624611635565b6040518082815260200191505060405180910390f35b341561064557600080fd5b61064d611772565b6040518082815260200191505060405180910390f35b341561066e57600080fd5b610676611778565b604051808273ffffffffffffffffffffffffffffffffffffffff1673ffffffffffffffffffffffffffffffffffffffff16815260200191505060405180910390f35b34156106c357600080fd5b6106cb6117a1565b6040518082815260200191505060405180910390f35b34156106ec57600080fd5b6106f46117ad565b604051808273ffffffffffffffffffffffffffffffffffffffff1673ffffffffffffffffffffffffffffffffffffffff16815260200191505060405180910390f35b341561074157600080fd5b6107496117d2565b604051808273ffffffffffffffffffffffffffffffffffffffff1673ffffffffffffffffffffffffffffffffffffffff16815260200191505060405180910390f35b341561079657600080fd5b61079e6117f8565b6040518082815260200191505060405180910390f35b34156107bf57600080fd5b6107c76117fe565b6040518082815260200191505060405180910390f35b34156107e857600080fd5b6107f0611804565b6040518082815260200191505060405180910390f35b341561081157600080fd5b61081961180a565b6040518082600381111561082957fe5b60ff16815260200191505060405180910390f35b341561084857600080fd5b61085061181d565b005b341561085d57600080fd5b610889600480803573ffffffffffffffffffffffffffffffffffffffff16906020019091905050611983565b005b341561089657600080fd5b6108c2600480803573ffffffffffffffffffffffffffffffffffffffff16906020019091905050611cfd565b60405180806020018760001916600019168152602001868152602001858152602001848152602001831515151581526020018281038252888181546001816001161561010002031660029004815260200191508054600181600116156101000203166002900480156109755780601f1061094a57610100808354040283529160200191610975565b820191906000526020600020905b81548152906001019060200180831161095857829003601f168201915b505097505050505050505060405180910390f35b341561099457600080fd5b6109e1600480803590602001908201803590602001908080602002602001604051908101604052809392919081815260200183836020028082843782019150505050505091905050611d45565b6040518082815260200191505060405180910390f35b3415610a0257600080fd5b610a186004808035906020019091905050611dc0565b005b3415610a2557600080fd5b610a3b6004808035906020019091905050611dd3565b6040518080602001828103825283818151815260200191508051906020019080838360005b83811015610a7b578082015181840152602081019050610a60565b50505050905090810190601f168015610aa85780820380516001836020036101000a031916815260200191505b509250505060405180910390f35b3415610ac157600080fd5b610ac9611e98565b6040518082815260200191505060405180910390f35b3415610aea57600080fd5b610af2611ea5565b6040518080602001858152602001846000191660001916815260200180602001838103835287818154600181600116156101000203166002900481526020019150805460018160011615610100020316600290048015610b935780601f10610b6857610100808354040283529160200191610b93565b820191906000526020600020905b815481529060010190602001808311610b7657829003601f168201915b5050838103825284818154600181600116156101000203166002900481526020019150805460018160011615610100020316600290048015610c165780601f10610beb57610100808354040283529160200191610c16565b820191906000526020600020905b815481529060010190602001808311610bf957829003601f168201915b5050965050505050505060405180910390f35b610c31611ec1565b005b3415610c3e57600080fd5b610c46612062565b6040518082815260200191505060405180910390f35b6000600560040180549050905090565b6000600b60008373ffffffffffffffffffffffffffffffffffffffff1673ffffffffffffffffffffffffffffffffffffffff16815260200190815260200160002060009054906101000a900460ff169050919050565b6000806011541415610cd75760019050610cdd565b60115490505b90565b600080806003811115610cef57fe5b600460009054906101000a900460ff166003811115610d0a57fe5b141515610d1657600080fd5b6000809054906101000a900473ffffffffffffffffffffffffffffffffffffffff1673ffffffffffffffffffffffffffffffffffffffff163373ffffffffffffffffffffffffffffffffffffffff1614151515610d7257600080fd5b610d7b33610c6c565b151515610d8757600080fd5b60808585905011151515610d9a57600080fd5b84846040518083838082843782019150509250505060405180910390209150600c6000836000191660001916815260200190815260200160002060009054906101000a900460ff16151515610dee57600080fd5b600a8054806001018281610e02919061258f565b916000526020600020906003020160006060604051908101604052803373ffffffffffffffffffffffffffffffffffffffff16815260200189898080601f016020809104026020016040519081016040528093929190818152602001838380828437820191505050505050815260200187815250909190915060008201518160000160006101000a81548173ffffffffffffffffffffffffffffffffffffffff021916908373ffffffffffffffffffffffffffffffffffffffff1602179055506020820151816001019080519060200190610ede9291906125c1565b50604082015181600201555050506001600b60003373ffffffffffffffffffffffffffffffffffffffff1673ffffffffffffffffffffffffffffffffffffffff16815260200190815260200160002060006101000a81548160ff0219169083151502179055506001600c6000846000191660001916815260200190815260200160002060006101000a81548160ff0219169083151502179055505050505050565b600080600d60008473ffffffffffffffffffffffffffffffffffffffff1673ffffffffffffffffffffffffffffffffffffffff16815260200190815260200160002060040154119050919050565b6000806000610fdb33610f7f565b1515610fe657600080fd5b6002806003811115610ff457fe5b600460009054906101000a900460ff16600381111561100f57fe5b14151561101b57600080fd5b600d60003373ffffffffffffffffffffffffffffffffffffffff1673ffffffffffffffffffffffffffffffffffffffff16815260200190815260200160002093508360050160009054906101000a900460ff1615151561107a57600080fd5b8585604051808383808284378201915050925050506040518091039020925083600101546000191683600019161415156110b357600080fd5b600560040180548060010182816110ca9190612641565b9160005260206000209001600088889091929091925091906110ed92919061266d565b505060018460050160006101000a81548160ff02191690831515021790555061111e84600301548560020154612067565b9150600084600301819055506000821115611174573373ffffffffffffffffffffffffffffffffffffffff166108fc839081150290604051600060405180830381858888f19350505050151561117357600080fd5b5b505050505050565b60008060009054906101000a900473ffffffffffffffffffffffffffffffffffffffff1673ffffffffffffffffffffffffffffffffffffffff163373ffffffffffffffffffffffffffffffffffffffff161415156111d957600080fd5b60018060038111156111e757fe5b600460009054906101000a900460ff16600381111561120257fe5b14151561120e57600080fd5b6112186001612085565b91506112226121cf565b6003819055506000821115611272573373ffffffffffffffffffffffffffffffffffffffff166108fc839081150290604051600060405180830381858888f19350505050151561127157600080fd5b5b5050565b600e8181548110151561128557fe5b90600052602060002090016000915054906101000a900473ffffffffffffffffffffffffffffffffffffffff1681565b60008060009054906101000a900473ffffffffffffffffffffffffffffffffffffffff1673ffffffffffffffffffffffffffffffffffffffff163373ffffffffffffffffffffffffffffffffffffffff1614151561131257600080fd5b600080600381111561132057fe5b600460009054906101000a900460ff16600381111561133b57fe5b14151561134757600080fd5b60a06040519081016040528087878080601f01602080910402602001604051908101604052809392919081815260200183838082843782019150505050505081526020018481526020018560001916815260200189898080601f016020809104026020016040519081016040528093929190818152602001838380828437820191505050505050815260200160006040518059106113e25750595b90808252806020026020018201604052801561141857816020015b6114056126ed565b8152602001906001900390816113fd5790505b508152506005600082015181600001908051906020019061143a9291906125c1565b50602082015181600101556040820151816002019060001916905560608201518160030190805190602001906114719291906125c1565b50608082015181600401908051906020019061148e929190612701565b509050506114fa8c8c808060200260200160405190810160405280939291908181526020018383602002808284378201915050505050508b8b808060200260200160405190810160405280939291908181526020018383602002808284378201915050505050506121d9565b600f819055503073ffffffffffffffffffffffffffffffffffffffff16319150600f54821015151561152b57600080fd5b6001600460006101000a81548160ff0219169083600381111561154a57fe5b02179055506115576121cf565b600381905550505050505050505050505050565b600b6020528060005260406000206000915054906101000a900460ff1681565b8060118190555050565b60115481565b60008060038111156115a957fe5b600460009054906101000a900460ff1660038111156115c457fe5b14905090565b60035481565b600a818154811015156115df57fe5b90600052602060002090600302016000915090508060000160009054906101000a900473ffffffffffffffffffffffffffffffffffffffff169080600101908060020154905083565b6000600a80549050905090565b6000806000806000806000806116496124a7565b965060009550600094505b600e8054905085101561172857600d6000600e8781548110151561167457fe5b906000526020600020900160009054906101000a900473ffffffffffffffffffffffffffffffffffffffff1673ffffffffffffffffffffffffffffffffffffffff1673ffffffffffffffffffffffffffffffffffffffff1681526020019081526020016000209350670de0b6b3a76400006116f3856002015489612513565b8115156116fc57fe5b04925061170d846003015484612067565b91506117198683612067565b95508480600101955050611654565b61173486600f54612067565b95503073ffffffffffffffffffffffffffffffffffffffff1631905085811015156117625760009750611768565b80860397505b5050505050505090565b600f5481565b60008060009054906101000a900473ffffffffffffffffffffffffffffffffffffffff16905090565b670de0b6b3a764000081565b6000809054906101000a900473ffffffffffffffffffffffffffffffffffffffff1681565b600160009054906101000a900473ffffffffffffffffffffffffffffffffffffffff1681565b60105481565b610e1081565b60025481565b600460009054906101000a900460ff1681565b60008060008061182c33610f7f565b151561183757600080fd5b61183f6121cf565b9350600d60003373ffffffffffffffffffffffffffffffffffffffff1673ffffffffffffffffffffffffffffffffffffffff16815260200190815260200160002092508383600401819055506001600381111561189857fe5b600460009054906101000a900460ff1660038111156118b357fe5b1415611922576118c584600354612546565b9150600254821115611921576002600460006101000a81548160ff021916908360038111156118f057fe5b02179055507eea067c7113f3002f0fc5fa11a22f4b7d7c84b63d99d4871ba53c077afc8da560405160405180910390a15b5b82600301549050600081111561197d57600083600301819055503373ffffffffffffffffffffffffffffffffffffffff166108fc829081150290604051600060405180830381858888f19350505050151561197c57600080fd5b5b50505050565b60008060009054906101000a900473ffffffffffffffffffffffffffffffffffffffff1673ffffffffffffffffffffffffffffffffffffffff163373ffffffffffffffffffffffffffffffffffffffff161415156119e057600080fd5b60018060038111156119ee57fe5b600460009054906101000a900460ff166003811115611a0957fe5b141515611a1557600080fd5b6000600160009054906101000a900473ffffffffffffffffffffffffffffffffffffffff1673ffffffffffffffffffffffffffffffffffffffff16141515611a5c57600080fd5b829150611a67611778565b73ffffffffffffffffffffffffffffffffffffffff168273ffffffffffffffffffffffffffffffffffffffff1663893d20e86000604051602001526040518163ffffffff167c0100000000000000000000000000000000000000000000000000000000028152600401602060405180830381600087803b1515611ae957600080fd5b6102c65a03f11515611afa57600080fd5b5050506040518051905073ffffffffffffffffffffffffffffffffffffffff16141515611b2657600080fd5b611b2e610cc2565b8273ffffffffffffffffffffffffffffffffffffffff16630d8e6e2c6000604051602001526040518163ffffffff167c0100000000000000000000000000000000000000000000000000000000028152600401602060405180830381600087803b1515611b9a57600080fd5b6102c65a03f11515611bab57600080fd5b5050506040518051905010151515611bc257600080fd5b8173ffffffffffffffffffffffffffffffffffffffff1663760a44406000604051602001526040518163ffffffff167c0100000000000000000000000000000000000000000000000000000000028152600401602060405180830381600087803b1515611c2e57600080fd5b6102c65a03f11515611c3f57600080fd5b505050604051805190501515611c5457600080fd5b82600160006101000a81548173ffffffffffffffffffffffffffffffffffffffff021916908373ffffffffffffffffffffffffffffffffffffffff1602179055507fd517b3f28983d7964c0ca51f29522226735af584b0a113f040f8a8b10686873b83604051808273ffffffffffffffffffffffffffffffffffffffff1673ffffffffffffffffffffffffffffffffffffffff16815260200191505060405180910390a1505050565b600d60205280600052604060002060009150905080600001908060010154908060020154908060030154908060040154908060050160009054906101000a900460ff16905086565b6000806000806000809350600092505b8551831015611db4578583815181101515611d6c57fe5b906020019060200201519150600a82815481101515611d8757fe5b90600052602060002090600302019050611da5848260020154612067565b93508280600101935050611d55565b83945050505050919050565b8060106000828254019250508190555050565b611ddb612761565b600560040182815481101515611ded57fe5b90600052602060002090018054600181600116156101000203166002900480601f016020809104026020016040519081016040528092919081815260200182805460018160011615610100020316600290048015611e8c5780601f10611e6157610100808354040283529160200191611e8c565b820191906000526020600020905b815481529060010190602001808311611e6f57829003601f168201915b50505050509050919050565b6000600e80549050905090565b6005806000019080600101549080600201549080600301905084565b60008060009054906101000a900473ffffffffffffffffffffffffffffffffffffffff1673ffffffffffffffffffffffffffffffffffffffff163373ffffffffffffffffffffffffffffffffffffffff16141515611f1e57600080fd5b60006001816003811115611f2e57fe5b600460009054906101000a900460ff166003811115611f4957fe5b1480611f795750806003811115611f5c57fe5b600460009054906101000a900460ff166003811115611f7757fe5b145b1515611f8457600080fd5b6000925060016003811115611f9557fe5b600460009054906101000a900460ff166003811115611fb057fe5b1415611fc357611fc06000612085565b92505b6003600460006101000a81548160ff02191690836003811115611fe257fe5b02179055507f63b958841f79ab97cb5456da181454b9932c0e15a3b17f1cbd27e2a8bc61043760405160405180910390a1600083111561205d573373ffffffffffffffffffffffffffffffffffffffff166108fc849081150290604051600060405180830381858888f19350505050151561205c57600080fd5b5b505050565b600181565b600080828401905083811015151561207b57fe5b8091505092915050565b60008060008060008060006120986124a7565b955060009450600093505b600e8054905084101561218157600d6000600e868154811015156120c357fe5b906000526020600020900160009054906101000a900473ffffffffffffffffffffffffffffffffffffffff1673ffffffffffffffffffffffffffffffffffffffff1673ffffffffffffffffffffffffffffffffffffffff1681526020019081526020016000209250670de0b6b3a7640000612142846002015488612513565b81151561214b57fe5b04915061215c836003015483612067565b8360030181905550612172858460030154612067565b945083806001019450506120a3565b87156121965761219385600f54612067565b94505b3073ffffffffffffffffffffffffffffffffffffffff163190508481101515156121bf57600080fd5b8481039650505050505050919050565b6000601054905090565b6000806000806000806121ea6121cf565b945060009350600092505b875183101561249957878381518110151561220c57fe5b906020019060200201519150600a8281548110151561222757fe5b9060005260206000209060030201905060c060405190810160405280826001018054600181600116156101000203166002900480601f0160208091040260200160405190810160405280929190818152602001828054600181600116156101000203166002900480156122db5780601f106122b0576101008083540402835291602001916122db565b820191906000526020600020905b8154815290600101906020018083116122be57829003601f168201915b5050505050815260200188858151811015156122f357fe5b90602001906020020151600019168152602001826002015481526020016000815260200186815260200160001515815250600d60008360000160009054906101000a900473ffffffffffffffffffffffffffffffffffffffff1673ffffffffffffffffffffffffffffffffffffffff1673ffffffffffffffffffffffffffffffffffffffff16815260200190815260200160002060008201518160000190805190602001906123a39291906125c1565b506020820151816001019060001916905560408201518160020155606082015181600301556080820151816004015560a08201518160050160006101000a81548160ff021916908315150217905550905050600e80548060010182816124099190612775565b916000526020600020900160008360000160009054906101000a900473ffffffffffffffffffffffffffffffffffffffff16909190916101000a81548173ffffffffffffffffffffffffffffffffffffffff021916908373ffffffffffffffffffffffffffffffffffffffff1602179055505061248a848260020154612067565b935082806001019350506121f5565b839550505050505092915050565b6000806124bd6124b56121cf565b600354612546565b905060025481111515156124d057600080fd5b6124dc8161025861255f565b90506002548111156124ee5760025490505b600254612503670de0b6b3a764000083612513565b81151561250c57fe5b0491505090565b60008082840290506000841480612534575082848281151561253157fe5b04145b151561253c57fe5b8091505092915050565b600082821115151561255457fe5b818303905092915050565b6000808314156125725760009050612589565b81826001850381151561258157fe5b046001010290505b92915050565b8154818355818115116125bc576003028160030283600052602060002091820191016125bb91906127a1565b5b505050565b828054600181600116156101000203166002900490600052602060002090601f016020900481019282601f1061260257805160ff1916838001178555612630565b82800160010185558215612630579182015b8281111561262f578251825591602001919060010190612614565b5b50905061263d91906127ff565b5090565b815481835581811511612668578183600052602060002091820191016126679190612824565b5b505050565b828054600181600116156101000203166002900490600052602060002090601f016020900481019282601f106126ae57803560ff19168380011785556126dc565b828001600101855582156126dc579182015b828111156126db5782358255916020019190600101906126c0565b5b5090506126e991906127ff565b5090565b602060405190810160405280600081525090565b828054828255906000526020600020908101928215612750579160200282015b8281111561274f57825182908051906020019061273f9291906125c1565b5091602001919060010190612721565b5b50905061275d9190612824565b5090565b602060405190810160405280600081525090565b81548183558181151161279c5781836000526020600020918201910161279b91906127ff565b5b505050565b6127fc91905b808211156127f857600080820160006101000a81549073ffffffffffffffffffffffffffffffffffffffff02191690556001820160006127e79190612850565b6002820160009055506003016127a7565b5090565b90565b61282191905b8082111561281d576000816000905550600101612805565b5090565b90565b61284d91905b8082111561284957600081816128409190612850565b5060010161282a565b5090565b90565b50805460018160011615610100020316600290046000825580601f106128765750612895565b601f01602090049060005260206000209081019061289491906127ff565b5b505600a165627a7a72305820167bc6e850a1930cc9d5ade06427c76aa37c0e87a68a3fd5e7f315bc671fc45c0029",
  "source": "pragma solidity 0.4.18;\n\nimport \"./CryptoLegacy.sol\";\n\ncontract CryptoLegacyDebug is CryptoLegacy {\n\n  function CryptoLegacyDebug(uint _checkInInterval) CryptoLegacy(_checkInInterval) public {\n    // nop\n  }\n\n  // Time\n\n  uint public debugTimestamp = 42;\n\n  function increaseTimeBy(uint sec) external {\n    debugTimestamp += sec;\n  }\n\n  function getBlockTimestamp() internal view returns (uint) {\n    return debugTimestamp;\n  }\n\n  // Version\n\n  uint public debugVersion;\n\n  function getVersion() public view returns (uint) {\n    if (debugVersion == 0) {\n      return VERSION;\n    } else {\n      return debugVersion;\n    }\n  }\n\n  function setVersion(uint newVersion) external {\n    debugVersion = newVersion;\n  }\n\n}\n",
  "sourcePath": "/Users/sam/dev/projects/crypto-legacy/crypto-legacy/truffle/contracts/CryptoLegacyDebug.sol",
  "compiler": {
    "name": "solc",
    "version": "0.4.18+commit.9cf6e910.Emscripten.clang"
  },
  "schemaVersion": "1.0.1",
  "updatedAt": "2017-12-14T15:10:48.941Z"
}