{
  "contractName": "CryptoLegacy",
  "abi": [
    {
      "constant": true,
      "inputs": [],
      "name": "getNumSuppliedKeyParts",
      "outputs": [
        {
          "name": "",
          "type": "uint256"
        }
      ],
      "payable": false,
      "stateMutability": "view",
      "type": "function"
    },
    {
      "constant": true,
      "inputs": [
        {
          "name": "addr",
          "type": "address"
        }
      ],
      "name": "didSendProposal",
      "outputs": [
        {
          "name": "",
          "type": "bool"
        }
      ],
      "payable": false,
      "stateMutability": "view",
      "type": "function"
    },
    {
      "constant": true,
      "inputs": [],
      "name": "getVersion",
      "outputs": [
        {
          "name": "",
          "type": "uint256"
        }
      ],
      "payable": false,
      "stateMutability": "view",
      "type": "function"
    },
    {
      "constant": false,
      "inputs": [
        {
          "name": "publicKey",
          "type": "bytes"
        },
        {
          "name": "keepingFee",
          "type": "uint256"
        }
      ],
      "name": "submitKeeperProposal",
      "outputs": [],
      "payable": false,
      "stateMutability": "nonpayable",
      "type": "function"
    },
    {
      "constant": true,
      "inputs": [
        {
          "name": "addr",
          "type": "address"
        }
      ],
      "name": "isActiveKeeper",
      "outputs": [
        {
          "name": "",
          "type": "bool"
        }
      ],
      "payable": false,
      "stateMutability": "view",
      "type": "function"
    },
    {
      "constant": false,
      "inputs": [
        {
          "name": "keyPart",
          "type": "bytes"
        }
      ],
      "name": "supplyKey",
      "outputs": [],
      "payable": false,
      "stateMutability": "nonpayable",
      "type": "function"
    },
    {
      "constant": false,
      "inputs": [],
      "name": "ownerCheckIn",
      "outputs": [],
      "payable": true,
      "stateMutability": "payable",
      "type": "function"
    },
    {
      "constant": true,
      "inputs": [
        {
          "name": "",
          "type": "uint256"
        }
      ],
      "name": "activeKeepersAddresses",
      "outputs": [
        {
          "name": "",
          "type": "address"
        }
      ],
      "payable": false,
      "stateMutability": "view",
      "type": "function"
    },
    {
      "constant": true,
      "inputs": [
        {
          "name": "",
          "type": "address"
        }
      ],
      "name": "proposedKeeperFlags",
      "outputs": [
        {
          "name": "",
          "type": "bool"
        }
      ],
      "payable": false,
      "stateMutability": "view",
      "type": "function"
    },
    {
      "constant": true,
      "inputs": [],
      "name": "getNumEncryptedKeyPartsChunks",
      "outputs": [
        {
          "name": "",
          "type": "uint256"
        }
      ],
      "payable": false,
      "stateMutability": "view",
      "type": "function"
    },
    {
      "constant": false,
      "inputs": [
        {
          "name": "shareLength",
          "type": "uint16"
        },
        {
          "name": "_encryptedData",
          "type": "bytes"
        },
        {
          "name": "dataHash",
          "type": "bytes32"
        },
        {
          "name": "aesCounter",
          "type": "bytes16"
        }
      ],
      "name": "activate",
      "outputs": [],
      "payable": true,
      "stateMutability": "payable",
      "type": "function"
    },
    {
      "constant": true,
      "inputs": [],
      "name": "isAcceptingKeeperProposals",
      "outputs": [
        {
          "name": "",
          "type": "bool"
        }
      ],
      "payable": false,
      "stateMutability": "view",
      "type": "function"
    },
    {
      "constant": true,
      "inputs": [],
      "name": "lastOwnerCheckInAt",
      "outputs": [
        {
          "name": "",
          "type": "uint256"
        }
      ],
      "payable": false,
      "stateMutability": "view",
      "type": "function"
    },
    {
      "constant": true,
      "inputs": [
        {
          "name": "",
          "type": "uint256"
        }
      ],
      "name": "keeperProposals",
      "outputs": [
        {
          "name": "keeperAddress",
          "type": "address"
        },
        {
          "name": "publicKey",
          "type": "bytes"
        },
        {
          "name": "keepingFee",
          "type": "uint256"
        }
      ],
      "payable": false,
      "stateMutability": "view",
      "type": "function"
    },
    {
      "constant": true,
      "inputs": [],
      "name": "getNumProposals",
      "outputs": [
        {
          "name": "",
          "type": "uint256"
        }
      ],
      "payable": false,
      "stateMutability": "view",
      "type": "function"
    },
    {
      "constant": true,
      "inputs": [],
      "name": "calculateApproximateCheckInPrice",
      "outputs": [
        {
          "name": "",
          "type": "uint256"
        }
      ],
      "payable": false,
      "stateMutability": "view",
      "type": "function"
    },
    {
      "constant": true,
      "inputs": [],
      "name": "totalKeepingFee",
      "outputs": [
        {
          "name": "",
          "type": "uint256"
        }
      ],
      "payable": false,
      "stateMutability": "view",
      "type": "function"
    },
    {
      "constant": true,
      "inputs": [],
      "name": "getOwner",
      "outputs": [
        {
          "name": "",
          "type": "address"
        }
      ],
      "payable": false,
      "stateMutability": "view",
      "type": "function"
    },
    {
      "constant": true,
      "inputs": [],
      "name": "KEEPING_FEE_ROUNDING_MULT",
      "outputs": [
        {
          "name": "",
          "type": "uint256"
        }
      ],
      "payable": false,
      "stateMutability": "view",
      "type": "function"
    },
    {
      "constant": true,
      "inputs": [],
      "name": "owner",
      "outputs": [
        {
          "name": "",
          "type": "address"
        }
      ],
      "payable": false,
      "stateMutability": "view",
      "type": "function"
    },
    {
      "constant": true,
      "inputs": [],
      "name": "continuationContractAddress",
      "outputs": [
        {
          "name": "",
          "type": "address"
        }
      ],
      "payable": false,
      "stateMutability": "view",
      "type": "function"
    },
    {
      "constant": true,
      "inputs": [],
      "name": "MINIMUM_CHECK_IN_INTERVAL",
      "outputs": [
        {
          "name": "",
          "type": "uint256"
        }
      ],
      "payable": false,
      "stateMutability": "view",
      "type": "function"
    },
    {
      "constant": true,
      "inputs": [],
      "name": "checkInInterval",
      "outputs": [
        {
          "name": "",
          "type": "uint256"
        }
      ],
      "payable": false,
      "stateMutability": "view",
      "type": "function"
    },
    {
      "constant": true,
      "inputs": [],
      "name": "state",
      "outputs": [
        {
          "name": "",
          "type": "uint8"
        }
      ],
      "payable": false,
      "stateMutability": "view",
      "type": "function"
    },
    {
      "constant": false,
      "inputs": [],
      "name": "keeperCheckIn",
      "outputs": [],
      "payable": false,
      "stateMutability": "nonpayable",
      "type": "function"
    },
    {
      "constant": false,
      "inputs": [
        {
          "name": "_continuationContractAddress",
          "type": "address"
        }
      ],
      "name": "announceContinuationContract",
      "outputs": [],
      "payable": false,
      "stateMutability": "nonpayable",
      "type": "function"
    },
    {
      "constant": true,
      "inputs": [
        {
          "name": "",
          "type": "address"
        }
      ],
      "name": "activeKeepers",
      "outputs": [
        {
          "name": "publicKey",
          "type": "bytes"
        },
        {
          "name": "keyPartHash",
          "type": "bytes32"
        },
        {
          "name": "keepingFee",
          "type": "uint256"
        },
        {
          "name": "balance",
          "type": "uint256"
        },
        {
          "name": "lastCheckInAt",
          "type": "uint256"
        },
        {
          "name": "keyPartSupplied",
          "type": "bool"
        }
      ],
      "payable": false,
      "stateMutability": "view",
      "type": "function"
    },
    {
      "constant": true,
      "inputs": [
        {
          "name": "selectedProposalIndices",
          "type": "uint256[]"
        }
      ],
      "name": "calculateActivationPrice",
      "outputs": [
        {
          "name": "",
          "type": "uint256"
        }
      ],
      "payable": false,
      "stateMutability": "view",
      "type": "function"
    },
    {
      "constant": true,
      "inputs": [
        {
          "name": "index",
          "type": "uint256"
        }
      ],
      "name": "getEncryptedKeyPartsChunk",
      "outputs": [
        {
          "name": "",
          "type": "bytes"
        }
      ],
      "payable": false,
      "stateMutability": "view",
      "type": "function"
    },
    {
      "constant": true,
      "inputs": [
        {
          "name": "",
          "type": "uint256"
        }
      ],
      "name": "encryptedKeyPartsChunks",
      "outputs": [
        {
          "name": "",
          "type": "bytes"
        }
      ],
      "payable": false,
      "stateMutability": "view",
      "type": "function"
    },
    {
      "constant": true,
      "inputs": [
        {
          "name": "index",
          "type": "uint256"
        }
      ],
      "name": "getSuppliedKeyPart",
      "outputs": [
        {
          "name": "",
          "type": "bytes"
        }
      ],
      "payable": false,
      "stateMutability": "view",
      "type": "function"
    },
    {
      "constant": true,
      "inputs": [],
      "name": "getNumKeepers",
      "outputs": [
        {
          "name": "",
          "type": "uint256"
        }
      ],
      "payable": false,
      "stateMutability": "view",
      "type": "function"
    },
    {
      "constant": true,
      "inputs": [],
      "name": "getContinuationContractAddress",
      "outputs": [
        {
          "name": "",
          "type": "address"
        }
      ],
      "payable": false,
      "stateMutability": "view",
      "type": "function"
    },
    {
      "constant": true,
      "inputs": [],
      "name": "encryptedData",
      "outputs": [
        {
          "name": "encryptedData",
          "type": "bytes"
        },
        {
          "name": "aesCounter",
          "type": "bytes16"
        },
        {
          "name": "dataHash",
          "type": "bytes32"
        },
        {
          "name": "shareLength",
          "type": "uint16"
        }
      ],
      "payable": false,
      "stateMutability": "view",
      "type": "function"
    },
    {
      "constant": false,
      "inputs": [],
      "name": "cancel",
      "outputs": [],
      "payable": true,
      "stateMutability": "payable",
      "type": "function"
    },
    {
      "constant": false,
      "inputs": [
        {
          "name": "selectedProposalIndices",
          "type": "uint256[]"
        },
        {
          "name": "keyPartHashes",
          "type": "bytes32[]"
        },
        {
          "name": "encryptedKeyParts",
          "type": "bytes"
        }
      ],
      "name": "acceptKeepers",
      "outputs": [],
      "payable": false,
      "stateMutability": "nonpayable",
      "type": "function"
    },
    {
      "constant": true,
      "inputs": [],
      "name": "VERSION",
      "outputs": [
        {
          "name": "",
          "type": "uint256"
        }
      ],
      "payable": false,
      "stateMutability": "view",
      "type": "function"
    },
    {
      "inputs": [
        {
          "name": "_checkInInterval",
          "type": "uint256"
        }
      ],
      "payable": false,
      "stateMutability": "nonpayable",
      "type": "constructor"
    },
    {
      "anonymous": false,
      "inputs": [],
      "name": "KeysNeeded",
      "type": "event"
    },
    {
      "anonymous": false,
      "inputs": [
        {
          "indexed": false,
          "name": "continuationContractAddress",
          "type": "address"
        }
      ],
      "name": "ContinuationContractAnnounced",
      "type": "event"
    },
    {
      "anonymous": false,
      "inputs": [],
      "name": "Cancelled",
      "type": "event"
    }
  ],
  "bytecode": "0x6060604052336000806101000a81548173ffffffffffffffffffffffffffffffffffffffff021916908373ffffffffffffffffffffffffffffffffffffffff1602179055506000600160006101000a81548173ffffffffffffffffffffffffffffffffffffffff021916908373ffffffffffffffffffffffffffffffffffffffff1602179055506000600460006101000a81548160ff021916908360038111156100a557fe5b021790555034156100b557600080fd5b604051602080612df083398101604052808051906020019091905050603c81101515156100e157600080fd5b8060028190555050612cf8806100f86000396000f3006060604052600436106101cd576000357c0100000000000000000000000000000000000000000000000000000000900463ffffffff16806304ed3e4e146101d2578063071f8601146101fb5780630d8e6e2c1461024c57806317995d7b146102755780632224768d146102ac578063259c3aed146102fd57806339dd4f6d1461032b5780633afd601a146103355780633f135f861461039857806358d72f24146103e95780636c3c043614610412578063760a44401461046b57806376eca21e14610498578063781970e6146104c1578063798974dd146105b45780637a54c192146105dd57806387a083ca14610606578063893d20e81461062f5780638d594651146106845780638da5cb5b146106ad578063a3521f1314610702578063ba4ff49814610757578063bfd25fa514610780578063c19d93fb146107a9578063c53c9bb6146107e0578063cc1b3b9c146107f5578063cdd35b2d1461082e578063ce35d2461461092c578063cee1ec311461099a578063d01c003714610a36578063d830d1e514610ad2578063d97cdcbc14610b6e578063e01ee27714610b97578063e9fc715a14610bec578063ea8a1af014610ce2578063f083237c14610cec578063ffa1ad7414610d42575b600080fd5b34156101dd57600080fd5b6101e5610d6b565b6040518082815260200191505060405180910390f35b341561020657600080fd5b610232600480803573ffffffffffffffffffffffffffffffffffffffff16906020019091905050610d7b565b604051808215151515815260200191505060405180910390f35b341561025757600080fd5b61025f610dd1565b6040518082815260200191505060405180910390f35b341561028057600080fd5b6102aa60048080359060200190820180359060200191909192908035906020019091905050610dda565b005b34156102b757600080fd5b6102e3600480803573ffffffffffffffffffffffffffffffffffffffff16906020019091905050611079565b604051808215151515815260200191505060405180910390f35b341561030857600080fd5b610329600480803590602001908201803590602001919091929050506110c7565b005b610333611276565b005b341561034057600080fd5b6103566004808035906020019091905050611370565b604051808273ffffffffffffffffffffffffffffffffffffffff1673ffffffffffffffffffffffffffffffffffffffff16815260200191505060405180910390f35b34156103a357600080fd5b6103cf600480803573ffffffffffffffffffffffffffffffffffffffff169060200190919050506113af565b604051808215151515815260200191505060405180910390f35b34156103f457600080fd5b6103fc6113cf565b6040518082815260200191505060405180910390f35b610469600480803561ffff169060200190919080359060200190820180359060200191909192908035600019169060200190919080356fffffffffffffffffffffffffffffffff19169060200190919050506113dc565b005b341561047657600080fd5b61047e611702565b604051808215151515815260200191505060405180910390f35b34156104a357600080fd5b6104ab611731565b6040518082815260200191505060405180910390f35b34156104cc57600080fd5b6104e26004808035906020019091905050611737565b604051808473ffffffffffffffffffffffffffffffffffffffff1673ffffffffffffffffffffffffffffffffffffffff168152602001806020018381526020018281038252848181546001816001161561010002031660029004815260200191508054600181600116156101000203166002900480156105a35780601f10610578576101008083540402835291602001916105a3565b820191906000526020600020905b81548152906001019060200180831161058657829003601f168201915b505094505050505060405180910390f35b34156105bf57600080fd5b6105c761178f565b6040518082815260200191505060405180910390f35b34156105e857600080fd5b6105f061179c565b6040518082815260200191505060405180910390f35b341561061157600080fd5b6106196118d9565b6040518082815260200191505060405180910390f35b341561063a57600080fd5b6106426118df565b604051808273ffffffffffffffffffffffffffffffffffffffff1673ffffffffffffffffffffffffffffffffffffffff16815260200191505060405180910390f35b341561068f57600080fd5b610697611908565b6040518082815260200191505060405180910390f35b34156106b857600080fd5b6106c0611914565b604051808273ffffffffffffffffffffffffffffffffffffffff1673ffffffffffffffffffffffffffffffffffffffff16815260200191505060405180910390f35b341561070d57600080fd5b610715611939565b604051808273ffffffffffffffffffffffffffffffffffffffff1673ffffffffffffffffffffffffffffffffffffffff16815260200191505060405180910390f35b341561076257600080fd5b61076a61195f565b6040518082815260200191505060405180910390f35b341561078b57600080fd5b610793611964565b6040518082815260200191505060405180910390f35b34156107b457600080fd5b6107bc61196a565b604051808260038111156107cc57fe5b60ff16815260200191505060405180910390f35b34156107eb57600080fd5b6107f361197d565b005b341561080057600080fd5b61082c600480803573ffffffffffffffffffffffffffffffffffffffff16906020019091905050611ae3565b005b341561083957600080fd5b610865600480803573ffffffffffffffffffffffffffffffffffffffff16906020019091905050611e98565b60405180806020018760001916600019168152602001868152602001858152602001848152602001831515151581526020018281038252888181546001816001161561010002031660029004815260200191508054600181600116156101000203166002900480156109185780601f106108ed57610100808354040283529160200191610918565b820191906000526020600020905b8154815290600101906020018083116108fb57829003601f168201915b505097505050505050505060405180910390f35b341561093757600080fd5b610984600480803590602001908201803590602001908080602002602001604051908101604052809392919081815260200183836020028082843782019150505050505091905050611ee0565b6040518082815260200191505060405180910390f35b34156109a557600080fd5b6109bb6004808035906020019091905050611f5b565b6040518080602001828103825283818151815260200191508051906020019080838360005b838110156109fb5780820151818401526020810190506109e0565b50505050905090810190601f168015610a285780820380516001836020036101000a031916815260200191505b509250505060405180910390f35b3415610a4157600080fd5b610a57600480803590602001909190505061201d565b6040518080602001828103825283818151815260200191508051906020019080838360005b83811015610a97578082015181840152602081019050610a7c565b50505050905090810190601f168015610ac45780820380516001836020036101000a031916815260200191505b509250505060405180910390f35b3415610add57600080fd5b610af360048080359060200190919050506120d9565b6040518080602001828103825283818151815260200191508051906020019080838360005b83811015610b33578082015181840152602081019050610b18565b50505050905090810190601f168015610b605780820380516001836020036101000a031916815260200191505b509250505060405180910390f35b3415610b7957600080fd5b610b8161219e565b6040518082815260200191505060405180910390f35b3415610ba257600080fd5b610baa6121ab565b604051808273ffffffffffffffffffffffffffffffffffffffff1673ffffffffffffffffffffffffffffffffffffffff16815260200191505060405180910390f35b3415610bf757600080fd5b610bff6121d5565b6040518080602001856fffffffffffffffffffffffffffffffff19166fffffffffffffffffffffffffffffffff1916815260200184600019166000191681526020018361ffff1661ffff168152602001828103825286818154600181600116156101000203166002900481526020019150805460018160011615610100020316600290048015610cd05780601f10610ca557610100808354040283529160200191610cd0565b820191906000526020600020905b815481529060010190602001808311610cb357829003601f168201915b50509550505050505060405180910390f35b610cea61221d565b005b3415610cf757600080fd5b610d4060048080359060200190820180359060200191909192908035906020019082018035906020019190919290803590602001908201803590602001919091929050506123be565b005b3415610d4d57600080fd5b610d55612766565b6040518082815260200191505060405180910390f35b6000600660040180549050905090565b6000600c60008373ffffffffffffffffffffffffffffffffffffffff1673ffffffffffffffffffffffffffffffffffffffff16815260200190815260200160002060009054906101000a900460ff169050919050565b60006001905090565b600080806003811115610de957fe5b600460009054906101000a900460ff166003811115610e0457fe5b141515610e1057600080fd5b6000809054906101000a900473ffffffffffffffffffffffffffffffffffffffff1673ffffffffffffffffffffffffffffffffffffffff163373ffffffffffffffffffffffffffffffffffffffff1614151515610e6c57600080fd5b610e7533610d7b565b151515610e8157600080fd5b60808585905011151515610e9457600080fd5b84846040518083838082843782019150509250505060405180910390209150600d6000836000191660001916815260200190815260200160002060009054906101000a900460ff16151515610ee857600080fd5b600b8054806001018281610efc91906129c3565b916000526020600020906003020160006060604051908101604052803373ffffffffffffffffffffffffffffffffffffffff16815260200189898080601f016020809104026020016040519081016040528093929190818152602001838380828437820191505050505050815260200187815250909190915060008201518160000160006101000a81548173ffffffffffffffffffffffffffffffffffffffff021916908373ffffffffffffffffffffffffffffffffffffffff1602179055506020820151816001019080519060200190610fd89291906129f5565b50604082015181600201555050506001600c60003373ffffffffffffffffffffffffffffffffffffffff1673ffffffffffffffffffffffffffffffffffffffff16815260200190815260200160002060006101000a81548160ff0219169083151502179055506001600d6000846000191660001916815260200190815260200160002060006101000a81548160ff0219169083151502179055505050505050565b600080600e60008473ffffffffffffffffffffffffffffffffffffffff1673ffffffffffffffffffffffffffffffffffffffff16815260200190815260200160002060040154119050919050565b60008060006110d533611079565b15156110e057600080fd5b60028060038111156110ee57fe5b600460009054906101000a900460ff16600381111561110957fe5b14151561111557600080fd5b600e60003373ffffffffffffffffffffffffffffffffffffffff1673ffffffffffffffffffffffffffffffffffffffff16815260200190815260200160002093508360050160009054906101000a900460ff1615151561117457600080fd5b8585604051808383808284378201915050925050506040518091039020925083600101546000191683600019161415156111ad57600080fd5b600660040180548060010182816111c49190612a75565b9160005260206000209001600088889091929091925091906111e7929190612aa1565b505060018460050160006101000a81548160ff0219169083151502179055506112188460030154856002015461276b565b915060008460030181905550600082111561126e573373ffffffffffffffffffffffffffffffffffffffff166108fc839081150290604051600060405180830381858888f19350505050151561126d57600080fd5b5b505050505050565b60008060009054906101000a900473ffffffffffffffffffffffffffffffffffffffff1673ffffffffffffffffffffffffffffffffffffffff163373ffffffffffffffffffffffffffffffffffffffff161415156112d357600080fd5b60018060038111156112e157fe5b600460009054906101000a900460ff1660038111156112fc57fe5b14151561130857600080fd5b6113126001612789565b915061131c6128d3565b600381905550600082111561136c573373ffffffffffffffffffffffffffffffffffffffff166108fc839081150290604051600060405180830381858888f19350505050151561136b57600080fd5b5b5050565b600f8181548110151561137f57fe5b90600052602060002090016000915054906101000a900473ffffffffffffffffffffffffffffffffffffffff1681565b600c6020528060005260406000206000915054906101000a900460ff1681565b6000600580549050905090565b6000806000806000809054906101000a900473ffffffffffffffffffffffffffffffffffffffff1673ffffffffffffffffffffffffffffffffffffffff163373ffffffffffffffffffffffffffffffffffffffff1614151561143d57600080fd5b600080600381111561144b57fe5b600460009054906101000a900460ff16600381111561146657fe5b14151561147257600080fd5b6000600f8054905011151561148657600080fd5b3073ffffffffffffffffffffffffffffffffffffffff1631945060105485101515156114b157600080fd5b6114b96128d3565b935083600381905550600092505b600f8054905083101561156557600e6000600f858154811015156114e757fe5b906000526020600020900160009054906101000a900473ffffffffffffffffffffffffffffffffffffffff1673ffffffffffffffffffffffffffffffffffffffff1673ffffffffffffffffffffffffffffffffffffffff168152602001908152602001600020915083826004018190555082806001019350506114c7565b60a0604051908101604052808a8a8080601f0160208091040260200160405190810160405280939291908181526020018383808284378201915050505050508152602001876fffffffffffffffffffffffffffffffff19168152602001886000191681526020018b61ffff16815260200160006040518059106115e55750595b90808252806020026020018201604052801561161b57816020015b611608612b21565b8152602001906001900390816116005790505b508152506006600082015181600001908051906020019061163d9291906129f5565b5060208201518160010160006101000a8154816fffffffffffffffffffffffffffffffff0219169083700100000000000000000000000000000000900402179055506040820151816002019060001916905560608201518160030160006101000a81548161ffff021916908361ffff16021790555060808201518160040190805190602001906116ce929190612b35565b509050506001600460006101000a81548160ff021916908360038111156116f157fe5b021790555050505050505050505050565b600080600381111561171057fe5b600460009054906101000a900460ff16600381111561172b57fe5b14905090565b60035481565b600b8181548110151561174657fe5b90600052602060002090600302016000915090508060000160009054906101000a900473ffffffffffffffffffffffffffffffffffffffff169080600101908060020154905083565b6000600b80549050905090565b6000806000806000806000806117b06128db565b965060009550600094505b600f8054905085101561188f57600e6000600f878154811015156117db57fe5b906000526020600020900160009054906101000a900473ffffffffffffffffffffffffffffffffffffffff1673ffffffffffffffffffffffffffffffffffffffff1673ffffffffffffffffffffffffffffffffffffffff1681526020019081526020016000209350670de0b6b3a764000061185a856002015489612947565b81151561186357fe5b04925061187484600301548461276b565b9150611880868361276b565b955084806001019550506117bb565b61189b8660105461276b565b95503073ffffffffffffffffffffffffffffffffffffffff1631905085811015156118c957600097506118cf565b80860397505b5050505050505090565b60105481565b60008060009054906101000a900473ffffffffffffffffffffffffffffffffffffffff16905090565b670de0b6b3a764000081565b6000809054906101000a900473ffffffffffffffffffffffffffffffffffffffff1681565b600160009054906101000a900473ffffffffffffffffffffffffffffffffffffffff1681565b603c81565b60025481565b600460009054906101000a900460ff1681565b60008060008061198c33611079565b151561199757600080fd5b61199f6128d3565b9350600e60003373ffffffffffffffffffffffffffffffffffffffff1673ffffffffffffffffffffffffffffffffffffffff1681526020019081526020016000209250838360040181905550600160038111156119f857fe5b600460009054906101000a900460ff166003811115611a1357fe5b1415611a8257611a258460035461297a565b9150600254821115611a81576002600460006101000a81548160ff02191690836003811115611a5057fe5b02179055507eea067c7113f3002f0fc5fa11a22f4b7d7c84b63d99d4871ba53c077afc8da560405160405180910390a15b5b826003015490506000811115611add57600083600301819055503373ffffffffffffffffffffffffffffffffffffffff166108fc829081150290604051600060405180830381858888f193505050501515611adc57600080fd5b5b50505050565b60008060009054906101000a900473ffffffffffffffffffffffffffffffffffffffff1673ffffffffffffffffffffffffffffffffffffffff163373ffffffffffffffffffffffffffffffffffffffff16141515611b4057600080fd5b6001806003811115611b4e57fe5b600460009054906101000a900460ff166003811115611b6957fe5b141515611b7557600080fd5b6000600160009054906101000a900473ffffffffffffffffffffffffffffffffffffffff1673ffffffffffffffffffffffffffffffffffffffff16141515611bbc57600080fd5b3073ffffffffffffffffffffffffffffffffffffffff168373ffffffffffffffffffffffffffffffffffffffff1614151515611bf757600080fd5b829150611c026118df565b73ffffffffffffffffffffffffffffffffffffffff168273ffffffffffffffffffffffffffffffffffffffff1663893d20e86000604051602001526040518163ffffffff167c0100000000000000000000000000000000000000000000000000000000028152600401602060405180830381600087803b1515611c8457600080fd5b6102c65a03f11515611c9557600080fd5b5050506040518051905073ffffffffffffffffffffffffffffffffffffffff16141515611cc157600080fd5b611cc9610dd1565b8273ffffffffffffffffffffffffffffffffffffffff16630d8e6e2c6000604051602001526040518163ffffffff167c0100000000000000000000000000000000000000000000000000000000028152600401602060405180830381600087803b1515611d3557600080fd5b6102c65a03f11515611d4657600080fd5b5050506040518051905010151515611d5d57600080fd5b8173ffffffffffffffffffffffffffffffffffffffff1663760a44406000604051602001526040518163ffffffff167c0100000000000000000000000000000000000000000000000000000000028152600401602060405180830381600087803b1515611dc957600080fd5b6102c65a03f11515611dda57600080fd5b505050604051805190501515611def57600080fd5b82600160006101000a81548173ffffffffffffffffffffffffffffffffffffffff021916908373ffffffffffffffffffffffffffffffffffffffff1602179055507fd517b3f28983d7964c0ca51f29522226735af584b0a113f040f8a8b10686873b83604051808273ffffffffffffffffffffffffffffffffffffffff1673ffffffffffffffffffffffffffffffffffffffff16815260200191505060405180910390a1505050565b600e60205280600052604060002060009150905080600001908060010154908060020154908060030154908060040154908060050160009054906101000a900460ff16905086565b6000806000806000809350600092505b8551831015611f4f578583815181101515611f0757fe5b906020019060200201519150600b82815481101515611f2257fe5b90600052602060002090600302019050611f4084826002015461276b565b93508280600101935050611ef0565b83945050505050919050565b611f63612b95565b600582815481101515611f7257fe5b90600052602060002090018054600181600116156101000203166002900480601f0160208091040260200160405190810160405280929190818152602001828054600181600116156101000203166002900480156120115780601f10611fe657610100808354040283529160200191612011565b820191906000526020600020905b815481529060010190602001808311611ff457829003601f168201915b50505050509050919050565b60058181548110151561202c57fe5b90600052602060002090016000915090508054600181600116156101000203166002900480601f0160208091040260200160405190810160405280929190818152602001828054600181600116156101000203166002900480156120d15780601f106120a6576101008083540402835291602001916120d1565b820191906000526020600020905b8154815290600101906020018083116120b457829003601f168201915b505050505081565b6120e1612b95565b6006600401828154811015156120f357fe5b90600052602060002090018054600181600116156101000203166002900480601f0160208091040260200160405190810160405280929190818152602001828054600181600116156101000203166002900480156121925780601f1061216757610100808354040283529160200191612192565b820191906000526020600020905b81548152906001019060200180831161217557829003601f168201915b50505050509050919050565b6000600f80549050905090565b6000600160009054906101000a900473ffffffffffffffffffffffffffffffffffffffff16905090565b600680600001908060010160009054906101000a900470010000000000000000000000000000000002908060020154908060030160009054906101000a900461ffff16905084565b60008060009054906101000a900473ffffffffffffffffffffffffffffffffffffffff1673ffffffffffffffffffffffffffffffffffffffff163373ffffffffffffffffffffffffffffffffffffffff1614151561227a57600080fd5b6000600181600381111561228a57fe5b600460009054906101000a900460ff1660038111156122a557fe5b14806122d557508060038111156122b857fe5b600460009054906101000a900460ff1660038111156122d357fe5b145b15156122e057600080fd5b60009250600160038111156122f157fe5b600460009054906101000a900460ff16600381111561230c57fe5b141561231f5761231c6000612789565b92505b6003600460006101000a81548160ff0219169083600381111561233e57fe5b02179055507f63b958841f79ab97cb5456da181454b9932c0e15a3b17f1cbd27e2a8bc61043760405160405180910390a160008311156123b9573373ffffffffffffffffffffffffffffffffffffffff166108fc849081150290604051600060405180830381858888f1935050505015156123b857600080fd5b5b505050565b60008060008060008060009054906101000a900473ffffffffffffffffffffffffffffffffffffffff1673ffffffffffffffffffffffffffffffffffffffff163373ffffffffffffffffffffffffffffffffffffffff1614151561242157600080fd5b600080600381111561242f57fe5b600460009054906101000a900460ff16600381111561244a57fe5b14151561245657600080fd5b61245e6128d3565b955060009450600093505b8b8b905084101561270d578b8b85818110151561248257fe5b905060200201359250600b8381548110151561249a57fe5b9060005260206000209060030201915060c060405190810160405280836001018054600181600116156101000203166002900480601f01602080910402602001604051908101604052809291908181526020018280546001816001161561010002031660029004801561254e5780601f106125235761010080835404028352916020019161254e565b820191906000526020600020905b81548152906001019060200180831161253157829003601f168201915b505050505081526020018b8b87818110151561256657fe5b9050602002013560001916600019168152602001836002015481526020016000815260200187815260200160001515815250600e60008460000160009054906101000a900473ffffffffffffffffffffffffffffffffffffffff1673ffffffffffffffffffffffffffffffffffffffff1673ffffffffffffffffffffffffffffffffffffffff16815260200190815260200160002060008201518160000190805190602001906126179291906129f5565b506020820151816001019060001916905560408201518160020155606082015181600301556080820151816004015560a08201518160050160006101000a81548160ff021916908315150217905550905050600f805480600101828161267d9190612ba9565b916000526020600020900160008460000160009054906101000a900473ffffffffffffffffffffffffffffffffffffffff16909190916101000a81548173ffffffffffffffffffffffffffffffffffffffff021916908373ffffffffffffffffffffffffffffffffffffffff160217905550506126fe85836002015461276b565b94508380600101945050612469565b6127196010548661276b565b601081905550600580548060010182816127339190612a75565b916000526020600020900160008a8a909192909192509190612756929190612aa1565b5050505050505050505050505050565b600181565b600080828401905083811015151561277f57fe5b8091505092915050565b600080600080600080600061279c6128db565b955060009450600093505b600f8054905084101561288557600e6000600f868154811015156127c757fe5b906000526020600020900160009054906101000a900473ffffffffffffffffffffffffffffffffffffffff1673ffffffffffffffffffffffffffffffffffffffff1673ffffffffffffffffffffffffffffffffffffffff1681526020019081526020016000209250670de0b6b3a7640000612846846002015488612947565b81151561284f57fe5b04915061286083600301548361276b565b836003018190555061287685846003015461276b565b945083806001019450506127a7565b871561289a576128978560105461276b565b94505b3073ffffffffffffffffffffffffffffffffffffffff163190508481101515156128c357600080fd5b8481039650505050505050919050565b600042905090565b6000806128f16128e96128d3565b60035461297a565b9050600254811115151561290457600080fd5b61291081610258612993565b90506002548111156129225760025490505b600254612937670de0b6b3a764000083612947565b81151561294057fe5b0491505090565b60008082840290506000841480612968575082848281151561296557fe5b04145b151561297057fe5b8091505092915050565b600082821115151561298857fe5b818303905092915050565b6000808314156129a657600090506129bd565b8182600185038115156129b557fe5b046001010290505b92915050565b8154818355818115116129f0576003028160030283600052602060002091820191016129ef9190612bd5565b5b505050565b828054600181600116156101000203166002900490600052602060002090601f016020900481019282601f10612a3657805160ff1916838001178555612a64565b82800160010185558215612a64579182015b82811115612a63578251825591602001919060010190612a48565b5b509050612a719190612c33565b5090565b815481835581811511612a9c57818360005260206000209182019101612a9b9190612c58565b5b505050565b828054600181600116156101000203166002900490600052602060002090601f016020900481019282601f10612ae257803560ff1916838001178555612b10565b82800160010185558215612b10579182015b82811115612b0f578235825591602001919060010190612af4565b5b509050612b1d9190612c33565b5090565b602060405190810160405280600081525090565b828054828255906000526020600020908101928215612b84579160200282015b82811115612b83578251829080519060200190612b739291906129f5565b5091602001919060010190612b55565b5b509050612b919190612c58565b5090565b602060405190810160405280600081525090565b815481835581811511612bd057818360005260206000209182019101612bcf9190612c33565b5b505050565b612c3091905b80821115612c2c57600080820160006101000a81549073ffffffffffffffffffffffffffffffffffffffff0219169055600182016000612c1b9190612c84565b600282016000905550600301612bdb565b5090565b90565b612c5591905b80821115612c51576000816000905550600101612c39565b5090565b90565b612c8191905b80821115612c7d5760008181612c749190612c84565b50600101612c5e565b5090565b90565b50805460018160011615610100020316600290046000825580601f10612caa5750612cc9565b601f016020900490600052602060002090810190612cc89190612c33565b5b505600a165627a7a723058207144a4ebd5aaeee302453cb0b920e6087adcee38d5daddae09cb88c3fad1284d0029",
  "source": "pragma solidity 0.4.18;\n\nimport \"./SafeMath.sol\";\nimport \"./CryptoLegacyBaseAPI.sol\";\n\ncontract CryptoLegacy is CryptoLegacyBaseAPI {\n\n  // Version of the contract API.\n  uint public constant VERSION = 1;\n\n  event KeysNeeded();\n  event ContinuationContractAnnounced(address continuationContractAddress);\n  event Cancelled();\n\n  enum States {\n    CallForKeepers,\n    Active,\n    CallForKeys,\n    Cancelled\n  }\n\n  modifier atState(States _state) {\n    require(state == _state);\n    _;\n  }\n\n  modifier atEitherOfStates(States state1, States state2) {\n    require(state == state1 || state == state2);\n    _;\n  }\n\n  modifier ownerOnly() {\n    require(msg.sender == owner);\n    _;\n  }\n\n  modifier activeKeepersOnly() {\n    require(isActiveKeeper(msg.sender));\n    _;\n  }\n\n  struct KeeperProposal {\n    address keeperAddress;\n    bytes publicKey; // 64-byte\n    uint keepingFee;\n  }\n\n  struct ActiveKeeper {\n    bytes publicKey; // 64-byte\n    bytes32 keyPartHash; // sha-3 hash\n    uint keepingFee;\n    uint balance;\n    uint lastCheckInAt;\n    bool keyPartSupplied;\n  }\n\n  struct EncryptedData {\n    bytes encryptedData;\n    bytes16 aesCounter;\n    bytes32 dataHash; // sha-3 hash\n    uint16 shareLength;\n    bytes[] suppliedKeyParts;\n  }\n\n  address public owner = msg.sender;\n\n  // When owner wants to elect new Keepers, she cancels the contract and starts a new one.\n  // This variable contains the address of the new continuation contract.\n  address public continuationContractAddress = 0;\n\n  uint public checkInInterval;\n  uint public lastOwnerCheckInAt;\n\n  States public state = States.CallForKeepers;\n\n  bytes[] public encryptedKeyPartsChunks;\n  EncryptedData public encryptedData;\n\n  KeeperProposal[] public keeperProposals;\n  mapping(address => bool) public proposedKeeperFlags;\n  mapping(bytes32 => bool) private proposedPublicKeyHashes;\n\n  mapping(address => ActiveKeeper) public activeKeepers;\n  address[] public activeKeepersAddresses;\n\n  // Sum of keeping fees of all active Keepers.\n  uint public totalKeepingFee;\n\n  // We need this because current version of Solidity doesn't support non-integer numbers.\n  // We set it to be equal to number of wei in eth to make sure we transfer keeping fee with\n  // enough precision.\n  uint public constant KEEPING_FEE_ROUNDING_MULT = 1 ether;\n\n  // Don't allow owner to specify check-in interval less than this when creating a new contract.\n  uint public constant MINIMUM_CHECK_IN_INTERVAL = 1 minutes;\n\n\n  // Called by the person who possesses the data they wish to transfer.\n  // This person becomes the owner of the contract.\n  //\n  function CryptoLegacy(uint _checkInInterval) public {\n    require(_checkInInterval >= MINIMUM_CHECK_IN_INTERVAL);\n    checkInInterval = _checkInInterval;\n  }\n\n\n  function getVersion() public view returns (uint) {\n    return VERSION;\n  }\n\n\n  function getOwner() public view returns (address) {\n    return owner;\n  }\n\n\n  function getContinuationContractAddress() public view returns (address) {\n    return continuationContractAddress;\n  }\n\n\n  function isAcceptingKeeperProposals() public view returns (bool) {\n    return state == States.CallForKeepers;\n  }\n\n\n  function getNumProposals() external view returns (uint) {\n    return keeperProposals.length;\n  }\n\n\n  function getNumKeepers() external view returns (uint) {\n    return activeKeepersAddresses.length;\n  }\n\n\n  function getNumEncryptedKeyPartsChunks() external view returns (uint) {\n    return encryptedKeyPartsChunks.length;\n  }\n\n\n  function getEncryptedKeyPartsChunk(uint index) external view returns (bytes) {\n    return encryptedKeyPartsChunks[index];\n  }\n\n\n  function getNumSuppliedKeyParts() external view returns (uint) {\n    return encryptedData.suppliedKeyParts.length;\n  }\n\n\n  function getSuppliedKeyPart(uint index) external view returns (bytes) {\n    return encryptedData.suppliedKeyParts[index];\n  }\n\n  function isActiveKeeper(address addr) public view returns (bool) {\n    return activeKeepers[addr].lastCheckInAt > 0;\n  }\n\n  function didSendProposal(address addr) public view returns (bool) {\n    return proposedKeeperFlags[addr];\n  }\n\n\n  // Called by a Keeper to submit their proposal.\n  //\n  function submitKeeperProposal(bytes publicKey, uint keepingFee) external\n    atState(States.CallForKeepers)\n  {\n    require(msg.sender != owner);\n    require(!didSendProposal(msg.sender));\n    require(publicKey.length <= 128);\n\n    bytes32 publicKeyHash = keccak256(publicKey);\n    require(!proposedPublicKeyHashes[publicKeyHash]);\n\n    keeperProposals.push(KeeperProposal({\n      keeperAddress: msg.sender,\n      publicKey: publicKey,\n      keepingFee: keepingFee\n    }));\n\n    proposedKeeperFlags[msg.sender] = true;\n    proposedPublicKeyHashes[publicKeyHash] = true;\n  }\n\n  // Calculates how much would it cost the owner to activate contract with given Keepers.\n  //\n  function calculateActivationPrice(uint[] selectedProposalIndices) public view returns (uint) {\n    uint _totalKeepingFee = 0;\n\n    for (uint i = 0; i < selectedProposalIndices.length; i++) {\n      uint proposalIndex = selectedProposalIndices[i];\n      KeeperProposal storage proposal = keeperProposals[proposalIndex];\n      _totalKeepingFee = SafeMath.add(_totalKeepingFee, proposal.keepingFee);\n    }\n\n    return _totalKeepingFee;\n  }\n\n  // Called by owner to accept selected Keeper proposals.\n  // May be called multiple times.\n  //\n  function acceptKeepers(\n    uint[] selectedProposalIndices,\n    bytes32[] keyPartHashes,\n    bytes encryptedKeyParts\n  ) external\n    ownerOnly()\n    atState(States.CallForKeepers)\n  {\n    uint timestamp = getBlockTimestamp();\n    uint chunkKeepingFee = 0;\n\n    for (uint i = 0; i < selectedProposalIndices.length; i++) {\n      uint proposalIndex = selectedProposalIndices[i];\n      KeeperProposal storage proposal = keeperProposals[proposalIndex];\n\n      activeKeepers[proposal.keeperAddress] = ActiveKeeper({\n        publicKey: proposal.publicKey,\n        keyPartHash: keyPartHashes[i],\n        keepingFee: proposal.keepingFee,\n        lastCheckInAt: timestamp,\n        balance: 0,\n        keyPartSupplied: false\n      });\n\n      activeKeepersAddresses.push(proposal.keeperAddress);\n      chunkKeepingFee = SafeMath.add(chunkKeepingFee, proposal.keepingFee);\n    }\n\n    totalKeepingFee = SafeMath.add(totalKeepingFee, chunkKeepingFee);\n    encryptedKeyPartsChunks.push(encryptedKeyParts);\n  }\n\n  // Called by owner to activate the contract and distribute keys between Keepers\n  // accepted previously using `acceptKeepers` function.\n  //\n  function activate(\n    uint16 shareLength,\n    bytes _encryptedData,\n    bytes32 dataHash,\n    bytes16 aesCounter\n  ) payable external\n    ownerOnly()\n    atState(States.CallForKeepers)\n  {\n    require(activeKeepersAddresses.length > 0);\n\n    uint balance = this.balance;\n    require(balance >= totalKeepingFee);\n\n    uint timestamp = getBlockTimestamp();\n    lastOwnerCheckInAt = timestamp;\n\n    for (uint i = 0; i < activeKeepersAddresses.length; i++) {\n      ActiveKeeper storage keeper = activeKeepers[activeKeepersAddresses[i]];\n      keeper.lastCheckInAt = timestamp;\n    }\n\n    encryptedData = EncryptedData({\n      encryptedData: _encryptedData,\n      aesCounter: aesCounter,\n      dataHash: dataHash,\n      shareLength: shareLength,\n      suppliedKeyParts: new bytes[](0)\n    });\n\n    state = States.Active;\n  }\n\n\n  // Updates owner check-in time and credits all active Keepers with keeping fee.\n  //\n  function ownerCheckIn() payable external\n    ownerOnly()\n    atState(States.Active)\n  {\n    uint excessBalance = creditKeepers({prepayOneKeepingPeriodUpfront: true});\n\n    lastOwnerCheckInAt = getBlockTimestamp();\n\n    if (excessBalance > 0) {\n      msg.sender.transfer(excessBalance);\n    }\n  }\n\n\n  // Calculates approximate price of a check-in, given that it will be performed right now.\n  // Actual price may differ because\n  //\n  function calculateApproximateCheckInPrice() public view returns (uint) {\n    uint keepingFeeMult = calculateKeepingFeeMult();\n    uint requiredBalance = 0;\n\n    for (uint i = 0; i < activeKeepersAddresses.length; i++) {\n      ActiveKeeper storage keeper = activeKeepers[activeKeepersAddresses[i]];\n      uint balanceToAdd = SafeMath.mul(keeper.keepingFee, keepingFeeMult) / KEEPING_FEE_ROUNDING_MULT;\n      uint newKeeperBalance = SafeMath.add(keeper.balance, balanceToAdd);\n      requiredBalance = SafeMath.add(requiredBalance, newKeeperBalance);\n    }\n\n    requiredBalance = SafeMath.add(requiredBalance, totalKeepingFee);\n    uint balance = this.balance;\n\n    if (balance >= requiredBalance) {\n      return 0;\n    } else {\n      return requiredBalance - balance;\n    }\n  }\n\n\n  // Returns: excess balance that can be transferred back to owner.\n  //\n  function creditKeepers(bool prepayOneKeepingPeriodUpfront) internal returns (uint) {\n    uint keepingFeeMult = calculateKeepingFeeMult();\n    uint requiredBalance = 0;\n\n    for (uint i = 0; i < activeKeepersAddresses.length; i++) {\n      ActiveKeeper storage keeper = activeKeepers[activeKeepersAddresses[i]];\n      uint balanceToAdd = SafeMath.mul(keeper.keepingFee, keepingFeeMult) / KEEPING_FEE_ROUNDING_MULT;\n      keeper.balance = SafeMath.add(keeper.balance, balanceToAdd);\n      requiredBalance = SafeMath.add(requiredBalance, keeper.balance);\n    }\n\n    if (prepayOneKeepingPeriodUpfront) {\n      requiredBalance = SafeMath.add(requiredBalance, totalKeepingFee);\n    }\n\n    uint balance = this.balance;\n\n    require(balance >= requiredBalance);\n    return balance - requiredBalance;\n  }\n\n\n  function calculateKeepingFeeMult() internal view returns (uint) {\n    uint timeSinceLastOwnerCheckIn = SafeMath.sub(getBlockTimestamp(), lastOwnerCheckInAt);\n    require(timeSinceLastOwnerCheckIn <= checkInInterval);\n\n    timeSinceLastOwnerCheckIn = ceil(timeSinceLastOwnerCheckIn, 600); // ceil to 10 minutes\n    if (timeSinceLastOwnerCheckIn > checkInInterval) {\n      timeSinceLastOwnerCheckIn = checkInInterval;\n    }\n\n    return SafeMath.mul(KEEPING_FEE_ROUNDING_MULT, timeSinceLastOwnerCheckIn) / checkInInterval;\n  }\n\n\n  // Pays the Keeper their balance and updates their check-in time. Verifies that the owner\n  // checked in in time and, if not, transfers the contract into CALL_FOR_KEYS state.\n  //\n  // A Keeper can call this method to get his reward regardless of the contract state.\n  //\n  function keeperCheckIn() external\n    activeKeepersOnly()\n  {\n    uint timestamp = getBlockTimestamp();\n\n    ActiveKeeper storage keeper = activeKeepers[msg.sender];\n    keeper.lastCheckInAt = timestamp;\n\n    if (state == States.Active) {\n      uint timeSinceLastOwnerCheckIn = SafeMath.sub(timestamp, lastOwnerCheckInAt);\n      if (timeSinceLastOwnerCheckIn > checkInInterval) {\n        state = States.CallForKeys;\n        KeysNeeded();\n      }\n    }\n\n    uint keeperBalance = keeper.balance;\n    if (keeperBalance > 0) {\n      keeper.balance = 0;\n      msg.sender.transfer(keeperBalance);\n    }\n  }\n\n\n  // Called by Keepers to supply their decrypted key parts.\n  //\n  function supplyKey(bytes keyPart) external\n    activeKeepersOnly()\n    atState(States.CallForKeys)\n  {\n    ActiveKeeper storage keeper = activeKeepers[msg.sender];\n    require(!keeper.keyPartSupplied);\n\n    bytes32 suppliedKeyPartHash = keccak256(keyPart);\n    require(suppliedKeyPartHash == keeper.keyPartHash);\n\n    encryptedData.suppliedKeyParts.push(keyPart);\n    keeper.keyPartSupplied = true;\n\n    // Include one-period keeping fee that was held by contract in advance.\n    uint toBeTransferred = SafeMath.add(keeper.balance, keeper.keepingFee);\n    keeper.balance = 0;\n\n    if (toBeTransferred > 0) {\n      msg.sender.transfer(toBeTransferred);\n    }\n  }\n\n\n  // Allows owner to announce continuation contract to all active Keepers.\n  //\n  // Continuation contract is used to elect new set of Keepers, e.g. to replace inactive ones.\n  // When the continuation contract gets sufficient number of keeping proposals, owner will\n  // cancel this contract and start the continuation one.\n  //\n  function announceContinuationContract(address _continuationContractAddress) external\n    ownerOnly()\n    atState(States.Active)\n  {\n    require(continuationContractAddress == 0);\n    require(_continuationContractAddress != address(this));\n\n    CryptoLegacyBaseAPI continuationContract = CryptoLegacyBaseAPI(_continuationContractAddress);\n\n    require(continuationContract.getOwner() == getOwner());\n    require(continuationContract.getVersion() >= getVersion());\n    require(continuationContract.isAcceptingKeeperProposals());\n\n    continuationContractAddress = _continuationContractAddress;\n    ContinuationContractAnnounced(_continuationContractAddress);\n  }\n\n\n  // Cancels the contract and notifies the Keepers. Credits all active Keepers with keeping fee,\n  // as if this was a check-in.\n  //\n  function cancel() payable external\n    ownerOnly()\n    atEitherOfStates(States.CallForKeepers, States.Active)\n  {\n    uint excessBalance = 0;\n\n    if (state == States.Active) {\n      // We don't require paying one keeping period upfront as the contract is being cancelled;\n      // we just require paying till the present moment.\n      excessBalance = creditKeepers({prepayOneKeepingPeriodUpfront: false});\n    }\n\n    state = States.Cancelled;\n    Cancelled();\n\n    if (excessBalance > 0) {\n      msg.sender.transfer(excessBalance);\n    }\n  }\n\n\n  // We can rely on the value of now (block.timestamp) for our purposes, as the consensus\n  // rule is that a block's timestamp must be 1) more than the parent's block timestamp;\n  // and 2) less than the current wall clock time. See:\n  // https://github.com/ethereum/go-ethereum/blob/885c13c/consensus/ethash/consensus.go#L223\n  //\n  function getBlockTimestamp() internal view returns (uint) {\n    return now;\n  }\n\n\n  // See: https://stackoverflow.com/a/2745086/804678\n  //\n  function ceil(uint x, uint y) internal pure returns (uint) {\n    if (x == 0) return 0;\n    return (1 + ((x - 1) / y)) * y;\n  }\n\n}\n",
  "sourcePath": "/Users/sam/dev/projects/crypto-legacy/crypto-legacy/truffle/contracts/CryptoLegacy.sol",
  "compiler": {
    "name": "solc",
    "version": "0.4.18+commit.9cf6e910.Emscripten.clang"
  },
  "schemaVersion": "1.0.1",
  "updatedAt": "2018-03-04T13:18:37.517Z"
}