{
  "contractName": "CryptoLegacy",
  "abi": [
    {
      "constant": true,
      "inputs": [],
      "name": "getNumSuppliedKeyParts",
      "outputs": [
        {
          "name": "",
          "type": "uint256"
        }
      ],
      "payable": false,
      "stateMutability": "view",
      "type": "function"
    },
    {
      "constant": true,
      "inputs": [
        {
          "name": "addr",
          "type": "address"
        }
      ],
      "name": "didSendProposal",
      "outputs": [
        {
          "name": "",
          "type": "bool"
        }
      ],
      "payable": false,
      "stateMutability": "view",
      "type": "function"
    },
    {
      "constant": true,
      "inputs": [],
      "name": "getVersion",
      "outputs": [
        {
          "name": "",
          "type": "uint256"
        }
      ],
      "payable": false,
      "stateMutability": "view",
      "type": "function"
    },
    {
      "constant": false,
      "inputs": [
        {
          "name": "publicKey",
          "type": "bytes"
        },
        {
          "name": "keepingFee",
          "type": "uint256"
        }
      ],
      "name": "submitKeeperProposal",
      "outputs": [],
      "payable": false,
      "stateMutability": "nonpayable",
      "type": "function"
    },
    {
      "constant": true,
      "inputs": [
        {
          "name": "addr",
          "type": "address"
        }
      ],
      "name": "isActiveKeeper",
      "outputs": [
        {
          "name": "",
          "type": "bool"
        }
      ],
      "payable": false,
      "stateMutability": "view",
      "type": "function"
    },
    {
      "constant": false,
      "inputs": [
        {
          "name": "keyPart",
          "type": "bytes"
        }
      ],
      "name": "supplyKey",
      "outputs": [],
      "payable": false,
      "stateMutability": "nonpayable",
      "type": "function"
    },
    {
      "constant": false,
      "inputs": [],
      "name": "ownerCheckIn",
      "outputs": [],
      "payable": true,
      "stateMutability": "payable",
      "type": "function"
    },
    {
      "constant": true,
      "inputs": [
        {
          "name": "",
          "type": "uint256"
        }
      ],
      "name": "activeKeepersAddresses",
      "outputs": [
        {
          "name": "",
          "type": "address"
        }
      ],
      "payable": false,
      "stateMutability": "view",
      "type": "function"
    },
    {
      "constant": true,
      "inputs": [
        {
          "name": "",
          "type": "address"
        }
      ],
      "name": "proposedKeeperFlags",
      "outputs": [
        {
          "name": "",
          "type": "bool"
        }
      ],
      "payable": false,
      "stateMutability": "view",
      "type": "function"
    },
    {
      "constant": false,
      "inputs": [
        {
          "name": "selectedProposalIndices",
          "type": "uint256[]"
        },
        {
          "name": "keyPartHashes",
          "type": "bytes32[]"
        },
        {
          "name": "encryptedKeyParts",
          "type": "bytes"
        },
        {
          "name": "_encryptedData",
          "type": "bytes"
        },
        {
          "name": "dataHash",
          "type": "bytes32"
        },
        {
          "name": "aesCounter",
          "type": "bytes16"
        }
      ],
      "name": "acceptKeepers",
      "outputs": [],
      "payable": true,
      "stateMutability": "payable",
      "type": "function"
    },
    {
      "constant": true,
      "inputs": [],
      "name": "isAcceptingKeeperProposals",
      "outputs": [
        {
          "name": "",
          "type": "bool"
        }
      ],
      "payable": false,
      "stateMutability": "view",
      "type": "function"
    },
    {
      "constant": true,
      "inputs": [],
      "name": "lastOwnerCheckInAt",
      "outputs": [
        {
          "name": "",
          "type": "uint256"
        }
      ],
      "payable": false,
      "stateMutability": "view",
      "type": "function"
    },
    {
      "constant": true,
      "inputs": [
        {
          "name": "",
          "type": "uint256"
        }
      ],
      "name": "keeperProposals",
      "outputs": [
        {
          "name": "keeperAddress",
          "type": "address"
        },
        {
          "name": "publicKey",
          "type": "bytes"
        },
        {
          "name": "keepingFee",
          "type": "uint256"
        }
      ],
      "payable": false,
      "stateMutability": "view",
      "type": "function"
    },
    {
      "constant": true,
      "inputs": [],
      "name": "getNumProposals",
      "outputs": [
        {
          "name": "",
          "type": "uint256"
        }
      ],
      "payable": false,
      "stateMutability": "view",
      "type": "function"
    },
    {
      "constant": true,
      "inputs": [],
      "name": "calculateApproximateCheckInPrice",
      "outputs": [
        {
          "name": "",
          "type": "uint256"
        }
      ],
      "payable": false,
      "stateMutability": "view",
      "type": "function"
    },
    {
      "constant": true,
      "inputs": [],
      "name": "totalKeepingFee",
      "outputs": [
        {
          "name": "",
          "type": "uint256"
        }
      ],
      "payable": false,
      "stateMutability": "view",
      "type": "function"
    },
    {
      "constant": true,
      "inputs": [],
      "name": "getOwner",
      "outputs": [
        {
          "name": "",
          "type": "address"
        }
      ],
      "payable": false,
      "stateMutability": "view",
      "type": "function"
    },
    {
      "constant": true,
      "inputs": [],
      "name": "KEEPING_FEE_ROUNDING_MULT",
      "outputs": [
        {
          "name": "",
          "type": "uint256"
        }
      ],
      "payable": false,
      "stateMutability": "view",
      "type": "function"
    },
    {
      "constant": true,
      "inputs": [],
      "name": "owner",
      "outputs": [
        {
          "name": "",
          "type": "address"
        }
      ],
      "payable": false,
      "stateMutability": "view",
      "type": "function"
    },
    {
      "constant": true,
      "inputs": [],
      "name": "continuationContractAddress",
      "outputs": [
        {
          "name": "",
          "type": "address"
        }
      ],
      "payable": false,
      "stateMutability": "view",
      "type": "function"
    },
    {
      "constant": true,
      "inputs": [],
      "name": "MINIMUM_CHECK_IN_INTERVAL",
      "outputs": [
        {
          "name": "",
          "type": "uint256"
        }
      ],
      "payable": false,
      "stateMutability": "view",
      "type": "function"
    },
    {
      "constant": true,
      "inputs": [],
      "name": "checkInInterval",
      "outputs": [
        {
          "name": "",
          "type": "uint256"
        }
      ],
      "payable": false,
      "stateMutability": "view",
      "type": "function"
    },
    {
      "constant": true,
      "inputs": [],
      "name": "state",
      "outputs": [
        {
          "name": "",
          "type": "uint8"
        }
      ],
      "payable": false,
      "stateMutability": "view",
      "type": "function"
    },
    {
      "constant": false,
      "inputs": [],
      "name": "keeperCheckIn",
      "outputs": [],
      "payable": false,
      "stateMutability": "nonpayable",
      "type": "function"
    },
    {
      "constant": false,
      "inputs": [
        {
          "name": "_continuationContractAddress",
          "type": "address"
        }
      ],
      "name": "announceContinuationContract",
      "outputs": [],
      "payable": false,
      "stateMutability": "nonpayable",
      "type": "function"
    },
    {
      "constant": true,
      "inputs": [
        {
          "name": "",
          "type": "address"
        }
      ],
      "name": "activeKeepers",
      "outputs": [
        {
          "name": "publicKey",
          "type": "bytes"
        },
        {
          "name": "keyPartHash",
          "type": "bytes32"
        },
        {
          "name": "keepingFee",
          "type": "uint256"
        },
        {
          "name": "balance",
          "type": "uint256"
        },
        {
          "name": "lastCheckInAt",
          "type": "uint256"
        },
        {
          "name": "keyPartSupplied",
          "type": "bool"
        }
      ],
      "payable": false,
      "stateMutability": "view",
      "type": "function"
    },
    {
      "constant": true,
      "inputs": [
        {
          "name": "selectedProposalIndices",
          "type": "uint256[]"
        }
      ],
      "name": "calculateActivationPrice",
      "outputs": [
        {
          "name": "",
          "type": "uint256"
        }
      ],
      "payable": false,
      "stateMutability": "view",
      "type": "function"
    },
    {
      "constant": true,
      "inputs": [
        {
          "name": "index",
          "type": "uint256"
        }
      ],
      "name": "getSuppliedKeyPart",
      "outputs": [
        {
          "name": "",
          "type": "bytes"
        }
      ],
      "payable": false,
      "stateMutability": "view",
      "type": "function"
    },
    {
      "constant": true,
      "inputs": [],
      "name": "getNumKeepers",
      "outputs": [
        {
          "name": "",
          "type": "uint256"
        }
      ],
      "payable": false,
      "stateMutability": "view",
      "type": "function"
    },
    {
      "constant": true,
      "inputs": [],
      "name": "encryptedData",
      "outputs": [
        {
          "name": "encryptedData",
          "type": "bytes"
        },
        {
          "name": "aesCounter",
          "type": "bytes16"
        },
        {
          "name": "dataHash",
          "type": "bytes32"
        },
        {
          "name": "encryptedKeyParts",
          "type": "bytes"
        }
      ],
      "payable": false,
      "stateMutability": "view",
      "type": "function"
    },
    {
      "constant": false,
      "inputs": [],
      "name": "cancel",
      "outputs": [],
      "payable": true,
      "stateMutability": "payable",
      "type": "function"
    },
    {
      "constant": true,
      "inputs": [],
      "name": "VERSION",
      "outputs": [
        {
          "name": "",
          "type": "uint256"
        }
      ],
      "payable": false,
      "stateMutability": "view",
      "type": "function"
    },
    {
      "inputs": [
        {
          "name": "_checkInInterval",
          "type": "uint256"
        }
      ],
      "payable": false,
      "stateMutability": "nonpayable",
      "type": "constructor"
    },
    {
      "anonymous": false,
      "inputs": [],
      "name": "KeysNeeded",
      "type": "event"
    },
    {
      "anonymous": false,
      "inputs": [
        {
          "indexed": false,
          "name": "continuationContractAddress",
          "type": "address"
        }
      ],
      "name": "ContinuationContractAnnounced",
      "type": "event"
    },
    {
      "anonymous": false,
      "inputs": [],
      "name": "Cancelled",
      "type": "event"
    }
  ],
  "bytecode": "0x6060604052336000806101000a81548173ffffffffffffffffffffffffffffffffffffffff021916908373ffffffffffffffffffffffffffffffffffffffff1602179055506000600160006101000a81548173ffffffffffffffffffffffffffffffffffffffff021916908373ffffffffffffffffffffffffffffffffffffffff1602179055506000600460006101000a81548160ff021916908360038111156100a557fe5b021790555034156100b557600080fd5b60405160208061295783398101604052808051906020019091905050603c81101515156100e157600080fd5b806002819055505061285f806100f86000396000f300606060405260043610610196576000357c0100000000000000000000000000000000000000000000000000000000900463ffffffff16806304ed3e4e1461019b578063071f8601146101c45780630d8e6e2c1461021557806317995d7b1461023e5780632224768d14610275578063259c3aed146102c657806339dd4f6d146102f45780633afd601a146102fe5780633f135f86146103615780634379ee69146103b2578063760a44401461043a57806376eca21e14610467578063781970e614610490578063798974dd146105835780637a54c192146105ac57806387a083ca146105d5578063893d20e8146105fe5780638d594651146106535780638da5cb5b1461067c578063a3521f13146106d1578063ba4ff49814610726578063bfd25fa51461074f578063c19d93fb14610778578063c53c9bb6146107af578063cc1b3b9c146107c4578063cdd35b2d146107fd578063ce35d246146108fb578063d830d1e514610969578063d97cdcbc14610a05578063e9fc715a14610a2e578063ea8a1af014610b9e578063ffa1ad7414610ba8575b600080fd5b34156101a657600080fd5b6101ae610bd1565b6040518082815260200191505060405180910390f35b34156101cf57600080fd5b6101fb600480803573ffffffffffffffffffffffffffffffffffffffff16906020019091905050610be1565b604051808215151515815260200191505060405180910390f35b341561022057600080fd5b610228610c37565b6040518082815260200191505060405180910390f35b341561024957600080fd5b61027360048080359060200190820180359060200191909192908035906020019091905050610c40565b005b341561028057600080fd5b6102ac600480803573ffffffffffffffffffffffffffffffffffffffff16906020019091905050610edf565b604051808215151515815260200191505060405180910390f35b34156102d157600080fd5b6102f260048080359060200190820180359060200191909192905050610f2d565b005b6102fc6110dc565b005b341561030957600080fd5b61031f60048080359060200190919050506111d6565b604051808273ffffffffffffffffffffffffffffffffffffffff1673ffffffffffffffffffffffffffffffffffffffff16815260200191505060405180910390f35b341561036c57600080fd5b610398600480803573ffffffffffffffffffffffffffffffffffffffff16906020019091905050611215565b604051808215151515815260200191505060405180910390f35b61043860048080359060200190820180359060200191909192908035906020019082018035906020019190919290803590602001908201803590602001919091929080359060200190820180359060200191909192908035600019169060200190919080356fffffffffffffffffffffffffffffffff1916906020019091905050611235565b005b341561044557600080fd5b61044d611535565b604051808215151515815260200191505060405180910390f35b341561047257600080fd5b61047a611564565b6040518082815260200191505060405180910390f35b341561049b57600080fd5b6104b1600480803590602001909190505061156a565b604051808473ffffffffffffffffffffffffffffffffffffffff1673ffffffffffffffffffffffffffffffffffffffff168152602001806020018381526020018281038252848181546001816001161561010002031660029004815260200191508054600181600116156101000203166002900480156105725780601f1061054757610100808354040283529160200191610572565b820191906000526020600020905b81548152906001019060200180831161055557829003601f168201915b505094505050505060405180910390f35b341561058e57600080fd5b6105966115c2565b6040518082815260200191505060405180910390f35b34156105b757600080fd5b6105bf6115cf565b6040518082815260200191505060405180910390f35b34156105e057600080fd5b6105e861170c565b6040518082815260200191505060405180910390f35b341561060957600080fd5b610611611712565b604051808273ffffffffffffffffffffffffffffffffffffffff1673ffffffffffffffffffffffffffffffffffffffff16815260200191505060405180910390f35b341561065e57600080fd5b61066661173b565b6040518082815260200191505060405180910390f35b341561068757600080fd5b61068f611747565b604051808273ffffffffffffffffffffffffffffffffffffffff1673ffffffffffffffffffffffffffffffffffffffff16815260200191505060405180910390f35b34156106dc57600080fd5b6106e461176c565b604051808273ffffffffffffffffffffffffffffffffffffffff1673ffffffffffffffffffffffffffffffffffffffff16815260200191505060405180910390f35b341561073157600080fd5b610739611792565b6040518082815260200191505060405180910390f35b341561075a57600080fd5b610762611797565b6040518082815260200191505060405180910390f35b341561078357600080fd5b61078b61179d565b6040518082600381111561079b57fe5b60ff16815260200191505060405180910390f35b34156107ba57600080fd5b6107c26117b0565b005b34156107cf57600080fd5b6107fb600480803573ffffffffffffffffffffffffffffffffffffffff16906020019091905050611916565b005b341561080857600080fd5b610834600480803573ffffffffffffffffffffffffffffffffffffffff16906020019091905050611c90565b60405180806020018760001916600019168152602001868152602001858152602001848152602001831515151581526020018281038252888181546001816001161561010002031660029004815260200191508054600181600116156101000203166002900480156108e75780601f106108bc576101008083540402835291602001916108e7565b820191906000526020600020905b8154815290600101906020018083116108ca57829003601f168201915b505097505050505050505060405180910390f35b341561090657600080fd5b610953600480803590602001908201803590602001908080602002602001604051908101604052809392919081815260200183836020028082843782019150505050505091905050611cd8565b6040518082815260200191505060405180910390f35b341561097457600080fd5b61098a6004808035906020019091905050611d53565b6040518080602001828103825283818151815260200191508051906020019080838360005b838110156109ca5780820151818401526020810190506109af565b50505050905090810190601f1680156109f75780820380516001836020036101000a031916815260200191505b509250505060405180910390f35b3415610a1057600080fd5b610a18611e18565b6040518082815260200191505060405180910390f35b3415610a3957600080fd5b610a41611e25565b6040518080602001856fffffffffffffffffffffffffffffffff19166fffffffffffffffffffffffffffffffff19168152602001846000191660001916815260200180602001838103835287818154600181600116156101000203166002900481526020019150805460018160011615610100020316600290048015610b085780601f10610add57610100808354040283529160200191610b08565b820191906000526020600020905b815481529060010190602001808311610aeb57829003601f168201915b5050838103825284818154600181600116156101000203166002900481526020019150805460018160011615610100020316600290048015610b8b5780601f10610b6057610100808354040283529160200191610b8b565b820191906000526020600020905b815481529060010190602001808311610b6e57829003601f168201915b5050965050505050505060405180910390f35b610ba6611e5e565b005b3415610bb357600080fd5b610bbb611fff565b6040518082815260200191505060405180910390f35b6000600560040180549050905090565b6000600b60008373ffffffffffffffffffffffffffffffffffffffff1673ffffffffffffffffffffffffffffffffffffffff16815260200190815260200160002060009054906101000a900460ff169050919050565b60006001905090565b600080806003811115610c4f57fe5b600460009054906101000a900460ff166003811115610c6a57fe5b141515610c7657600080fd5b6000809054906101000a900473ffffffffffffffffffffffffffffffffffffffff1673ffffffffffffffffffffffffffffffffffffffff163373ffffffffffffffffffffffffffffffffffffffff1614151515610cd257600080fd5b610cdb33610be1565b151515610ce757600080fd5b60808585905011151515610cfa57600080fd5b84846040518083838082843782019150509250505060405180910390209150600c6000836000191660001916815260200190815260200160002060009054906101000a900460ff16151515610d4e57600080fd5b600a8054806001018281610d62919061252a565b916000526020600020906003020160006060604051908101604052803373ffffffffffffffffffffffffffffffffffffffff16815260200189898080601f016020809104026020016040519081016040528093929190818152602001838380828437820191505050505050815260200187815250909190915060008201518160000160006101000a81548173ffffffffffffffffffffffffffffffffffffffff021916908373ffffffffffffffffffffffffffffffffffffffff1602179055506020820151816001019080519060200190610e3e92919061255c565b50604082015181600201555050506001600b60003373ffffffffffffffffffffffffffffffffffffffff1673ffffffffffffffffffffffffffffffffffffffff16815260200190815260200160002060006101000a81548160ff0219169083151502179055506001600c6000846000191660001916815260200190815260200160002060006101000a81548160ff0219169083151502179055505050505050565b600080600d60008473ffffffffffffffffffffffffffffffffffffffff1673ffffffffffffffffffffffffffffffffffffffff16815260200190815260200160002060040154119050919050565b6000806000610f3b33610edf565b1515610f4657600080fd5b6002806003811115610f5457fe5b600460009054906101000a900460ff166003811115610f6f57fe5b141515610f7b57600080fd5b600d60003373ffffffffffffffffffffffffffffffffffffffff1673ffffffffffffffffffffffffffffffffffffffff16815260200190815260200160002093508360050160009054906101000a900460ff16151515610fda57600080fd5b85856040518083838082843782019150509250505060405180910390209250836001015460001916836000191614151561101357600080fd5b6005600401805480600101828161102a91906125dc565b91600052602060002090016000888890919290919250919061104d929190612608565b505060018460050160006101000a81548160ff02191690831515021790555061107e84600301548560020154612004565b91506000846003018190555060008211156110d4573373ffffffffffffffffffffffffffffffffffffffff166108fc839081150290604051600060405180830381858888f1935050505015156110d357600080fd5b5b505050505050565b60008060009054906101000a900473ffffffffffffffffffffffffffffffffffffffff1673ffffffffffffffffffffffffffffffffffffffff163373ffffffffffffffffffffffffffffffffffffffff1614151561113957600080fd5b600180600381111561114757fe5b600460009054906101000a900460ff16600381111561116257fe5b14151561116e57600080fd5b6111786001612022565b915061118261216c565b60038190555060008211156111d2573373ffffffffffffffffffffffffffffffffffffffff166108fc839081150290604051600060405180830381858888f1935050505015156111d157600080fd5b5b5050565b600e818154811015156111e557fe5b90600052602060002090016000915054906101000a900473ffffffffffffffffffffffffffffffffffffffff1681565b600b6020528060005260406000206000915054906101000a900460ff1681565b60008060009054906101000a900473ffffffffffffffffffffffffffffffffffffffff1673ffffffffffffffffffffffffffffffffffffffff163373ffffffffffffffffffffffffffffffffffffffff1614151561129257600080fd5b60008060038111156112a057fe5b600460009054906101000a900460ff1660038111156112bb57fe5b1415156112c757600080fd5b60a06040519081016040528087878080601f0160208091040260200160405190810160405280939291908181526020018383808284378201915050505050508152602001846fffffffffffffffffffffffffffffffff191681526020018560001916815260200189898080601f016020809104026020016040519081016040528093929190818152602001838380828437820191505050505050815260200160006040518059106113755750595b9080825280602002602001820160405280156113ab57816020015b611398612688565b8152602001906001900390816113905790505b50815250600560008201518160000190805190602001906113cd92919061255c565b5060208201518160010160006101000a8154816fffffffffffffffffffffffffffffffff02191690837001000000000000000000000000000000009004021790555060408201518160020190600019169055606082015181600301908051906020019061143b92919061255c565b50608082015181600401908051906020019061145892919061269c565b509050506114c48c8c808060200260200160405190810160405280939291908181526020018383602002808284378201915050505050508b8b80806020026020016040519081016040528093929190818152602001838360200280828437820191505050505050612174565b600f819055503073ffffffffffffffffffffffffffffffffffffffff16319150600f5482101515156114f557600080fd5b6001600460006101000a81548160ff0219169083600381111561151457fe5b021790555061152161216c565b600381905550505050505050505050505050565b600080600381111561154357fe5b600460009054906101000a900460ff16600381111561155e57fe5b14905090565b60035481565b600a8181548110151561157957fe5b90600052602060002090600302016000915090508060000160009054906101000a900473ffffffffffffffffffffffffffffffffffffffff169080600101908060020154905083565b6000600a80549050905090565b6000806000806000806000806115e3612442565b965060009550600094505b600e805490508510156116c257600d6000600e8781548110151561160e57fe5b906000526020600020900160009054906101000a900473ffffffffffffffffffffffffffffffffffffffff1673ffffffffffffffffffffffffffffffffffffffff1673ffffffffffffffffffffffffffffffffffffffff1681526020019081526020016000209350670de0b6b3a764000061168d8560020154896124ae565b81151561169657fe5b0492506116a7846003015484612004565b91506116b38683612004565b955084806001019550506115ee565b6116ce86600f54612004565b95503073ffffffffffffffffffffffffffffffffffffffff1631905085811015156116fc5760009750611702565b80860397505b5050505050505090565b600f5481565b60008060009054906101000a900473ffffffffffffffffffffffffffffffffffffffff16905090565b670de0b6b3a764000081565b6000809054906101000a900473ffffffffffffffffffffffffffffffffffffffff1681565b600160009054906101000a900473ffffffffffffffffffffffffffffffffffffffff1681565b603c81565b60025481565b600460009054906101000a900460ff1681565b6000806000806117bf33610edf565b15156117ca57600080fd5b6117d261216c565b9350600d60003373ffffffffffffffffffffffffffffffffffffffff1673ffffffffffffffffffffffffffffffffffffffff16815260200190815260200160002092508383600401819055506001600381111561182b57fe5b600460009054906101000a900460ff16600381111561184657fe5b14156118b557611858846003546124e1565b91506002548211156118b4576002600460006101000a81548160ff0219169083600381111561188357fe5b02179055507eea067c7113f3002f0fc5fa11a22f4b7d7c84b63d99d4871ba53c077afc8da560405160405180910390a15b5b82600301549050600081111561191057600083600301819055503373ffffffffffffffffffffffffffffffffffffffff166108fc829081150290604051600060405180830381858888f19350505050151561190f57600080fd5b5b50505050565b60008060009054906101000a900473ffffffffffffffffffffffffffffffffffffffff1673ffffffffffffffffffffffffffffffffffffffff163373ffffffffffffffffffffffffffffffffffffffff1614151561197357600080fd5b600180600381111561198157fe5b600460009054906101000a900460ff16600381111561199c57fe5b1415156119a857600080fd5b6000600160009054906101000a900473ffffffffffffffffffffffffffffffffffffffff1673ffffffffffffffffffffffffffffffffffffffff161415156119ef57600080fd5b8291506119fa611712565b73ffffffffffffffffffffffffffffffffffffffff168273ffffffffffffffffffffffffffffffffffffffff1663893d20e86000604051602001526040518163ffffffff167c0100000000000000000000000000000000000000000000000000000000028152600401602060405180830381600087803b1515611a7c57600080fd5b6102c65a03f11515611a8d57600080fd5b5050506040518051905073ffffffffffffffffffffffffffffffffffffffff16141515611ab957600080fd5b611ac1610c37565b8273ffffffffffffffffffffffffffffffffffffffff16630d8e6e2c6000604051602001526040518163ffffffff167c0100000000000000000000000000000000000000000000000000000000028152600401602060405180830381600087803b1515611b2d57600080fd5b6102c65a03f11515611b3e57600080fd5b5050506040518051905010151515611b5557600080fd5b8173ffffffffffffffffffffffffffffffffffffffff1663760a44406000604051602001526040518163ffffffff167c0100000000000000000000000000000000000000000000000000000000028152600401602060405180830381600087803b1515611bc157600080fd5b6102c65a03f11515611bd257600080fd5b505050604051805190501515611be757600080fd5b82600160006101000a81548173ffffffffffffffffffffffffffffffffffffffff021916908373ffffffffffffffffffffffffffffffffffffffff1602179055507fd517b3f28983d7964c0ca51f29522226735af584b0a113f040f8a8b10686873b83604051808273ffffffffffffffffffffffffffffffffffffffff1673ffffffffffffffffffffffffffffffffffffffff16815260200191505060405180910390a1505050565b600d60205280600052604060002060009150905080600001908060010154908060020154908060030154908060040154908060050160009054906101000a900460ff16905086565b6000806000806000809350600092505b8551831015611d47578583815181101515611cff57fe5b906020019060200201519150600a82815481101515611d1a57fe5b90600052602060002090600302019050611d38848260020154612004565b93508280600101935050611ce8565b83945050505050919050565b611d5b6126fc565b600560040182815481101515611d6d57fe5b90600052602060002090018054600181600116156101000203166002900480601f016020809104026020016040519081016040528092919081815260200182805460018160011615610100020316600290048015611e0c5780601f10611de157610100808354040283529160200191611e0c565b820191906000526020600020905b815481529060010190602001808311611def57829003601f168201915b50505050509050919050565b6000600e80549050905090565b600580600001908060010160009054906101000a9004700100000000000000000000000000000000029080600201549080600301905084565b60008060009054906101000a900473ffffffffffffffffffffffffffffffffffffffff1673ffffffffffffffffffffffffffffffffffffffff163373ffffffffffffffffffffffffffffffffffffffff16141515611ebb57600080fd5b60006001816003811115611ecb57fe5b600460009054906101000a900460ff166003811115611ee657fe5b1480611f165750806003811115611ef957fe5b600460009054906101000a900460ff166003811115611f1457fe5b145b1515611f2157600080fd5b6000925060016003811115611f3257fe5b600460009054906101000a900460ff166003811115611f4d57fe5b1415611f6057611f5d6000612022565b92505b6003600460006101000a81548160ff02191690836003811115611f7f57fe5b02179055507f63b958841f79ab97cb5456da181454b9932c0e15a3b17f1cbd27e2a8bc61043760405160405180910390a16000831115611ffa573373ffffffffffffffffffffffffffffffffffffffff166108fc849081150290604051600060405180830381858888f193505050501515611ff957600080fd5b5b505050565b600181565b600080828401905083811015151561201857fe5b8091505092915050565b6000806000806000806000612035612442565b955060009450600093505b600e8054905084101561211e57600d6000600e8681548110151561206057fe5b906000526020600020900160009054906101000a900473ffffffffffffffffffffffffffffffffffffffff1673ffffffffffffffffffffffffffffffffffffffff1673ffffffffffffffffffffffffffffffffffffffff1681526020019081526020016000209250670de0b6b3a76400006120df8460020154886124ae565b8115156120e857fe5b0491506120f9836003015483612004565b836003018190555061210f858460030154612004565b94508380600101945050612040565b87156121335761213085600f54612004565b94505b3073ffffffffffffffffffffffffffffffffffffffff1631905084811015151561215c57600080fd5b8481039650505050505050919050565b600042905090565b60008060008060008061218561216c565b945060009350600092505b87518310156124345787838151811015156121a757fe5b906020019060200201519150600a828154811015156121c257fe5b9060005260206000209060030201905060c060405190810160405280826001018054600181600116156101000203166002900480601f0160208091040260200160405190810160405280929190818152602001828054600181600116156101000203166002900480156122765780601f1061224b57610100808354040283529160200191612276565b820191906000526020600020905b81548152906001019060200180831161225957829003601f168201915b50505050508152602001888581518110151561228e57fe5b90602001906020020151600019168152602001826002015481526020016000815260200186815260200160001515815250600d60008360000160009054906101000a900473ffffffffffffffffffffffffffffffffffffffff1673ffffffffffffffffffffffffffffffffffffffff1673ffffffffffffffffffffffffffffffffffffffff168152602001908152602001600020600082015181600001908051906020019061233e92919061255c565b506020820151816001019060001916905560408201518160020155606082015181600301556080820151816004015560a08201518160050160006101000a81548160ff021916908315150217905550905050600e80548060010182816123a49190612710565b916000526020600020900160008360000160009054906101000a900473ffffffffffffffffffffffffffffffffffffffff16909190916101000a81548173ffffffffffffffffffffffffffffffffffffffff021916908373ffffffffffffffffffffffffffffffffffffffff16021790555050612425848260020154612004565b93508280600101935050612190565b839550505050505092915050565b60008061245861245061216c565b6003546124e1565b9050600254811115151561246b57600080fd5b612477816102586124fa565b90506002548111156124895760025490505b60025461249e670de0b6b3a7640000836124ae565b8115156124a757fe5b0491505090565b600080828402905060008414806124cf57508284828115156124cc57fe5b04145b15156124d757fe5b8091505092915050565b60008282111515156124ef57fe5b818303905092915050565b60008083141561250d5760009050612524565b81826001850381151561251c57fe5b046001010290505b92915050565b81548183558181151161255757600302816003028360005260206000209182019101612556919061273c565b5b505050565b828054600181600116156101000203166002900490600052602060002090601f016020900481019282601f1061259d57805160ff19168380011785556125cb565b828001600101855582156125cb579182015b828111156125ca5782518255916020019190600101906125af565b5b5090506125d8919061279a565b5090565b8154818355818115116126035781836000526020600020918201910161260291906127bf565b5b505050565b828054600181600116156101000203166002900490600052602060002090601f016020900481019282601f1061264957803560ff1916838001178555612677565b82800160010185558215612677579182015b8281111561267657823582559160200191906001019061265b565b5b509050612684919061279a565b5090565b602060405190810160405280600081525090565b8280548282559060005260206000209081019282156126eb579160200282015b828111156126ea5782518290805190602001906126da92919061255c565b50916020019190600101906126bc565b5b5090506126f891906127bf565b5090565b602060405190810160405280600081525090565b81548183558181151161273757818360005260206000209182019101612736919061279a565b5b505050565b61279791905b8082111561279357600080820160006101000a81549073ffffffffffffffffffffffffffffffffffffffff021916905560018201600061278291906127eb565b600282016000905550600301612742565b5090565b90565b6127bc91905b808211156127b85760008160009055506001016127a0565b5090565b90565b6127e891905b808211156127e457600081816127db91906127eb565b506001016127c5565b5090565b90565b50805460018160011615610100020316600290046000825580601f106128115750612830565b601f01602090049060005260206000209081019061282f919061279a565b5b505600a165627a7a7230582016303ea32999498abe68b5d898de378466bf56653bc5843d7a57bafb634e667f0029",
  "source": "pragma solidity 0.4.18;\n\nimport \"./SafeMath.sol\";\n\ninterface CryptoLegacyBaseAPI {\n  function getVersion() public view returns (uint);\n  function getOwner() public view returns (address);\n  function isAcceptingKeeperProposals() public view returns (bool);\n}\n\ncontract CryptoLegacy is CryptoLegacyBaseAPI {\n\n  // Version of the contract API.\n  uint public constant VERSION = 1;\n\n  event KeysNeeded();\n  event ContinuationContractAnnounced(address continuationContractAddress);\n  event Cancelled();\n\n  enum States {\n    CallForKeepers,\n    Active,\n    CallForKeys,\n    Cancelled\n  }\n\n  modifier atState(States _state) {\n    require(state == _state);\n    _;\n  }\n\n  modifier atEitherOfStates(States state1, States state2) {\n    require(state == state1 || state == state2);\n    _;\n  }\n\n  modifier ownerOnly() {\n    require(msg.sender == owner);\n    _;\n  }\n\n  modifier activeKeepersOnly() {\n    require(isActiveKeeper(msg.sender));\n    _;\n  }\n\n  struct KeeperProposal {\n    address keeperAddress;\n    bytes publicKey; // 64-byte\n    uint keepingFee;\n  }\n\n  struct ActiveKeeper {\n    bytes publicKey; // 64-byte\n    bytes32 keyPartHash; // sha-3 hash\n    uint keepingFee;\n    uint balance;\n    uint lastCheckInAt;\n    bool keyPartSupplied;\n  }\n\n  struct EncryptedData {\n    bytes encryptedData;\n    bytes16 aesCounter;\n    bytes32 dataHash; // sha-3 hash\n    bytes encryptedKeyParts; // packed array of key parts\n    bytes[] suppliedKeyParts;\n  }\n\n  address public owner = msg.sender;\n\n  // When owner wants to elect new Keepers, she cancels the contract and starts a new one.\n  // This variable contains the address of the new continuation contract.\n  address public continuationContractAddress = 0;\n\n  uint public checkInInterval;\n  uint public lastOwnerCheckInAt;\n\n  States public state = States.CallForKeepers;\n\n  EncryptedData public encryptedData;\n\n  KeeperProposal[] public keeperProposals;\n  mapping(address => bool) public proposedKeeperFlags;\n  mapping(bytes32 => bool) private proposedPublicKeyHashes;\n\n  mapping(address => ActiveKeeper) public activeKeepers;\n  address[] public activeKeepersAddresses;\n\n  // Sum of keeping fees of all active Keepers.\n  uint public totalKeepingFee;\n\n  // We need this because current version of Solidity doesn't support non-integer numbers.\n  // We set it to be equal to number of wei in eth to make sure we transfer keeping fee with\n  // enough precision.\n  uint public constant KEEPING_FEE_ROUNDING_MULT = 1 ether;\n\n  // Don't allow owner to specify check-in interval less than this when creating a new contract.\n  uint public constant MINIMUM_CHECK_IN_INTERVAL = 1 minutes;\n\n\n  // Called by the person who possesses the data they wish to transfer.\n  // This person becomes the owner of the contract.\n  //\n  function CryptoLegacy(uint _checkInInterval) public {\n    require(_checkInInterval >= MINIMUM_CHECK_IN_INTERVAL);\n    checkInInterval = _checkInInterval;\n  }\n\n\n  function getVersion() public view returns (uint) {\n    return VERSION;\n  }\n\n\n  function getOwner() public view returns (address) {\n    return owner;\n  }\n\n\n  function isAcceptingKeeperProposals() public view returns (bool) {\n    return state == States.CallForKeepers;\n  }\n\n\n  function getNumProposals() external view returns (uint) {\n    return keeperProposals.length;\n  }\n\n\n  function getNumKeepers() external view returns (uint) {\n    return activeKeepersAddresses.length;\n  }\n\n\n  function getNumSuppliedKeyParts() external view returns (uint) {\n    return encryptedData.suppliedKeyParts.length;\n  }\n\n\n  function getSuppliedKeyPart(uint index) external view returns (bytes) {\n    return encryptedData.suppliedKeyParts[index];\n  }\n\n  function isActiveKeeper(address addr) public view returns (bool) {\n    return activeKeepers[addr].lastCheckInAt > 0;\n  }\n\n  function didSendProposal(address addr) public view returns (bool) {\n    return proposedKeeperFlags[addr];\n  }\n\n\n  // Called by a Keeper to submit their proposal.\n  //\n  function submitKeeperProposal(bytes publicKey, uint keepingFee) external\n    atState(States.CallForKeepers)\n  {\n    require(msg.sender != owner);\n    require(!didSendProposal(msg.sender));\n    require(publicKey.length <= 128);\n\n    bytes32 publicKeyHash = keccak256(publicKey);\n    require(!proposedPublicKeyHashes[publicKeyHash]);\n\n    keeperProposals.push(KeeperProposal({\n      keeperAddress: msg.sender,\n      publicKey: publicKey,\n      keepingFee: keepingFee\n    }));\n\n    proposedKeeperFlags[msg.sender] = true;\n    proposedPublicKeyHashes[publicKeyHash] = true;\n  }\n\n  // Calculates how much would it cost the owner to activate contract with given Keepers.\n  //\n  function calculateActivationPrice(uint[] selectedProposalIndices) public view returns (uint) {\n    uint _totalKeepingFee = 0;\n\n    for (uint i = 0; i < selectedProposalIndices.length; i++) {\n      uint proposalIndex = selectedProposalIndices[i];\n      KeeperProposal storage proposal = keeperProposals[proposalIndex];\n      _totalKeepingFee = SafeMath.add(_totalKeepingFee, proposal.keepingFee);\n    }\n\n    return _totalKeepingFee;\n  }\n\n\n  // Called by owner to accept selected proposals and activate the contract.\n  //\n  function acceptKeepers(\n    uint[] selectedProposalIndices,\n    bytes32[] keyPartHashes,\n    bytes encryptedKeyParts,\n    bytes _encryptedData,\n    bytes32 dataHash,\n    bytes16 aesCounter\n  ) payable external\n    ownerOnly()\n    atState(States.CallForKeepers)\n  {\n    encryptedData = EncryptedData({\n      encryptedData: _encryptedData,\n      aesCounter: aesCounter,\n      dataHash: dataHash,\n      encryptedKeyParts: encryptedKeyParts,\n      suppliedKeyParts: new bytes[](0)\n    });\n\n    totalKeepingFee = writeKeepers(selectedProposalIndices, keyPartHashes);\n\n    uint balance = this.balance;\n    require(balance >= totalKeepingFee);\n\n    state = States.Active;\n    lastOwnerCheckInAt = getBlockTimestamp();\n  }\n\n\n  // Returns: sum of keeping fees of all selected Keepers.\n  //\n  function writeKeepers(\n    uint[] selectedProposalIndices,\n    bytes32[] keyPartHashes\n  )\n  internal returns (uint)\n  {\n    uint timestamp = getBlockTimestamp();\n    uint _totalKeepingFee = 0;\n\n    for (uint i = 0; i < selectedProposalIndices.length; i++) {\n      uint proposalIndex = selectedProposalIndices[i];\n      KeeperProposal storage proposal = keeperProposals[proposalIndex];\n\n      activeKeepers[proposal.keeperAddress] = ActiveKeeper({\n        publicKey: proposal.publicKey,\n        keyPartHash: keyPartHashes[i],\n        keepingFee: proposal.keepingFee,\n        lastCheckInAt: timestamp,\n        balance: 0,\n        keyPartSupplied: false\n      });\n\n      activeKeepersAddresses.push(proposal.keeperAddress);\n      _totalKeepingFee = SafeMath.add(_totalKeepingFee, proposal.keepingFee);\n    }\n\n    return _totalKeepingFee;\n  }\n\n\n  // Updates owner check-in time and credits all active Keepers with keeping fee.\n  //\n  function ownerCheckIn() payable external\n    ownerOnly()\n    atState(States.Active)\n  {\n    uint excessBalance = creditKeepers({prepayOneKeepingPeriodUpfront: true});\n\n    lastOwnerCheckInAt = getBlockTimestamp();\n\n    if (excessBalance > 0) {\n      msg.sender.transfer(excessBalance);\n    }\n  }\n\n\n  // Calculates approximate price of a check-in, given that it will be performed right now.\n  // Actual price may differ because\n  //\n  function calculateApproximateCheckInPrice() public view returns (uint) {\n    uint keepingFeeMult = calculateKeepingFeeMult();\n    uint requiredBalance = 0;\n\n    for (uint i = 0; i < activeKeepersAddresses.length; i++) {\n      ActiveKeeper storage keeper = activeKeepers[activeKeepersAddresses[i]];\n      uint balanceToAdd = SafeMath.mul(keeper.keepingFee, keepingFeeMult) / KEEPING_FEE_ROUNDING_MULT;\n      uint newKeeperBalance = SafeMath.add(keeper.balance, balanceToAdd);\n      requiredBalance = SafeMath.add(requiredBalance, newKeeperBalance);\n    }\n\n    requiredBalance = SafeMath.add(requiredBalance, totalKeepingFee);\n    uint balance = this.balance;\n\n    if (balance >= requiredBalance) {\n      return 0;\n    } else {\n      return requiredBalance - balance;\n    }\n  }\n\n\n  // Returns: excess balance that can be transferred back to owner.\n  //\n  function creditKeepers(bool prepayOneKeepingPeriodUpfront) internal returns (uint) {\n    uint keepingFeeMult = calculateKeepingFeeMult();\n    uint requiredBalance = 0;\n\n    for (uint i = 0; i < activeKeepersAddresses.length; i++) {\n      ActiveKeeper storage keeper = activeKeepers[activeKeepersAddresses[i]];\n      uint balanceToAdd = SafeMath.mul(keeper.keepingFee, keepingFeeMult) / KEEPING_FEE_ROUNDING_MULT;\n      keeper.balance = SafeMath.add(keeper.balance, balanceToAdd);\n      requiredBalance = SafeMath.add(requiredBalance, keeper.balance);\n    }\n\n    if (prepayOneKeepingPeriodUpfront) {\n      requiredBalance = SafeMath.add(requiredBalance, totalKeepingFee);\n    }\n\n    uint balance = this.balance;\n\n    require(balance >= requiredBalance);\n    return balance - requiredBalance;\n  }\n\n\n  function calculateKeepingFeeMult() internal view returns (uint) {\n    uint timeSinceLastOwnerCheckIn = SafeMath.sub(getBlockTimestamp(), lastOwnerCheckInAt);\n    require(timeSinceLastOwnerCheckIn <= checkInInterval);\n\n    timeSinceLastOwnerCheckIn = ceil(timeSinceLastOwnerCheckIn, 600); // ceil to 10 minutes\n    if (timeSinceLastOwnerCheckIn > checkInInterval) {\n      timeSinceLastOwnerCheckIn = checkInInterval;\n    }\n\n    return SafeMath.mul(KEEPING_FEE_ROUNDING_MULT, timeSinceLastOwnerCheckIn) / checkInInterval;\n  }\n\n\n  // Pays the Keeper their balance and updates their check-in time. Verifies that the owner\n  // checked in in time and, if not, transfers the contract into CALL_FOR_KEYS state.\n  //\n  // A Keeper can call this method to get his reward regardless of the contract state.\n  //\n  function keeperCheckIn() external\n    activeKeepersOnly()\n  {\n    uint timestamp = getBlockTimestamp();\n\n    ActiveKeeper storage keeper = activeKeepers[msg.sender];\n    keeper.lastCheckInAt = timestamp;\n\n    if (state == States.Active) {\n      uint timeSinceLastOwnerCheckIn = SafeMath.sub(timestamp, lastOwnerCheckInAt);\n      if (timeSinceLastOwnerCheckIn > checkInInterval) {\n        state = States.CallForKeys;\n        KeysNeeded();\n      }\n    }\n\n    uint keeperBalance = keeper.balance;\n    if (keeperBalance > 0) {\n      keeper.balance = 0;\n      msg.sender.transfer(keeperBalance);\n    }\n  }\n\n\n  // Called by Keepers to supply their decrypted key parts.\n  //\n  function supplyKey(bytes keyPart) external\n    activeKeepersOnly()\n    atState(States.CallForKeys)\n  {\n    ActiveKeeper storage keeper = activeKeepers[msg.sender];\n    require(!keeper.keyPartSupplied);\n\n    bytes32 suppliedKeyPartHash = keccak256(keyPart);\n    require(suppliedKeyPartHash == keeper.keyPartHash);\n\n    encryptedData.suppliedKeyParts.push(keyPart);\n    keeper.keyPartSupplied = true;\n\n    // Include one-period keeping fee that was held by contract in advance.\n    uint toBeTransferred = SafeMath.add(keeper.balance, keeper.keepingFee);\n    keeper.balance = 0;\n\n    if (toBeTransferred > 0) {\n      msg.sender.transfer(toBeTransferred);\n    }\n  }\n\n\n  // Allows owner to announce continuation contract to all active Keepers.\n  //\n  // Continuation contract is used to elect new set of Keepers, e.g. to replace inactive ones.\n  // When the continuation contract gets sufficient number of keeping proposals, owner will\n  // cancel this contract and start the continuation one.\n  //\n  function announceContinuationContract(address _continuationContractAddress) external\n    ownerOnly()\n    atState(States.Active)\n  {\n    require(continuationContractAddress == 0);\n\n    CryptoLegacyBaseAPI continuationContract = CryptoLegacyBaseAPI(_continuationContractAddress);\n\n    require(continuationContract.getOwner() == getOwner());\n    require(continuationContract.getVersion() >= getVersion());\n    require(continuationContract.isAcceptingKeeperProposals());\n\n    continuationContractAddress = _continuationContractAddress;\n    ContinuationContractAnnounced(_continuationContractAddress);\n  }\n\n\n  // Cancels the contract and notifies the Keepers. Credits all active Keepers with keeping fee,\n  // as if this was a check-in.\n  //\n  function cancel() payable external\n    ownerOnly()\n    atEitherOfStates(States.CallForKeepers, States.Active)\n  {\n    uint excessBalance = 0;\n\n    if (state == States.Active) {\n      // We don't require paying one keeping period upfront as the contract is being cancelled;\n      // we just require paying till the present moment.\n      excessBalance = creditKeepers({prepayOneKeepingPeriodUpfront: false});\n    }\n\n    state = States.Cancelled;\n    Cancelled();\n\n    if (excessBalance > 0) {\n      msg.sender.transfer(excessBalance);\n    }\n  }\n\n\n  // We can rely on the value of now (block.timestamp) for our purposes, as the consensus\n  // rule is that a block's timestamp must be 1) more than the parent's block timestamp;\n  // and 2) less than the current wall clock time. See:\n  // https://github.com/ethereum/go-ethereum/blob/885c13c/consensus/ethash/consensus.go#L223\n  //\n  function getBlockTimestamp() internal view returns (uint) {\n    return now;\n  }\n\n\n  // See: https://stackoverflow.com/a/2745086/804678\n  //\n  function ceil(uint x, uint y) internal pure returns (uint) {\n    if (x == 0) return 0;\n    return (1 + ((x - 1) / y)) * y;\n  }\n\n}\n",
  "sourcePath": "/Users/eugene/dev/crypto-legacy-internal/truffle/contracts/CryptoLegacy.sol",
  "compiler": {
    "name": "solc",
    "version": "0.4.18+commit.9cf6e910.Emscripten.clang"
  },
  "schemaVersion": "1.0.1",
  "updatedAt": "2017-12-16T20:12:05.104Z"
}