{
  "contractName": "CryptoLegacyDebug",
  "abi": [
    {
      "constant": true,
      "inputs": [],
      "name": "getNumSuppliedKeyParts",
      "outputs": [
        {
          "name": "",
          "type": "uint256"
        }
      ],
      "payable": false,
      "stateMutability": "view",
      "type": "function"
    },
    {
      "constant": true,
      "inputs": [
        {
          "name": "addr",
          "type": "address"
        }
      ],
      "name": "didSendProposal",
      "outputs": [
        {
          "name": "",
          "type": "bool"
        }
      ],
      "payable": false,
      "stateMutability": "view",
      "type": "function"
    },
    {
      "constant": true,
      "inputs": [],
      "name": "getVersion",
      "outputs": [
        {
          "name": "",
          "type": "uint256"
        }
      ],
      "payable": false,
      "stateMutability": "view",
      "type": "function"
    },
    {
      "constant": false,
      "inputs": [
        {
          "name": "publicKey",
          "type": "bytes"
        },
        {
          "name": "keepingFee",
          "type": "uint256"
        }
      ],
      "name": "submitKeeperProposal",
      "outputs": [],
      "payable": false,
      "stateMutability": "nonpayable",
      "type": "function"
    },
    {
      "constant": true,
      "inputs": [
        {
          "name": "addr",
          "type": "address"
        }
      ],
      "name": "isActiveKeeper",
      "outputs": [
        {
          "name": "",
          "type": "bool"
        }
      ],
      "payable": false,
      "stateMutability": "view",
      "type": "function"
    },
    {
      "constant": false,
      "inputs": [
        {
          "name": "keyPart",
          "type": "bytes"
        }
      ],
      "name": "supplyKey",
      "outputs": [],
      "payable": false,
      "stateMutability": "nonpayable",
      "type": "function"
    },
    {
      "constant": false,
      "inputs": [],
      "name": "ownerCheckIn",
      "outputs": [],
      "payable": true,
      "stateMutability": "payable",
      "type": "function"
    },
    {
      "constant": true,
      "inputs": [
        {
          "name": "",
          "type": "uint256"
        }
      ],
      "name": "activeKeepersAddresses",
      "outputs": [
        {
          "name": "",
          "type": "address"
        }
      ],
      "payable": false,
      "stateMutability": "view",
      "type": "function"
    },
    {
      "constant": false,
      "inputs": [
        {
          "name": "selectedProposalIndices",
          "type": "uint256[]"
        },
        {
          "name": "keyPartHashes",
          "type": "bytes32[]"
        },
        {
          "name": "encryptedKeyParts",
          "type": "bytes"
        },
        {
          "name": "_encryptedData",
          "type": "bytes"
        },
        {
          "name": "dataHash",
          "type": "bytes32"
        },
        {
          "name": "aesCounter",
          "type": "uint256"
        }
      ],
      "name": "acceptKeepers",
      "outputs": [],
      "payable": true,
      "stateMutability": "payable",
      "type": "function"
    },
    {
      "constant": true,
      "inputs": [
        {
          "name": "",
          "type": "address"
        }
      ],
      "name": "proposedKeeperFlags",
      "outputs": [
        {
          "name": "",
          "type": "bool"
        }
      ],
      "payable": false,
      "stateMutability": "view",
      "type": "function"
    },
    {
      "constant": false,
      "inputs": [
        {
          "name": "newVersion",
          "type": "uint256"
        }
      ],
      "name": "setVersion",
      "outputs": [],
      "payable": false,
      "stateMutability": "nonpayable",
      "type": "function"
    },
    {
      "constant": true,
      "inputs": [],
      "name": "isAcceptingKeeperProposals",
      "outputs": [
        {
          "name": "",
          "type": "bool"
        }
      ],
      "payable": false,
      "stateMutability": "view",
      "type": "function"
    },
    {
      "constant": true,
      "inputs": [],
      "name": "lastOwnerCheckInAt",
      "outputs": [
        {
          "name": "",
          "type": "uint256"
        }
      ],
      "payable": false,
      "stateMutability": "view",
      "type": "function"
    },
    {
      "constant": true,
      "inputs": [
        {
          "name": "",
          "type": "uint256"
        }
      ],
      "name": "keeperProposals",
      "outputs": [
        {
          "name": "keeperAddress",
          "type": "address"
        },
        {
          "name": "publicKey",
          "type": "bytes"
        },
        {
          "name": "keepingFee",
          "type": "uint256"
        }
      ],
      "payable": false,
      "stateMutability": "view",
      "type": "function"
    },
    {
      "constant": true,
      "inputs": [],
      "name": "getNumProposals",
      "outputs": [
        {
          "name": "",
          "type": "uint256"
        }
      ],
      "payable": false,
      "stateMutability": "view",
      "type": "function"
    },
    {
      "constant": true,
      "inputs": [],
      "name": "calculateApproximateCheckInPrice",
      "outputs": [
        {
          "name": "",
          "type": "uint256"
        }
      ],
      "payable": false,
      "stateMutability": "view",
      "type": "function"
    },
    {
      "constant": true,
      "inputs": [],
      "name": "totalKeepingFee",
      "outputs": [
        {
          "name": "",
          "type": "uint256"
        }
      ],
      "payable": false,
      "stateMutability": "view",
      "type": "function"
    },
    {
      "constant": true,
      "inputs": [],
      "name": "getOwner",
      "outputs": [
        {
          "name": "",
          "type": "address"
        }
      ],
      "payable": false,
      "stateMutability": "view",
      "type": "function"
    },
    {
      "constant": true,
      "inputs": [],
      "name": "KEEPING_FEE_ROUNDING_MULT",
      "outputs": [
        {
          "name": "",
          "type": "uint256"
        }
      ],
      "payable": false,
      "stateMutability": "view",
      "type": "function"
    },
    {
      "constant": true,
      "inputs": [],
      "name": "owner",
      "outputs": [
        {
          "name": "",
          "type": "address"
        }
      ],
      "payable": false,
      "stateMutability": "view",
      "type": "function"
    },
    {
      "constant": true,
      "inputs": [],
      "name": "continuationContractAddress",
      "outputs": [
        {
          "name": "",
          "type": "address"
        }
      ],
      "payable": false,
      "stateMutability": "view",
      "type": "function"
    },
    {
      "constant": true,
      "inputs": [],
      "name": "MINIMUM_CHECK_IN_INTERVAL",
      "outputs": [
        {
          "name": "",
          "type": "uint256"
        }
      ],
      "payable": false,
      "stateMutability": "view",
      "type": "function"
    },
    {
      "constant": true,
      "inputs": [],
      "name": "checkInInterval",
      "outputs": [
        {
          "name": "",
          "type": "uint256"
        }
      ],
      "payable": false,
      "stateMutability": "view",
      "type": "function"
    },
    {
      "constant": true,
      "inputs": [],
      "name": "state",
      "outputs": [
        {
          "name": "",
          "type": "uint8"
        }
      ],
      "payable": false,
      "stateMutability": "view",
      "type": "function"
    },
    {
      "constant": false,
      "inputs": [],
      "name": "keeperCheckIn",
      "outputs": [],
      "payable": false,
      "stateMutability": "nonpayable",
      "type": "function"
    },
    {
      "constant": false,
      "inputs": [
        {
          "name": "_continuationContractAddress",
          "type": "address"
        }
      ],
      "name": "announceContinuationContract",
      "outputs": [],
      "payable": false,
      "stateMutability": "nonpayable",
      "type": "function"
    },
    {
      "constant": true,
      "inputs": [
        {
          "name": "",
          "type": "address"
        }
      ],
      "name": "activeKeepers",
      "outputs": [
        {
          "name": "publicKey",
          "type": "bytes"
        },
        {
          "name": "keyPartHash",
          "type": "bytes32"
        },
        {
          "name": "keepingFee",
          "type": "uint256"
        },
        {
          "name": "balance",
          "type": "uint256"
        },
        {
          "name": "lastCheckInAt",
          "type": "uint256"
        },
        {
          "name": "keyPartSupplied",
          "type": "bool"
        }
      ],
      "payable": false,
      "stateMutability": "view",
      "type": "function"
    },
    {
      "constant": true,
      "inputs": [
        {
          "name": "selectedProposalIndices",
          "type": "uint256[]"
        }
      ],
      "name": "calculateActivationPrice",
      "outputs": [
        {
          "name": "",
          "type": "uint256"
        }
      ],
      "payable": false,
      "stateMutability": "view",
      "type": "function"
    },
    {
      "constant": false,
      "inputs": [
        {
          "name": "sec",
          "type": "uint256"
        }
      ],
      "name": "increaseTimeBy",
      "outputs": [],
      "payable": false,
      "stateMutability": "nonpayable",
      "type": "function"
    },
    {
      "constant": true,
      "inputs": [
        {
          "name": "index",
          "type": "uint256"
        }
      ],
      "name": "getSuppliedKeyPart",
      "outputs": [
        {
          "name": "",
          "type": "bytes"
        }
      ],
      "payable": false,
      "stateMutability": "view",
      "type": "function"
    },
    {
      "constant": true,
      "inputs": [],
      "name": "getNumKeepers",
      "outputs": [
        {
          "name": "",
          "type": "uint256"
        }
      ],
      "payable": false,
      "stateMutability": "view",
      "type": "function"
    },
    {
      "constant": true,
      "inputs": [],
      "name": "encryptedData",
      "outputs": [
        {
          "name": "encryptedData",
          "type": "bytes"
        },
        {
          "name": "aesCounter",
          "type": "uint256"
        },
        {
          "name": "dataHash",
          "type": "bytes32"
        },
        {
          "name": "encryptedKeyParts",
          "type": "bytes"
        }
      ],
      "payable": false,
      "stateMutability": "view",
      "type": "function"
    },
    {
      "constant": false,
      "inputs": [],
      "name": "cancel",
      "outputs": [],
      "payable": true,
      "stateMutability": "payable",
      "type": "function"
    },
    {
      "constant": true,
      "inputs": [],
      "name": "VERSION",
      "outputs": [
        {
          "name": "",
          "type": "uint256"
        }
      ],
      "payable": false,
      "stateMutability": "view",
      "type": "function"
    },
    {
      "inputs": [
        {
          "name": "_checkInInterval",
          "type": "uint256"
        }
      ],
      "payable": false,
      "stateMutability": "nonpayable",
      "type": "constructor"
    },
    {
      "anonymous": false,
      "inputs": [],
      "name": "KeysNeeded",
      "type": "event"
    },
    {
      "anonymous": false,
      "inputs": [
        {
          "indexed": false,
          "name": "continuationContractAddress",
          "type": "address"
        }
      ],
      "name": "ContinuationContractAnnounced",
      "type": "event"
    },
    {
      "anonymous": false,
      "inputs": [],
      "name": "Cancelled",
      "type": "event"
    }
  ],
  "bytecode": "0x6060604052336000806101000a81548173ffffffffffffffffffffffffffffffffffffffff021916908373ffffffffffffffffffffffffffffffffffffffff1602179055506000600160006101000a81548173ffffffffffffffffffffffffffffffffffffffff021916908373ffffffffffffffffffffffffffffffffffffffff1602179055506000600460006101000a81548160ff021916908360038111156100a557fe5b0217905550602a60105534156100ba57600080fd5b6040516020806129508339810160405280805190602001909190505080610e1081101515156100e857600080fd5b806002819055505050612850806101006000396000f3006060604052600436106101ac576000357c0100000000000000000000000000000000000000000000000000000000900463ffffffff16806304ed3e4e146101b1578063071f8601146101da5780630d8e6e2c1461022b57806317995d7b146102545780632224768d1461028b578063259c3aed146102dc57806339dd4f6d1461030a5780633afd601a146103145780633cc2798a146103775780633f135f86146103ec578063408def1e1461043d578063760a44401461046057806376eca21e1461048d578063781970e6146104b6578063798974dd146105a95780637a54c192146105d257806387a083ca146105fb578063893d20e8146106245780638d594651146106795780638da5cb5b146106a2578063a3521f13146106f7578063ba4ff4981461074c578063bfd25fa514610775578063c19d93fb1461079e578063c53c9bb6146107d5578063cc1b3b9c146107ea578063cdd35b2d14610823578063ce35d24614610921578063d4cd51bf1461098f578063d830d1e5146109b2578063d97cdcbc14610a4e578063e9fc715a14610a77578063ea8a1af014610bc1578063ffa1ad7414610bcb575b600080fd5b34156101bc57600080fd5b6101c4610bf4565b6040518082815260200191505060405180910390f35b34156101e557600080fd5b610211600480803573ffffffffffffffffffffffffffffffffffffffff16906020019091905050610c04565b604051808215151515815260200191505060405180910390f35b341561023657600080fd5b61023e610c5a565b6040518082815260200191505060405180910390f35b341561025f57600080fd5b61028960048080359060200190820180359060200191909192908035906020019091905050610c78565b005b341561029657600080fd5b6102c2600480803573ffffffffffffffffffffffffffffffffffffffff16906020019091905050610f17565b604051808215151515815260200191505060405180910390f35b34156102e757600080fd5b61030860048080359060200190820180359060200191909192905050610f65565b005b610312611114565b005b341561031f57600080fd5b610335600480803590602001909190505061120e565b604051808273ffffffffffffffffffffffffffffffffffffffff1673ffffffffffffffffffffffffffffffffffffffff16815260200191505060405180910390f35b6103ea600480803590602001908201803590602001919091929080359060200190820180359060200191909192908035906020019082018035906020019190919290803590602001908201803590602001919091929080356000191690602001909190803590602001909190505061124d565b005b34156103f757600080fd5b610423600480803573ffffffffffffffffffffffffffffffffffffffff16906020019091905050611503565b604051808215151515815260200191505060405180910390f35b341561044857600080fd5b61045e6004808035906020019091905050611523565b005b341561046b57600080fd5b61047361152d565b604051808215151515815260200191505060405180910390f35b341561049857600080fd5b6104a061155c565b6040518082815260200191505060405180910390f35b34156104c157600080fd5b6104d76004808035906020019091905050611562565b604051808473ffffffffffffffffffffffffffffffffffffffff1673ffffffffffffffffffffffffffffffffffffffff168152602001806020018381526020018281038252848181546001816001161561010002031660029004815260200191508054600181600116156101000203166002900480156105985780601f1061056d57610100808354040283529160200191610598565b820191906000526020600020905b81548152906001019060200180831161057b57829003601f168201915b505094505050505060405180910390f35b34156105b457600080fd5b6105bc6115ba565b6040518082815260200191505060405180910390f35b34156105dd57600080fd5b6105e56115c7565b6040518082815260200191505060405180910390f35b341561060657600080fd5b61060e611704565b6040518082815260200191505060405180910390f35b341561062f57600080fd5b61063761170a565b604051808273ffffffffffffffffffffffffffffffffffffffff1673ffffffffffffffffffffffffffffffffffffffff16815260200191505060405180910390f35b341561068457600080fd5b61068c611733565b6040518082815260200191505060405180910390f35b34156106ad57600080fd5b6106b561173f565b604051808273ffffffffffffffffffffffffffffffffffffffff1673ffffffffffffffffffffffffffffffffffffffff16815260200191505060405180910390f35b341561070257600080fd5b61070a611764565b604051808273ffffffffffffffffffffffffffffffffffffffff1673ffffffffffffffffffffffffffffffffffffffff16815260200191505060405180910390f35b341561075757600080fd5b61075f61178a565b6040518082815260200191505060405180910390f35b341561078057600080fd5b610788611790565b6040518082815260200191505060405180910390f35b34156107a957600080fd5b6107b1611796565b604051808260038111156107c157fe5b60ff16815260200191505060405180910390f35b34156107e057600080fd5b6107e86117a9565b005b34156107f557600080fd5b610821600480803573ffffffffffffffffffffffffffffffffffffffff1690602001909190505061190f565b005b341561082e57600080fd5b61085a600480803573ffffffffffffffffffffffffffffffffffffffff16906020019091905050611c89565b604051808060200187600019166000191681526020018681526020018581526020018481526020018315151515815260200182810382528881815460018160011615610100020316600290048152602001915080546001816001161561010002031660029004801561090d5780601f106108e25761010080835404028352916020019161090d565b820191906000526020600020905b8154815290600101906020018083116108f057829003601f168201915b505097505050505050505060405180910390f35b341561092c57600080fd5b610979600480803590602001908201803590602001908080602002602001604051908101604052809392919081815260200183836020028082843782019150505050505091905050611cd1565b6040518082815260200191505060405180910390f35b341561099a57600080fd5b6109b06004808035906020019091905050611d4c565b005b34156109bd57600080fd5b6109d36004808035906020019091905050611d5f565b6040518080602001828103825283818151815260200191508051906020019080838360005b83811015610a135780820151818401526020810190506109f8565b50505050905090810190601f168015610a405780820380516001836020036101000a031916815260200191505b509250505060405180910390f35b3415610a5957600080fd5b610a61611e24565b6040518082815260200191505060405180910390f35b3415610a8257600080fd5b610a8a611e31565b6040518080602001858152602001846000191660001916815260200180602001838103835287818154600181600116156101000203166002900481526020019150805460018160011615610100020316600290048015610b2b5780601f10610b0057610100808354040283529160200191610b2b565b820191906000526020600020905b815481529060010190602001808311610b0e57829003601f168201915b5050838103825284818154600181600116156101000203166002900481526020019150805460018160011615610100020316600290048015610bae5780601f10610b8357610100808354040283529160200191610bae565b820191906000526020600020905b815481529060010190602001808311610b9157829003601f168201915b5050965050505050505060405180910390f35b610bc9611e4d565b005b3415610bd657600080fd5b610bde611fee565b6040518082815260200191505060405180910390f35b6000600560040180549050905090565b6000600b60008373ffffffffffffffffffffffffffffffffffffffff1673ffffffffffffffffffffffffffffffffffffffff16815260200190815260200160002060009054906101000a900460ff169050919050565b6000806011541415610c6f5760019050610c75565b60115490505b90565b600080806003811115610c8757fe5b600460009054906101000a900460ff166003811115610ca257fe5b141515610cae57600080fd5b6000809054906101000a900473ffffffffffffffffffffffffffffffffffffffff1673ffffffffffffffffffffffffffffffffffffffff163373ffffffffffffffffffffffffffffffffffffffff1614151515610d0a57600080fd5b610d1333610c04565b151515610d1f57600080fd5b60808585905011151515610d3257600080fd5b84846040518083838082843782019150509250505060405180910390209150600c6000836000191660001916815260200190815260200160002060009054906101000a900460ff16151515610d8657600080fd5b600a8054806001018281610d9a919061251b565b916000526020600020906003020160006060604051908101604052803373ffffffffffffffffffffffffffffffffffffffff16815260200189898080601f016020809104026020016040519081016040528093929190818152602001838380828437820191505050505050815260200187815250909190915060008201518160000160006101000a81548173ffffffffffffffffffffffffffffffffffffffff021916908373ffffffffffffffffffffffffffffffffffffffff1602179055506020820151816001019080519060200190610e7692919061254d565b50604082015181600201555050506001600b60003373ffffffffffffffffffffffffffffffffffffffff1673ffffffffffffffffffffffffffffffffffffffff16815260200190815260200160002060006101000a81548160ff0219169083151502179055506001600c6000846000191660001916815260200190815260200160002060006101000a81548160ff0219169083151502179055505050505050565b600080600d60008473ffffffffffffffffffffffffffffffffffffffff1673ffffffffffffffffffffffffffffffffffffffff16815260200190815260200160002060040154119050919050565b6000806000610f7333610f17565b1515610f7e57600080fd5b6002806003811115610f8c57fe5b600460009054906101000a900460ff166003811115610fa757fe5b141515610fb357600080fd5b600d60003373ffffffffffffffffffffffffffffffffffffffff1673ffffffffffffffffffffffffffffffffffffffff16815260200190815260200160002093508360050160009054906101000a900460ff1615151561101257600080fd5b85856040518083838082843782019150509250505060405180910390209250836001015460001916836000191614151561104b57600080fd5b6005600401805480600101828161106291906125cd565b9160005260206000209001600088889091929091925091906110859291906125f9565b505060018460050160006101000a81548160ff0219169083151502179055506110b684600301548560020154611ff3565b915060008460030181905550600082111561110c573373ffffffffffffffffffffffffffffffffffffffff166108fc839081150290604051600060405180830381858888f19350505050151561110b57600080fd5b5b505050505050565b60008060009054906101000a900473ffffffffffffffffffffffffffffffffffffffff1673ffffffffffffffffffffffffffffffffffffffff163373ffffffffffffffffffffffffffffffffffffffff1614151561117157600080fd5b600180600381111561117f57fe5b600460009054906101000a900460ff16600381111561119a57fe5b1415156111a657600080fd5b6111b06001612011565b91506111ba61215b565b600381905550600082111561120a573373ffffffffffffffffffffffffffffffffffffffff166108fc839081150290604051600060405180830381858888f19350505050151561120957600080fd5b5b5050565b600e8181548110151561121d57fe5b90600052602060002090016000915054906101000a900473ffffffffffffffffffffffffffffffffffffffff1681565b60008060009054906101000a900473ffffffffffffffffffffffffffffffffffffffff1673ffffffffffffffffffffffffffffffffffffffff163373ffffffffffffffffffffffffffffffffffffffff161415156112aa57600080fd5b60008060038111156112b857fe5b600460009054906101000a900460ff1660038111156112d357fe5b1415156112df57600080fd5b60a06040519081016040528087878080601f01602080910402602001604051908101604052809392919081815260200183838082843782019150505050505081526020018481526020018560001916815260200189898080601f0160208091040260200160405190810160405280939291908181526020018383808284378201915050505050508152602001600060405180591061137a5750595b9080825280602002602001820160405280156113b057816020015b61139d612679565b8152602001906001900390816113955790505b50815250600560008201518160000190805190602001906113d292919061254d565b506020820151816001015560408201518160020190600019169055606082015181600301908051906020019061140992919061254d565b50608082015181600401908051906020019061142692919061268d565b509050506114928c8c808060200260200160405190810160405280939291908181526020018383602002808284378201915050505050508b8b80806020026020016040519081016040528093929190818152602001838360200280828437820191505050505050612165565b600f819055503073ffffffffffffffffffffffffffffffffffffffff16319150600f5482101515156114c357600080fd5b6001600460006101000a81548160ff021916908360038111156114e257fe5b02179055506114ef61215b565b600381905550505050505050505050505050565b600b6020528060005260406000206000915054906101000a900460ff1681565b8060118190555050565b600080600381111561153b57fe5b600460009054906101000a900460ff16600381111561155657fe5b14905090565b60035481565b600a8181548110151561157157fe5b90600052602060002090600302016000915090508060000160009054906101000a900473ffffffffffffffffffffffffffffffffffffffff169080600101908060020154905083565b6000600a80549050905090565b6000806000806000806000806115db612433565b965060009550600094505b600e805490508510156116ba57600d6000600e8781548110151561160657fe5b906000526020600020900160009054906101000a900473ffffffffffffffffffffffffffffffffffffffff1673ffffffffffffffffffffffffffffffffffffffff1673ffffffffffffffffffffffffffffffffffffffff1681526020019081526020016000209350670de0b6b3a764000061168585600201548961249f565b81151561168e57fe5b04925061169f846003015484611ff3565b91506116ab8683611ff3565b955084806001019550506115e6565b6116c686600f54611ff3565b95503073ffffffffffffffffffffffffffffffffffffffff1631905085811015156116f457600097506116fa565b80860397505b5050505050505090565b600f5481565b60008060009054906101000a900473ffffffffffffffffffffffffffffffffffffffff16905090565b670de0b6b3a764000081565b6000809054906101000a900473ffffffffffffffffffffffffffffffffffffffff1681565b600160009054906101000a900473ffffffffffffffffffffffffffffffffffffffff1681565b610e1081565b60025481565b600460009054906101000a900460ff1681565b6000806000806117b833610f17565b15156117c357600080fd5b6117cb61215b565b9350600d60003373ffffffffffffffffffffffffffffffffffffffff1673ffffffffffffffffffffffffffffffffffffffff16815260200190815260200160002092508383600401819055506001600381111561182457fe5b600460009054906101000a900460ff16600381111561183f57fe5b14156118ae57611851846003546124d2565b91506002548211156118ad576002600460006101000a81548160ff0219169083600381111561187c57fe5b02179055507eea067c7113f3002f0fc5fa11a22f4b7d7c84b63d99d4871ba53c077afc8da560405160405180910390a15b5b82600301549050600081111561190957600083600301819055503373ffffffffffffffffffffffffffffffffffffffff166108fc829081150290604051600060405180830381858888f19350505050151561190857600080fd5b5b50505050565b60008060009054906101000a900473ffffffffffffffffffffffffffffffffffffffff1673ffffffffffffffffffffffffffffffffffffffff163373ffffffffffffffffffffffffffffffffffffffff1614151561196c57600080fd5b600180600381111561197a57fe5b600460009054906101000a900460ff16600381111561199557fe5b1415156119a157600080fd5b6000600160009054906101000a900473ffffffffffffffffffffffffffffffffffffffff1673ffffffffffffffffffffffffffffffffffffffff161415156119e857600080fd5b8291506119f361170a565b73ffffffffffffffffffffffffffffffffffffffff168273ffffffffffffffffffffffffffffffffffffffff1663893d20e86000604051602001526040518163ffffffff167c0100000000000000000000000000000000000000000000000000000000028152600401602060405180830381600087803b1515611a7557600080fd5b6102c65a03f11515611a8657600080fd5b5050506040518051905073ffffffffffffffffffffffffffffffffffffffff16141515611ab257600080fd5b611aba610c5a565b8273ffffffffffffffffffffffffffffffffffffffff16630d8e6e2c6000604051602001526040518163ffffffff167c0100000000000000000000000000000000000000000000000000000000028152600401602060405180830381600087803b1515611b2657600080fd5b6102c65a03f11515611b3757600080fd5b5050506040518051905010151515611b4e57600080fd5b8173ffffffffffffffffffffffffffffffffffffffff1663760a44406000604051602001526040518163ffffffff167c0100000000000000000000000000000000000000000000000000000000028152600401602060405180830381600087803b1515611bba57600080fd5b6102c65a03f11515611bcb57600080fd5b505050604051805190501515611be057600080fd5b82600160006101000a81548173ffffffffffffffffffffffffffffffffffffffff021916908373ffffffffffffffffffffffffffffffffffffffff1602179055507fd517b3f28983d7964c0ca51f29522226735af584b0a113f040f8a8b10686873b83604051808273ffffffffffffffffffffffffffffffffffffffff1673ffffffffffffffffffffffffffffffffffffffff16815260200191505060405180910390a1505050565b600d60205280600052604060002060009150905080600001908060010154908060020154908060030154908060040154908060050160009054906101000a900460ff16905086565b6000806000806000809350600092505b8551831015611d40578583815181101515611cf857fe5b906020019060200201519150600a82815481101515611d1357fe5b90600052602060002090600302019050611d31848260020154611ff3565b93508280600101935050611ce1565b83945050505050919050565b8060106000828254019250508190555050565b611d676126ed565b600560040182815481101515611d7957fe5b90600052602060002090018054600181600116156101000203166002900480601f016020809104026020016040519081016040528092919081815260200182805460018160011615610100020316600290048015611e185780601f10611ded57610100808354040283529160200191611e18565b820191906000526020600020905b815481529060010190602001808311611dfb57829003601f168201915b50505050509050919050565b6000600e80549050905090565b6005806000019080600101549080600201549080600301905084565b60008060009054906101000a900473ffffffffffffffffffffffffffffffffffffffff1673ffffffffffffffffffffffffffffffffffffffff163373ffffffffffffffffffffffffffffffffffffffff16141515611eaa57600080fd5b60006001816003811115611eba57fe5b600460009054906101000a900460ff166003811115611ed557fe5b1480611f055750806003811115611ee857fe5b600460009054906101000a900460ff166003811115611f0357fe5b145b1515611f1057600080fd5b6000925060016003811115611f2157fe5b600460009054906101000a900460ff166003811115611f3c57fe5b1415611f4f57611f4c6000612011565b92505b6003600460006101000a81548160ff02191690836003811115611f6e57fe5b02179055507f63b958841f79ab97cb5456da181454b9932c0e15a3b17f1cbd27e2a8bc61043760405160405180910390a16000831115611fe9573373ffffffffffffffffffffffffffffffffffffffff166108fc849081150290604051600060405180830381858888f193505050501515611fe857600080fd5b5b505050565b600181565b600080828401905083811015151561200757fe5b8091505092915050565b6000806000806000806000612024612433565b955060009450600093505b600e8054905084101561210d57600d6000600e8681548110151561204f57fe5b906000526020600020900160009054906101000a900473ffffffffffffffffffffffffffffffffffffffff1673ffffffffffffffffffffffffffffffffffffffff1673ffffffffffffffffffffffffffffffffffffffff1681526020019081526020016000209250670de0b6b3a76400006120ce84600201548861249f565b8115156120d757fe5b0491506120e8836003015483611ff3565b83600301819055506120fe858460030154611ff3565b9450838060010194505061202f565b87156121225761211f85600f54611ff3565b94505b3073ffffffffffffffffffffffffffffffffffffffff1631905084811015151561214b57600080fd5b8481039650505050505050919050565b6000601054905090565b60008060008060008061217661215b565b945060009350600092505b875183101561242557878381518110151561219857fe5b906020019060200201519150600a828154811015156121b357fe5b9060005260206000209060030201905060c060405190810160405280826001018054600181600116156101000203166002900480601f0160208091040260200160405190810160405280929190818152602001828054600181600116156101000203166002900480156122675780601f1061223c57610100808354040283529160200191612267565b820191906000526020600020905b81548152906001019060200180831161224a57829003601f168201915b50505050508152602001888581518110151561227f57fe5b90602001906020020151600019168152602001826002015481526020016000815260200186815260200160001515815250600d60008360000160009054906101000a900473ffffffffffffffffffffffffffffffffffffffff1673ffffffffffffffffffffffffffffffffffffffff1673ffffffffffffffffffffffffffffffffffffffff168152602001908152602001600020600082015181600001908051906020019061232f92919061254d565b506020820151816001019060001916905560408201518160020155606082015181600301556080820151816004015560a08201518160050160006101000a81548160ff021916908315150217905550905050600e80548060010182816123959190612701565b916000526020600020900160008360000160009054906101000a900473ffffffffffffffffffffffffffffffffffffffff16909190916101000a81548173ffffffffffffffffffffffffffffffffffffffff021916908373ffffffffffffffffffffffffffffffffffffffff16021790555050612416848260020154611ff3565b93508280600101935050612181565b839550505050505092915050565b60008061244961244161215b565b6003546124d2565b9050600254811115151561245c57600080fd5b612468816102586124eb565b905060025481111561247a5760025490505b60025461248f670de0b6b3a76400008361249f565b81151561249857fe5b0491505090565b600080828402905060008414806124c057508284828115156124bd57fe5b04145b15156124c857fe5b8091505092915050565b60008282111515156124e057fe5b818303905092915050565b6000808314156124fe5760009050612515565b81826001850381151561250d57fe5b046001010290505b92915050565b81548183558181151161254857600302816003028360005260206000209182019101612547919061272d565b5b505050565b828054600181600116156101000203166002900490600052602060002090601f016020900481019282601f1061258e57805160ff19168380011785556125bc565b828001600101855582156125bc579182015b828111156125bb5782518255916020019190600101906125a0565b5b5090506125c9919061278b565b5090565b8154818355818115116125f4578183600052602060002091820191016125f391906127b0565b5b505050565b828054600181600116156101000203166002900490600052602060002090601f016020900481019282601f1061263a57803560ff1916838001178555612668565b82800160010185558215612668579182015b8281111561266757823582559160200191906001019061264c565b5b509050612675919061278b565b5090565b602060405190810160405280600081525090565b8280548282559060005260206000209081019282156126dc579160200282015b828111156126db5782518290805190602001906126cb92919061254d565b50916020019190600101906126ad565b5b5090506126e991906127b0565b5090565b602060405190810160405280600081525090565b81548183558181151161272857818360005260206000209182019101612727919061278b565b5b505050565b61278891905b8082111561278457600080820160006101000a81549073ffffffffffffffffffffffffffffffffffffffff021916905560018201600061277391906127dc565b600282016000905550600301612733565b5090565b90565b6127ad91905b808211156127a9576000816000905550600101612791565b5090565b90565b6127d991905b808211156127d557600081816127cc91906127dc565b506001016127b6565b5090565b90565b50805460018160011615610100020316600290046000825580601f106128025750612821565b601f016020900490600052602060002090810190612820919061278b565b5b505600a165627a7a72305820efa520446de9602fe302ba0ea3888a11f0c502377b01155489f071e6cb75b5f50029",
  "source": "pragma solidity 0.4.18;\n\nimport \"./CryptoLegacy.sol\";\n\ncontract CryptoLegacyDebug is CryptoLegacy {\n\n  function CryptoLegacyDebug(uint _checkInInterval) CryptoLegacy(_checkInInterval) public {\n    // nop\n  }\n\n  // Time\n\n  uint private debugTimestamp = 42;\n\n  function increaseTimeBy(uint sec) external {\n    debugTimestamp += sec;\n  }\n\n  function getBlockTimestamp() internal view returns (uint) {\n    return debugTimestamp;\n  }\n\n  // Version\n\n  uint private debugVersion;\n\n  function getVersion() public view returns (uint) {\n    if (debugVersion == 0) {\n      return VERSION;\n    } else {\n      return debugVersion;\n    }\n  }\n\n  function setVersion(uint newVersion) external {\n    debugVersion = newVersion;\n  }\n\n}\n",
  "sourcePath": "/Users/sam/dev/projects/crypto-legacy/crypto-legacy/truffle/contracts/CryptoLegacyDebug.sol",
  "compiler": {
    "name": "solc",
    "version": "0.4.18+commit.9cf6e910.Emscripten.clang"
  },
  "schemaVersion": "1.0.1",
  "updatedAt": "2017-12-12T17:41:05.462Z"
}