{
  "contractName": "CryptoLegacy",
  "abi": [
    {
      "constant": true,
      "inputs": [],
      "name": "getNumSuppliedKeyParts",
      "outputs": [
        {
          "name": "",
          "type": "uint256"
        }
      ],
      "payable": false,
      "stateMutability": "view",
      "type": "function"
    },
    {
      "constant": true,
      "inputs": [
        {
          "name": "addr",
          "type": "address"
        }
      ],
      "name": "didSendProposal",
      "outputs": [
        {
          "name": "",
          "type": "bool"
        }
      ],
      "payable": false,
      "stateMutability": "view",
      "type": "function"
    },
    {
      "constant": true,
      "inputs": [],
      "name": "getVersion",
      "outputs": [
        {
          "name": "",
          "type": "uint256"
        }
      ],
      "payable": false,
      "stateMutability": "view",
      "type": "function"
    },
    {
      "constant": false,
      "inputs": [
        {
          "name": "publicKey",
          "type": "bytes"
        },
        {
          "name": "keepingFee",
          "type": "uint256"
        }
      ],
      "name": "submitKeeperProposal",
      "outputs": [],
      "payable": false,
      "stateMutability": "nonpayable",
      "type": "function"
    },
    {
      "constant": true,
      "inputs": [
        {
          "name": "addr",
          "type": "address"
        }
      ],
      "name": "isActiveKeeper",
      "outputs": [
        {
          "name": "",
          "type": "bool"
        }
      ],
      "payable": false,
      "stateMutability": "view",
      "type": "function"
    },
    {
      "constant": false,
      "inputs": [
        {
          "name": "keyPart",
          "type": "bytes"
        }
      ],
      "name": "supplyKey",
      "outputs": [],
      "payable": false,
      "stateMutability": "nonpayable",
      "type": "function"
    },
    {
      "constant": false,
      "inputs": [],
      "name": "ownerCheckIn",
      "outputs": [],
      "payable": true,
      "stateMutability": "payable",
      "type": "function"
    },
    {
      "constant": true,
      "inputs": [
        {
          "name": "",
          "type": "uint256"
        }
      ],
      "name": "activeKeepersAddresses",
      "outputs": [
        {
          "name": "",
          "type": "address"
        }
      ],
      "payable": false,
      "stateMutability": "view",
      "type": "function"
    },
    {
      "constant": false,
      "inputs": [
        {
          "name": "selectedProposalIndices",
          "type": "uint256[]"
        },
        {
          "name": "keyPartHashes",
          "type": "bytes32[]"
        },
        {
          "name": "encryptedKeyParts",
          "type": "bytes"
        },
        {
          "name": "_encryptedData",
          "type": "bytes"
        },
        {
          "name": "dataHash",
          "type": "bytes32"
        },
        {
          "name": "aesCounter",
          "type": "uint256"
        }
      ],
      "name": "acceptKeepers",
      "outputs": [],
      "payable": true,
      "stateMutability": "payable",
      "type": "function"
    },
    {
      "constant": true,
      "inputs": [
        {
          "name": "",
          "type": "address"
        }
      ],
      "name": "proposedKeeperFlags",
      "outputs": [
        {
          "name": "",
          "type": "bool"
        }
      ],
      "payable": false,
      "stateMutability": "view",
      "type": "function"
    },
    {
      "constant": true,
      "inputs": [],
      "name": "isAcceptingKeeperProposals",
      "outputs": [
        {
          "name": "",
          "type": "bool"
        }
      ],
      "payable": false,
      "stateMutability": "view",
      "type": "function"
    },
    {
      "constant": true,
      "inputs": [],
      "name": "lastOwnerCheckInAt",
      "outputs": [
        {
          "name": "",
          "type": "uint256"
        }
      ],
      "payable": false,
      "stateMutability": "view",
      "type": "function"
    },
    {
      "constant": true,
      "inputs": [
        {
          "name": "",
          "type": "uint256"
        }
      ],
      "name": "keeperProposals",
      "outputs": [
        {
          "name": "keeperAddress",
          "type": "address"
        },
        {
          "name": "publicKey",
          "type": "bytes"
        },
        {
          "name": "keepingFee",
          "type": "uint256"
        }
      ],
      "payable": false,
      "stateMutability": "view",
      "type": "function"
    },
    {
      "constant": true,
      "inputs": [],
      "name": "getNumProposals",
      "outputs": [
        {
          "name": "",
          "type": "uint256"
        }
      ],
      "payable": false,
      "stateMutability": "view",
      "type": "function"
    },
    {
      "constant": true,
      "inputs": [],
      "name": "calculateApproximateCheckInPrice",
      "outputs": [
        {
          "name": "",
          "type": "uint256"
        }
      ],
      "payable": false,
      "stateMutability": "view",
      "type": "function"
    },
    {
      "constant": true,
      "inputs": [],
      "name": "totalKeepingFee",
      "outputs": [
        {
          "name": "",
          "type": "uint256"
        }
      ],
      "payable": false,
      "stateMutability": "view",
      "type": "function"
    },
    {
      "constant": true,
      "inputs": [],
      "name": "getOwner",
      "outputs": [
        {
          "name": "",
          "type": "address"
        }
      ],
      "payable": false,
      "stateMutability": "view",
      "type": "function"
    },
    {
      "constant": true,
      "inputs": [],
      "name": "KEEPING_FEE_ROUNDING_MULT",
      "outputs": [
        {
          "name": "",
          "type": "uint256"
        }
      ],
      "payable": false,
      "stateMutability": "view",
      "type": "function"
    },
    {
      "constant": true,
      "inputs": [],
      "name": "owner",
      "outputs": [
        {
          "name": "",
          "type": "address"
        }
      ],
      "payable": false,
      "stateMutability": "view",
      "type": "function"
    },
    {
      "constant": true,
      "inputs": [],
      "name": "continuationContractAddress",
      "outputs": [
        {
          "name": "",
          "type": "address"
        }
      ],
      "payable": false,
      "stateMutability": "view",
      "type": "function"
    },
    {
      "constant": true,
      "inputs": [],
      "name": "MINIMUM_CHECK_IN_INTERVAL",
      "outputs": [
        {
          "name": "",
          "type": "uint256"
        }
      ],
      "payable": false,
      "stateMutability": "view",
      "type": "function"
    },
    {
      "constant": true,
      "inputs": [],
      "name": "checkInInterval",
      "outputs": [
        {
          "name": "",
          "type": "uint256"
        }
      ],
      "payable": false,
      "stateMutability": "view",
      "type": "function"
    },
    {
      "constant": true,
      "inputs": [],
      "name": "state",
      "outputs": [
        {
          "name": "",
          "type": "uint8"
        }
      ],
      "payable": false,
      "stateMutability": "view",
      "type": "function"
    },
    {
      "constant": false,
      "inputs": [],
      "name": "keeperCheckIn",
      "outputs": [],
      "payable": false,
      "stateMutability": "nonpayable",
      "type": "function"
    },
    {
      "constant": false,
      "inputs": [
        {
          "name": "_continuationContractAddress",
          "type": "address"
        }
      ],
      "name": "announceContinuationContract",
      "outputs": [],
      "payable": false,
      "stateMutability": "nonpayable",
      "type": "function"
    },
    {
      "constant": true,
      "inputs": [
        {
          "name": "",
          "type": "address"
        }
      ],
      "name": "activeKeepers",
      "outputs": [
        {
          "name": "publicKey",
          "type": "bytes"
        },
        {
          "name": "keyPartHash",
          "type": "bytes32"
        },
        {
          "name": "keepingFee",
          "type": "uint256"
        },
        {
          "name": "balance",
          "type": "uint256"
        },
        {
          "name": "lastCheckInAt",
          "type": "uint256"
        },
        {
          "name": "keyPartSupplied",
          "type": "bool"
        }
      ],
      "payable": false,
      "stateMutability": "view",
      "type": "function"
    },
    {
      "constant": true,
      "inputs": [
        {
          "name": "selectedProposalIndices",
          "type": "uint256[]"
        }
      ],
      "name": "calculateActivationPrice",
      "outputs": [
        {
          "name": "",
          "type": "uint256"
        }
      ],
      "payable": false,
      "stateMutability": "view",
      "type": "function"
    },
    {
      "constant": true,
      "inputs": [
        {
          "name": "index",
          "type": "uint256"
        }
      ],
      "name": "getSuppliedKeyPart",
      "outputs": [
        {
          "name": "",
          "type": "bytes"
        }
      ],
      "payable": false,
      "stateMutability": "view",
      "type": "function"
    },
    {
      "constant": true,
      "inputs": [],
      "name": "getNumKeepers",
      "outputs": [
        {
          "name": "",
          "type": "uint256"
        }
      ],
      "payable": false,
      "stateMutability": "view",
      "type": "function"
    },
    {
      "constant": true,
      "inputs": [],
      "name": "encryptedData",
      "outputs": [
        {
          "name": "encryptedData",
          "type": "bytes"
        },
        {
          "name": "aesCounter",
          "type": "uint256"
        },
        {
          "name": "dataHash",
          "type": "bytes32"
        },
        {
          "name": "encryptedKeyParts",
          "type": "bytes"
        }
      ],
      "payable": false,
      "stateMutability": "view",
      "type": "function"
    },
    {
      "constant": false,
      "inputs": [],
      "name": "cancel",
      "outputs": [],
      "payable": true,
      "stateMutability": "payable",
      "type": "function"
    },
    {
      "constant": true,
      "inputs": [],
      "name": "VERSION",
      "outputs": [
        {
          "name": "",
          "type": "uint256"
        }
      ],
      "payable": false,
      "stateMutability": "view",
      "type": "function"
    },
    {
      "inputs": [
        {
          "name": "_checkInInterval",
          "type": "uint256"
        }
      ],
      "payable": false,
      "stateMutability": "nonpayable",
      "type": "constructor"
    },
    {
      "anonymous": false,
      "inputs": [],
      "name": "KeysNeeded",
      "type": "event"
    },
    {
      "anonymous": false,
      "inputs": [
        {
          "indexed": false,
          "name": "continuationContractAddress",
          "type": "address"
        }
      ],
      "name": "ContinuationContractAnnounced",
      "type": "event"
    },
    {
      "anonymous": false,
      "inputs": [],
      "name": "Cancelled",
      "type": "event"
    }
  ],
  "bytecode": "0x6060604052336000806101000a81548173ffffffffffffffffffffffffffffffffffffffff021916908373ffffffffffffffffffffffffffffffffffffffff1602179055506000600160006101000a81548173ffffffffffffffffffffffffffffffffffffffff021916908373ffffffffffffffffffffffffffffffffffffffff1602179055506000600460006101000a81548160ff021916908360038111156100a557fe5b021790555034156100b557600080fd5b6040516020806128b783398101604052808051906020019091905050603c81101515156100e157600080fd5b80600281905550506127bf806100f86000396000f300606060405260043610610196576000357c0100000000000000000000000000000000000000000000000000000000900463ffffffff16806304ed3e4e1461019b578063071f8601146101c45780630d8e6e2c1461021557806317995d7b1461023e5780632224768d14610275578063259c3aed146102c657806339dd4f6d146102f45780633afd601a146102fe5780633cc2798a146103615780633f135f86146103d6578063760a44401461042757806376eca21e14610454578063781970e61461047d578063798974dd146105705780637a54c1921461059957806387a083ca146105c2578063893d20e8146105eb5780638d594651146106405780638da5cb5b14610669578063a3521f13146106be578063ba4ff49814610713578063bfd25fa51461073c578063c19d93fb14610765578063c53c9bb61461079c578063cc1b3b9c146107b1578063cdd35b2d146107ea578063ce35d246146108e8578063d830d1e514610956578063d97cdcbc146109f2578063e9fc715a14610a1b578063ea8a1af014610b65578063ffa1ad7414610b6f575b600080fd5b34156101a657600080fd5b6101ae610b98565b6040518082815260200191505060405180910390f35b34156101cf57600080fd5b6101fb600480803573ffffffffffffffffffffffffffffffffffffffff16906020019091905050610ba8565b604051808215151515815260200191505060405180910390f35b341561022057600080fd5b610228610bfe565b6040518082815260200191505060405180910390f35b341561024957600080fd5b61027360048080359060200190820180359060200191909192908035906020019091905050610c07565b005b341561028057600080fd5b6102ac600480803573ffffffffffffffffffffffffffffffffffffffff16906020019091905050610ea6565b604051808215151515815260200191505060405180910390f35b34156102d157600080fd5b6102f260048080359060200190820180359060200191909192905050610ef4565b005b6102fc6110a3565b005b341561030957600080fd5b61031f600480803590602001909190505061119d565b604051808273ffffffffffffffffffffffffffffffffffffffff1673ffffffffffffffffffffffffffffffffffffffff16815260200191505060405180910390f35b6103d460048080359060200190820180359060200191909192908035906020019082018035906020019190919290803590602001908201803590602001919091929080359060200190820180359060200191909192908035600019169060200190919080359060200190919050506111dc565b005b34156103e157600080fd5b61040d600480803573ffffffffffffffffffffffffffffffffffffffff16906020019091905050611492565b604051808215151515815260200191505060405180910390f35b341561043257600080fd5b61043a6114b2565b604051808215151515815260200191505060405180910390f35b341561045f57600080fd5b6104676114e1565b6040518082815260200191505060405180910390f35b341561048857600080fd5b61049e60048080359060200190919050506114e7565b604051808473ffffffffffffffffffffffffffffffffffffffff1673ffffffffffffffffffffffffffffffffffffffff1681526020018060200183815260200182810382528481815460018160011615610100020316600290048152602001915080546001816001161561010002031660029004801561055f5780601f106105345761010080835404028352916020019161055f565b820191906000526020600020905b81548152906001019060200180831161054257829003601f168201915b505094505050505060405180910390f35b341561057b57600080fd5b61058361153f565b6040518082815260200191505060405180910390f35b34156105a457600080fd5b6105ac61154c565b6040518082815260200191505060405180910390f35b34156105cd57600080fd5b6105d5611689565b6040518082815260200191505060405180910390f35b34156105f657600080fd5b6105fe61168f565b604051808273ffffffffffffffffffffffffffffffffffffffff1673ffffffffffffffffffffffffffffffffffffffff16815260200191505060405180910390f35b341561064b57600080fd5b6106536116b8565b6040518082815260200191505060405180910390f35b341561067457600080fd5b61067c6116c4565b604051808273ffffffffffffffffffffffffffffffffffffffff1673ffffffffffffffffffffffffffffffffffffffff16815260200191505060405180910390f35b34156106c957600080fd5b6106d16116e9565b604051808273ffffffffffffffffffffffffffffffffffffffff1673ffffffffffffffffffffffffffffffffffffffff16815260200191505060405180910390f35b341561071e57600080fd5b61072661170f565b6040518082815260200191505060405180910390f35b341561074757600080fd5b61074f611714565b6040518082815260200191505060405180910390f35b341561077057600080fd5b61077861171a565b6040518082600381111561078857fe5b60ff16815260200191505060405180910390f35b34156107a757600080fd5b6107af61172d565b005b34156107bc57600080fd5b6107e8600480803573ffffffffffffffffffffffffffffffffffffffff16906020019091905050611893565b005b34156107f557600080fd5b610821600480803573ffffffffffffffffffffffffffffffffffffffff16906020019091905050611c0d565b60405180806020018760001916600019168152602001868152602001858152602001848152602001831515151581526020018281038252888181546001816001161561010002031660029004815260200191508054600181600116156101000203166002900480156108d45780601f106108a9576101008083540402835291602001916108d4565b820191906000526020600020905b8154815290600101906020018083116108b757829003601f168201915b505097505050505050505060405180910390f35b34156108f357600080fd5b610940600480803590602001908201803590602001908080602002602001604051908101604052809392919081815260200183836020028082843782019150505050505091905050611c55565b6040518082815260200191505060405180910390f35b341561096157600080fd5b6109776004808035906020019091905050611cd0565b6040518080602001828103825283818151815260200191508051906020019080838360005b838110156109b757808201518184015260208101905061099c565b50505050905090810190601f1680156109e45780820380516001836020036101000a031916815260200191505b509250505060405180910390f35b34156109fd57600080fd5b610a05611d95565b6040518082815260200191505060405180910390f35b3415610a2657600080fd5b610a2e611da2565b6040518080602001858152602001846000191660001916815260200180602001838103835287818154600181600116156101000203166002900481526020019150805460018160011615610100020316600290048015610acf5780601f10610aa457610100808354040283529160200191610acf565b820191906000526020600020905b815481529060010190602001808311610ab257829003601f168201915b5050838103825284818154600181600116156101000203166002900481526020019150805460018160011615610100020316600290048015610b525780601f10610b2757610100808354040283529160200191610b52565b820191906000526020600020905b815481529060010190602001808311610b3557829003601f168201915b5050965050505050505060405180910390f35b610b6d611dbe565b005b3415610b7a57600080fd5b610b82611f5f565b6040518082815260200191505060405180910390f35b6000600560040180549050905090565b6000600b60008373ffffffffffffffffffffffffffffffffffffffff1673ffffffffffffffffffffffffffffffffffffffff16815260200190815260200160002060009054906101000a900460ff169050919050565b60006001905090565b600080806003811115610c1657fe5b600460009054906101000a900460ff166003811115610c3157fe5b141515610c3d57600080fd5b6000809054906101000a900473ffffffffffffffffffffffffffffffffffffffff1673ffffffffffffffffffffffffffffffffffffffff163373ffffffffffffffffffffffffffffffffffffffff1614151515610c9957600080fd5b610ca233610ba8565b151515610cae57600080fd5b60808585905011151515610cc157600080fd5b84846040518083838082843782019150509250505060405180910390209150600c6000836000191660001916815260200190815260200160002060009054906101000a900460ff16151515610d1557600080fd5b600a8054806001018281610d29919061248a565b916000526020600020906003020160006060604051908101604052803373ffffffffffffffffffffffffffffffffffffffff16815260200189898080601f016020809104026020016040519081016040528093929190818152602001838380828437820191505050505050815260200187815250909190915060008201518160000160006101000a81548173ffffffffffffffffffffffffffffffffffffffff021916908373ffffffffffffffffffffffffffffffffffffffff1602179055506020820151816001019080519060200190610e059291906124bc565b50604082015181600201555050506001600b60003373ffffffffffffffffffffffffffffffffffffffff1673ffffffffffffffffffffffffffffffffffffffff16815260200190815260200160002060006101000a81548160ff0219169083151502179055506001600c6000846000191660001916815260200190815260200160002060006101000a81548160ff0219169083151502179055505050505050565b600080600d60008473ffffffffffffffffffffffffffffffffffffffff1673ffffffffffffffffffffffffffffffffffffffff16815260200190815260200160002060040154119050919050565b6000806000610f0233610ea6565b1515610f0d57600080fd5b6002806003811115610f1b57fe5b600460009054906101000a900460ff166003811115610f3657fe5b141515610f4257600080fd5b600d60003373ffffffffffffffffffffffffffffffffffffffff1673ffffffffffffffffffffffffffffffffffffffff16815260200190815260200160002093508360050160009054906101000a900460ff16151515610fa157600080fd5b858560405180838380828437820191505092505050604051809103902092508360010154600019168360001916141515610fda57600080fd5b60056004018054806001018281610ff1919061253c565b916000526020600020900160008888909192909192509190611014929190612568565b505060018460050160006101000a81548160ff02191690831515021790555061104584600301548560020154611f64565b915060008460030181905550600082111561109b573373ffffffffffffffffffffffffffffffffffffffff166108fc839081150290604051600060405180830381858888f19350505050151561109a57600080fd5b5b505050505050565b60008060009054906101000a900473ffffffffffffffffffffffffffffffffffffffff1673ffffffffffffffffffffffffffffffffffffffff163373ffffffffffffffffffffffffffffffffffffffff1614151561110057600080fd5b600180600381111561110e57fe5b600460009054906101000a900460ff16600381111561112957fe5b14151561113557600080fd5b61113f6001611f82565b91506111496120cc565b6003819055506000821115611199573373ffffffffffffffffffffffffffffffffffffffff166108fc839081150290604051600060405180830381858888f19350505050151561119857600080fd5b5b5050565b600e818154811015156111ac57fe5b90600052602060002090016000915054906101000a900473ffffffffffffffffffffffffffffffffffffffff1681565b60008060009054906101000a900473ffffffffffffffffffffffffffffffffffffffff1673ffffffffffffffffffffffffffffffffffffffff163373ffffffffffffffffffffffffffffffffffffffff1614151561123957600080fd5b600080600381111561124757fe5b600460009054906101000a900460ff16600381111561126257fe5b14151561126e57600080fd5b60a06040519081016040528087878080601f01602080910402602001604051908101604052809392919081815260200183838082843782019150505050505081526020018481526020018560001916815260200189898080601f016020809104026020016040519081016040528093929190818152602001838380828437820191505050505050815260200160006040518059106113095750595b90808252806020026020018201604052801561133f57816020015b61132c6125e8565b8152602001906001900390816113245790505b50815250600560008201518160000190805190602001906113619291906124bc565b50602082015181600101556040820151816002019060001916905560608201518160030190805190602001906113989291906124bc565b5060808201518160040190805190602001906113b59291906125fc565b509050506114218c8c808060200260200160405190810160405280939291908181526020018383602002808284378201915050505050508b8b808060200260200160405190810160405280939291908181526020018383602002808284378201915050505050506120d4565b600f819055503073ffffffffffffffffffffffffffffffffffffffff16319150600f54821015151561145257600080fd5b6001600460006101000a81548160ff0219169083600381111561147157fe5b021790555061147e6120cc565b600381905550505050505050505050505050565b600b6020528060005260406000206000915054906101000a900460ff1681565b60008060038111156114c057fe5b600460009054906101000a900460ff1660038111156114db57fe5b14905090565b60035481565b600a818154811015156114f657fe5b90600052602060002090600302016000915090508060000160009054906101000a900473ffffffffffffffffffffffffffffffffffffffff169080600101908060020154905083565b6000600a80549050905090565b6000806000806000806000806115606123a2565b965060009550600094505b600e8054905085101561163f57600d6000600e8781548110151561158b57fe5b906000526020600020900160009054906101000a900473ffffffffffffffffffffffffffffffffffffffff1673ffffffffffffffffffffffffffffffffffffffff1673ffffffffffffffffffffffffffffffffffffffff1681526020019081526020016000209350670de0b6b3a764000061160a85600201548961240e565b81151561161357fe5b049250611624846003015484611f64565b91506116308683611f64565b9550848060010195505061156b565b61164b86600f54611f64565b95503073ffffffffffffffffffffffffffffffffffffffff163190508581101515611679576000975061167f565b80860397505b5050505050505090565b600f5481565b60008060009054906101000a900473ffffffffffffffffffffffffffffffffffffffff16905090565b670de0b6b3a764000081565b6000809054906101000a900473ffffffffffffffffffffffffffffffffffffffff1681565b600160009054906101000a900473ffffffffffffffffffffffffffffffffffffffff1681565b603c81565b60025481565b600460009054906101000a900460ff1681565b60008060008061173c33610ea6565b151561174757600080fd5b61174f6120cc565b9350600d60003373ffffffffffffffffffffffffffffffffffffffff1673ffffffffffffffffffffffffffffffffffffffff1681526020019081526020016000209250838360040181905550600160038111156117a857fe5b600460009054906101000a900460ff1660038111156117c357fe5b1415611832576117d584600354612441565b9150600254821115611831576002600460006101000a81548160ff0219169083600381111561180057fe5b02179055507eea067c7113f3002f0fc5fa11a22f4b7d7c84b63d99d4871ba53c077afc8da560405160405180910390a15b5b82600301549050600081111561188d57600083600301819055503373ffffffffffffffffffffffffffffffffffffffff166108fc829081150290604051600060405180830381858888f19350505050151561188c57600080fd5b5b50505050565b60008060009054906101000a900473ffffffffffffffffffffffffffffffffffffffff1673ffffffffffffffffffffffffffffffffffffffff163373ffffffffffffffffffffffffffffffffffffffff161415156118f057600080fd5b60018060038111156118fe57fe5b600460009054906101000a900460ff16600381111561191957fe5b14151561192557600080fd5b6000600160009054906101000a900473ffffffffffffffffffffffffffffffffffffffff1673ffffffffffffffffffffffffffffffffffffffff1614151561196c57600080fd5b82915061197761168f565b73ffffffffffffffffffffffffffffffffffffffff168273ffffffffffffffffffffffffffffffffffffffff1663893d20e86000604051602001526040518163ffffffff167c0100000000000000000000000000000000000000000000000000000000028152600401602060405180830381600087803b15156119f957600080fd5b6102c65a03f11515611a0a57600080fd5b5050506040518051905073ffffffffffffffffffffffffffffffffffffffff16141515611a3657600080fd5b611a3e610bfe565b8273ffffffffffffffffffffffffffffffffffffffff16630d8e6e2c6000604051602001526040518163ffffffff167c0100000000000000000000000000000000000000000000000000000000028152600401602060405180830381600087803b1515611aaa57600080fd5b6102c65a03f11515611abb57600080fd5b5050506040518051905010151515611ad257600080fd5b8173ffffffffffffffffffffffffffffffffffffffff1663760a44406000604051602001526040518163ffffffff167c0100000000000000000000000000000000000000000000000000000000028152600401602060405180830381600087803b1515611b3e57600080fd5b6102c65a03f11515611b4f57600080fd5b505050604051805190501515611b6457600080fd5b82600160006101000a81548173ffffffffffffffffffffffffffffffffffffffff021916908373ffffffffffffffffffffffffffffffffffffffff1602179055507fd517b3f28983d7964c0ca51f29522226735af584b0a113f040f8a8b10686873b83604051808273ffffffffffffffffffffffffffffffffffffffff1673ffffffffffffffffffffffffffffffffffffffff16815260200191505060405180910390a1505050565b600d60205280600052604060002060009150905080600001908060010154908060020154908060030154908060040154908060050160009054906101000a900460ff16905086565b6000806000806000809350600092505b8551831015611cc4578583815181101515611c7c57fe5b906020019060200201519150600a82815481101515611c9757fe5b90600052602060002090600302019050611cb5848260020154611f64565b93508280600101935050611c65565b83945050505050919050565b611cd861265c565b600560040182815481101515611cea57fe5b90600052602060002090018054600181600116156101000203166002900480601f016020809104026020016040519081016040528092919081815260200182805460018160011615610100020316600290048015611d895780601f10611d5e57610100808354040283529160200191611d89565b820191906000526020600020905b815481529060010190602001808311611d6c57829003601f168201915b50505050509050919050565b6000600e80549050905090565b6005806000019080600101549080600201549080600301905084565b60008060009054906101000a900473ffffffffffffffffffffffffffffffffffffffff1673ffffffffffffffffffffffffffffffffffffffff163373ffffffffffffffffffffffffffffffffffffffff16141515611e1b57600080fd5b60006001816003811115611e2b57fe5b600460009054906101000a900460ff166003811115611e4657fe5b1480611e765750806003811115611e5957fe5b600460009054906101000a900460ff166003811115611e7457fe5b145b1515611e8157600080fd5b6000925060016003811115611e9257fe5b600460009054906101000a900460ff166003811115611ead57fe5b1415611ec057611ebd6000611f82565b92505b6003600460006101000a81548160ff02191690836003811115611edf57fe5b02179055507f63b958841f79ab97cb5456da181454b9932c0e15a3b17f1cbd27e2a8bc61043760405160405180910390a16000831115611f5a573373ffffffffffffffffffffffffffffffffffffffff166108fc849081150290604051600060405180830381858888f193505050501515611f5957600080fd5b5b505050565b600181565b6000808284019050838110151515611f7857fe5b8091505092915050565b6000806000806000806000611f956123a2565b955060009450600093505b600e8054905084101561207e57600d6000600e86815481101515611fc057fe5b906000526020600020900160009054906101000a900473ffffffffffffffffffffffffffffffffffffffff1673ffffffffffffffffffffffffffffffffffffffff1673ffffffffffffffffffffffffffffffffffffffff1681526020019081526020016000209250670de0b6b3a764000061203f84600201548861240e565b81151561204857fe5b049150612059836003015483611f64565b836003018190555061206f858460030154611f64565b94508380600101945050611fa0565b87156120935761209085600f54611f64565b94505b3073ffffffffffffffffffffffffffffffffffffffff163190508481101515156120bc57600080fd5b8481039650505050505050919050565b600042905090565b6000806000806000806120e56120cc565b945060009350600092505b875183101561239457878381518110151561210757fe5b906020019060200201519150600a8281548110151561212257fe5b9060005260206000209060030201905060c060405190810160405280826001018054600181600116156101000203166002900480601f0160208091040260200160405190810160405280929190818152602001828054600181600116156101000203166002900480156121d65780601f106121ab576101008083540402835291602001916121d6565b820191906000526020600020905b8154815290600101906020018083116121b957829003601f168201915b5050505050815260200188858151811015156121ee57fe5b90602001906020020151600019168152602001826002015481526020016000815260200186815260200160001515815250600d60008360000160009054906101000a900473ffffffffffffffffffffffffffffffffffffffff1673ffffffffffffffffffffffffffffffffffffffff1673ffffffffffffffffffffffffffffffffffffffff168152602001908152602001600020600082015181600001908051906020019061229e9291906124bc565b506020820151816001019060001916905560408201518160020155606082015181600301556080820151816004015560a08201518160050160006101000a81548160ff021916908315150217905550905050600e80548060010182816123049190612670565b916000526020600020900160008360000160009054906101000a900473ffffffffffffffffffffffffffffffffffffffff16909190916101000a81548173ffffffffffffffffffffffffffffffffffffffff021916908373ffffffffffffffffffffffffffffffffffffffff16021790555050612385848260020154611f64565b935082806001019350506120f0565b839550505050505092915050565b6000806123b86123b06120cc565b600354612441565b905060025481111515156123cb57600080fd5b6123d78161025861245a565b90506002548111156123e95760025490505b6002546123fe670de0b6b3a76400008361240e565b81151561240757fe5b0491505090565b6000808284029050600084148061242f575082848281151561242c57fe5b04145b151561243757fe5b8091505092915050565b600082821115151561244f57fe5b818303905092915050565b60008083141561246d5760009050612484565b81826001850381151561247c57fe5b046001010290505b92915050565b8154818355818115116124b7576003028160030283600052602060002091820191016124b6919061269c565b5b505050565b828054600181600116156101000203166002900490600052602060002090601f016020900481019282601f106124fd57805160ff191683800117855561252b565b8280016001018555821561252b579182015b8281111561252a57825182559160200191906001019061250f565b5b50905061253891906126fa565b5090565b81548183558181151161256357818360005260206000209182019101612562919061271f565b5b505050565b828054600181600116156101000203166002900490600052602060002090601f016020900481019282601f106125a957803560ff19168380011785556125d7565b828001600101855582156125d7579182015b828111156125d65782358255916020019190600101906125bb565b5b5090506125e491906126fa565b5090565b602060405190810160405280600081525090565b82805482825590600052602060002090810192821561264b579160200282015b8281111561264a57825182908051906020019061263a9291906124bc565b509160200191906001019061261c565b5b509050612658919061271f565b5090565b602060405190810160405280600081525090565b8154818355818115116126975781836000526020600020918201910161269691906126fa565b5b505050565b6126f791905b808211156126f357600080820160006101000a81549073ffffffffffffffffffffffffffffffffffffffff02191690556001820160006126e2919061274b565b6002820160009055506003016126a2565b5090565b90565b61271c91905b80821115612718576000816000905550600101612700565b5090565b90565b61274891905b80821115612744576000818161273b919061274b565b50600101612725565b5090565b90565b50805460018160011615610100020316600290046000825580601f106127715750612790565b601f01602090049060005260206000209081019061278f91906126fa565b5b505600a165627a7a72305820fa4165bf59509129b2678d5125815a1ee45ba5ff9d4d13a18c2c037530e9d9950029",
  "source": "pragma solidity 0.4.18;\n\nimport \"./SafeMath.sol\";\n\ninterface CryptoLegacyBaseAPI {\n  function getVersion() public view returns (uint);\n  function getOwner() public view returns (address);\n  function isAcceptingKeeperProposals() public view returns (bool);\n}\n\ncontract CryptoLegacy is CryptoLegacyBaseAPI {\n\n  // Version of the contract API.\n  uint public constant VERSION = 1;\n\n  event KeysNeeded();\n  event ContinuationContractAnnounced(address continuationContractAddress);\n  event Cancelled();\n\n  enum States {\n    CallForKeepers,\n    Active,\n    CallForKeys,\n    Cancelled\n  }\n\n  modifier atState(States _state) {\n    require(state == _state);\n    _;\n  }\n\n  modifier atEitherOfStates(States state1, States state2) {\n    require(state == state1 || state == state2);\n    _;\n  }\n\n  modifier ownerOnly() {\n    require(msg.sender == owner);\n    _;\n  }\n\n  modifier activeKeepersOnly() {\n    require(isActiveKeeper(msg.sender));\n    _;\n  }\n\n  struct KeeperProposal {\n    address keeperAddress;\n    bytes publicKey; // 64-byte\n    uint keepingFee;\n  }\n\n  struct ActiveKeeper {\n    bytes publicKey; // 64-byte\n    bytes32 keyPartHash; // sha-3 hash\n    uint keepingFee;\n    uint balance;\n    uint lastCheckInAt;\n    bool keyPartSupplied;\n  }\n\n  struct EncryptedData {\n    bytes encryptedData;\n    uint aesCounter;\n    bytes32 dataHash; // sha-3 hash\n    bytes encryptedKeyParts; // packed array of key parts\n    bytes[] suppliedKeyParts;\n  }\n\n  address public owner = msg.sender;\n\n  // When owner wants to elect new Keepers, she cancels the contract and starts a new one.\n  // This variable contains the address of the new continuation contract.\n  address public continuationContractAddress = 0;\n\n  uint public checkInInterval;\n  uint public lastOwnerCheckInAt;\n\n  States public state = States.CallForKeepers;\n\n  EncryptedData public encryptedData;\n\n  KeeperProposal[] public keeperProposals;\n  mapping(address => bool) public proposedKeeperFlags;\n  mapping(bytes32 => bool) private proposedPublicKeyHashes;\n\n  mapping(address => ActiveKeeper) public activeKeepers;\n  address[] public activeKeepersAddresses;\n\n  // Sum of keeping fees of all active Keepers.\n  uint public totalKeepingFee;\n\n  // We need this because current version of Solidity doesn't support non-integer numbers.\n  // We set it to be equal to number of wei in eth to make sure we transfer keeping fee with\n  // enough precision.\n  uint public constant KEEPING_FEE_ROUNDING_MULT = 1 ether;\n\n  // Don't allow owner to specify check-in interval less than this when creating a new contract.\n  uint public constant MINIMUM_CHECK_IN_INTERVAL = 1 minutes;\n\n\n  // Called by the person who possesses the data they wish to transfer.\n  // This person becomes the owner of the contract.\n  //\n  function CryptoLegacy(uint _checkInInterval) public {\n    require(_checkInInterval >= MINIMUM_CHECK_IN_INTERVAL);\n    checkInInterval = _checkInInterval;\n  }\n\n\n  function getVersion() public view returns (uint) {\n    return VERSION;\n  }\n\n\n  function getOwner() public view returns (address) {\n    return owner;\n  }\n\n\n  function isAcceptingKeeperProposals() public view returns (bool) {\n    return state == States.CallForKeepers;\n  }\n\n\n  function getNumProposals() external view returns (uint) {\n    return keeperProposals.length;\n  }\n\n\n  function getNumKeepers() external view returns (uint) {\n    return activeKeepersAddresses.length;\n  }\n\n\n  function getNumSuppliedKeyParts() external view returns (uint) {\n    return encryptedData.suppliedKeyParts.length;\n  }\n\n\n  function getSuppliedKeyPart(uint index) external view returns (bytes) {\n    return encryptedData.suppliedKeyParts[index];\n  }\n\n  function isActiveKeeper(address addr) public view returns (bool) {\n    return activeKeepers[addr].lastCheckInAt > 0;\n  }\n\n  function didSendProposal(address addr) public view returns (bool) {\n    return proposedKeeperFlags[addr];\n  }\n\n\n  // Called by a Keeper to submit their proposal.\n  //\n  function submitKeeperProposal(bytes publicKey, uint keepingFee) external\n    atState(States.CallForKeepers)\n  {\n    require(msg.sender != owner);\n    require(!didSendProposal(msg.sender));\n    require(publicKey.length <= 128);\n\n    bytes32 publicKeyHash = keccak256(publicKey);\n    require(!proposedPublicKeyHashes[publicKeyHash]);\n\n    keeperProposals.push(KeeperProposal({\n      keeperAddress: msg.sender,\n      publicKey: publicKey,\n      keepingFee: keepingFee\n    }));\n\n    proposedKeeperFlags[msg.sender] = true;\n    proposedPublicKeyHashes[publicKeyHash] = true;\n  }\n\n  // Calculates how much would it cost the owner to activate contract with given Keepers.\n  //\n  function calculateActivationPrice(uint[] selectedProposalIndices) public view returns (uint) {\n    uint _totalKeepingFee = 0;\n\n    for (uint i = 0; i < selectedProposalIndices.length; i++) {\n      uint proposalIndex = selectedProposalIndices[i];\n      KeeperProposal storage proposal = keeperProposals[proposalIndex];\n      _totalKeepingFee = SafeMath.add(_totalKeepingFee, proposal.keepingFee);\n    }\n\n    return _totalKeepingFee;\n  }\n\n\n  // Called by owner to accept selected proposals and activate the contract.\n  //\n  function acceptKeepers(\n    uint[] selectedProposalIndices,\n    bytes32[] keyPartHashes,\n    bytes encryptedKeyParts,\n    bytes _encryptedData,\n    bytes32 dataHash,\n    uint aesCounter\n  ) payable external\n    ownerOnly()\n    atState(States.CallForKeepers)\n  {\n    encryptedData = EncryptedData({\n      encryptedData: _encryptedData,\n      aesCounter: aesCounter,\n      dataHash: dataHash,\n      encryptedKeyParts: encryptedKeyParts,\n      suppliedKeyParts: new bytes[](0)\n    });\n\n    totalKeepingFee = writeKeepers(selectedProposalIndices, keyPartHashes);\n\n    uint balance = this.balance;\n    require(balance >= totalKeepingFee);\n\n    state = States.Active;\n    lastOwnerCheckInAt = getBlockTimestamp();\n  }\n\n\n  // Returns: sum of keeping fees of all selected Keepers.\n  //\n  function writeKeepers(\n    uint[] selectedProposalIndices,\n    bytes32[] keyPartHashes\n  )\n  internal returns (uint)\n  {\n    uint timestamp = getBlockTimestamp();\n    uint _totalKeepingFee = 0;\n\n    for (uint i = 0; i < selectedProposalIndices.length; i++) {\n      uint proposalIndex = selectedProposalIndices[i];\n      KeeperProposal storage proposal = keeperProposals[proposalIndex];\n\n      activeKeepers[proposal.keeperAddress] = ActiveKeeper({\n        publicKey: proposal.publicKey,\n        keyPartHash: keyPartHashes[i],\n        keepingFee: proposal.keepingFee,\n        lastCheckInAt: timestamp,\n        balance: 0,\n        keyPartSupplied: false\n      });\n\n      activeKeepersAddresses.push(proposal.keeperAddress);\n      _totalKeepingFee = SafeMath.add(_totalKeepingFee, proposal.keepingFee);\n    }\n\n    return _totalKeepingFee;\n  }\n\n\n  // Updates owner check-in time and credits all active Keepers with keeping fee.\n  //\n  function ownerCheckIn() payable external\n    ownerOnly()\n    atState(States.Active)\n  {\n    uint excessBalance = creditKeepers({prepayOneKeepingPeriodUpfront: true});\n\n    lastOwnerCheckInAt = getBlockTimestamp();\n\n    if (excessBalance > 0) {\n      msg.sender.transfer(excessBalance);\n    }\n  }\n\n\n  // Calculates approximate price of a check-in, given that it will be performed right now.\n  // Actual price may differ because\n  //\n  function calculateApproximateCheckInPrice() public view returns (uint) {\n    uint keepingFeeMult = calculateKeepingFeeMult();\n    uint requiredBalance = 0;\n\n    for (uint i = 0; i < activeKeepersAddresses.length; i++) {\n      ActiveKeeper storage keeper = activeKeepers[activeKeepersAddresses[i]];\n      uint balanceToAdd = SafeMath.mul(keeper.keepingFee, keepingFeeMult) / KEEPING_FEE_ROUNDING_MULT;\n      uint newKeeperBalance = SafeMath.add(keeper.balance, balanceToAdd);\n      requiredBalance = SafeMath.add(requiredBalance, newKeeperBalance);\n    }\n\n    requiredBalance = SafeMath.add(requiredBalance, totalKeepingFee);\n    uint balance = this.balance;\n\n    if (balance >= requiredBalance) {\n      return 0;\n    } else {\n      return requiredBalance - balance;\n    }\n  }\n\n\n  // Returns: excess balance that can be transferred back to owner.\n  //\n  function creditKeepers(bool prepayOneKeepingPeriodUpfront) internal returns (uint) {\n    uint keepingFeeMult = calculateKeepingFeeMult();\n    uint requiredBalance = 0;\n\n    for (uint i = 0; i < activeKeepersAddresses.length; i++) {\n      ActiveKeeper storage keeper = activeKeepers[activeKeepersAddresses[i]];\n      uint balanceToAdd = SafeMath.mul(keeper.keepingFee, keepingFeeMult) / KEEPING_FEE_ROUNDING_MULT;\n      keeper.balance = SafeMath.add(keeper.balance, balanceToAdd);\n      requiredBalance = SafeMath.add(requiredBalance, keeper.balance);\n    }\n\n    if (prepayOneKeepingPeriodUpfront) {\n      requiredBalance = SafeMath.add(requiredBalance, totalKeepingFee);\n    }\n\n    uint balance = this.balance;\n\n    require(balance >= requiredBalance);\n    return balance - requiredBalance;\n  }\n\n\n  function calculateKeepingFeeMult() internal view returns (uint) {\n    uint timeSinceLastOwnerCheckIn = SafeMath.sub(getBlockTimestamp(), lastOwnerCheckInAt);\n    require(timeSinceLastOwnerCheckIn <= checkInInterval);\n\n    timeSinceLastOwnerCheckIn = ceil(timeSinceLastOwnerCheckIn, 600); // ceil to 10 minutes\n    if (timeSinceLastOwnerCheckIn > checkInInterval) {\n      timeSinceLastOwnerCheckIn = checkInInterval;\n    }\n\n    return SafeMath.mul(KEEPING_FEE_ROUNDING_MULT, timeSinceLastOwnerCheckIn) / checkInInterval;\n  }\n\n\n  // Pays the Keeper their balance and updates their check-in time. Verifies that the owner\n  // checked in in time and, if not, transfers the contract into CALL_FOR_KEYS state.\n  //\n  // A Keeper can call this method to get his reward regardless of the contract state.\n  //\n  function keeperCheckIn() external\n    activeKeepersOnly()\n  {\n    uint timestamp = getBlockTimestamp();\n\n    ActiveKeeper storage keeper = activeKeepers[msg.sender];\n    keeper.lastCheckInAt = timestamp;\n\n    if (state == States.Active) {\n      uint timeSinceLastOwnerCheckIn = SafeMath.sub(timestamp, lastOwnerCheckInAt);\n      if (timeSinceLastOwnerCheckIn > checkInInterval) {\n        state = States.CallForKeys;\n        KeysNeeded();\n      }\n    }\n\n    uint keeperBalance = keeper.balance;\n    if (keeperBalance > 0) {\n      keeper.balance = 0;\n      msg.sender.transfer(keeperBalance);\n    }\n  }\n\n\n  // Called by Keepers to supply their decrypted key parts.\n  //\n  function supplyKey(bytes keyPart) external\n    activeKeepersOnly()\n    atState(States.CallForKeys)\n  {\n    ActiveKeeper storage keeper = activeKeepers[msg.sender];\n    require(!keeper.keyPartSupplied);\n\n    bytes32 suppliedKeyPartHash = keccak256(keyPart);\n    require(suppliedKeyPartHash == keeper.keyPartHash);\n\n    encryptedData.suppliedKeyParts.push(keyPart);\n    keeper.keyPartSupplied = true;\n\n    // Include one-period keeping fee that was held by contract in advance.\n    uint toBeTransferred = SafeMath.add(keeper.balance, keeper.keepingFee);\n    keeper.balance = 0;\n\n    if (toBeTransferred > 0) {\n      msg.sender.transfer(toBeTransferred);\n    }\n  }\n\n\n  // Allows owner to announce continuation contract to all active Keepers.\n  //\n  // Continuation contract is used to elect new set of Keepers, e.g. to replace inactive ones.\n  // When the continuation contract gets sufficient number of keeping proposals, owner will\n  // cancel this contract and start the continuation one.\n  //\n  function announceContinuationContract(address _continuationContractAddress) external\n    ownerOnly()\n    atState(States.Active)\n  {\n    require(continuationContractAddress == 0);\n\n    CryptoLegacyBaseAPI continuationContract = CryptoLegacyBaseAPI(_continuationContractAddress);\n\n    require(continuationContract.getOwner() == getOwner());\n    require(continuationContract.getVersion() >= getVersion());\n    require(continuationContract.isAcceptingKeeperProposals());\n\n    continuationContractAddress = _continuationContractAddress;\n    ContinuationContractAnnounced(_continuationContractAddress);\n  }\n\n\n  // Cancels the contract and notifies the Keepers. Credits all active Keepers with keeping fee,\n  // as if this was a check-in.\n  //\n  function cancel() payable external\n    ownerOnly()\n    atEitherOfStates(States.CallForKeepers, States.Active)\n  {\n    uint excessBalance = 0;\n\n    if (state == States.Active) {\n      // We don't require paying one keeping period upfront as the contract is being cancelled;\n      // we just require paying till the present moment.\n      excessBalance = creditKeepers({prepayOneKeepingPeriodUpfront: false});\n    }\n\n    state = States.Cancelled;\n    Cancelled();\n\n    if (excessBalance > 0) {\n      msg.sender.transfer(excessBalance);\n    }\n  }\n\n\n  // We can rely on the value of now (block.timestamp) for our purposes, as the consensus\n  // rule is that a block's timestamp must be 1) more than the parent's block timestamp;\n  // and 2) less than the current wall clock time. See:\n  // https://github.com/ethereum/go-ethereum/blob/885c13c/consensus/ethash/consensus.go#L223\n  //\n  function getBlockTimestamp() internal view returns (uint) {\n    return now;\n  }\n\n\n  // See: https://stackoverflow.com/a/2745086/804678\n  //\n  function ceil(uint x, uint y) internal pure returns (uint) {\n    if (x == 0) return 0;\n    return (1 + ((x - 1) / y)) * y;\n  }\n\n}\n",
  "sourcePath": "/Users/eugene/dev/crypto-legacy-internal/truffle/contracts/CryptoLegacy.sol",
  "compiler": {
    "name": "solc",
    "version": "0.4.18+commit.9cf6e910.Emscripten.clang"
  },
  "schemaVersion": "1.0.1",
  "updatedAt": "2017-12-16T14:37:44.227Z"
}