{
  "contractName": "CryptoLegacyDebug",
  "abi": [
    {
      "constant": true,
      "inputs": [],
      "name": "getNumSuppliedKeyParts",
      "outputs": [
        {
          "name": "",
          "type": "uint256"
        }
      ],
      "payable": false,
      "stateMutability": "view",
      "type": "function"
    },
    {
      "constant": true,
      "inputs": [
        {
          "name": "addr",
          "type": "address"
        }
      ],
      "name": "didSendProposal",
      "outputs": [
        {
          "name": "",
          "type": "bool"
        }
      ],
      "payable": false,
      "stateMutability": "view",
      "type": "function"
    },
    {
      "constant": true,
      "inputs": [],
      "name": "getVersion",
      "outputs": [
        {
          "name": "",
          "type": "uint256"
        }
      ],
      "payable": false,
      "stateMutability": "view",
      "type": "function"
    },
    {
      "constant": false,
      "inputs": [
        {
          "name": "publicKey",
          "type": "bytes"
        },
        {
          "name": "keepingFee",
          "type": "uint256"
        }
      ],
      "name": "submitKeeperProposal",
      "outputs": [],
      "payable": false,
      "stateMutability": "nonpayable",
      "type": "function"
    },
    {
      "constant": true,
      "inputs": [
        {
          "name": "addr",
          "type": "address"
        }
      ],
      "name": "isActiveKeeper",
      "outputs": [
        {
          "name": "",
          "type": "bool"
        }
      ],
      "payable": false,
      "stateMutability": "view",
      "type": "function"
    },
    {
      "constant": false,
      "inputs": [
        {
          "name": "keyPart",
          "type": "bytes"
        }
      ],
      "name": "supplyKey",
      "outputs": [],
      "payable": false,
      "stateMutability": "nonpayable",
      "type": "function"
    },
    {
      "constant": false,
      "inputs": [],
      "name": "ownerCheckIn",
      "outputs": [],
      "payable": true,
      "stateMutability": "payable",
      "type": "function"
    },
    {
      "constant": true,
      "inputs": [
        {
          "name": "",
          "type": "uint256"
        }
      ],
      "name": "activeKeepersAddresses",
      "outputs": [
        {
          "name": "",
          "type": "address"
        }
      ],
      "payable": false,
      "stateMutability": "view",
      "type": "function"
    },
    {
      "constant": true,
      "inputs": [
        {
          "name": "",
          "type": "address"
        }
      ],
      "name": "proposedKeeperFlags",
      "outputs": [
        {
          "name": "",
          "type": "bool"
        }
      ],
      "payable": false,
      "stateMutability": "view",
      "type": "function"
    },
    {
      "constant": false,
      "inputs": [
        {
          "name": "newVersion",
          "type": "uint256"
        }
      ],
      "name": "setVersion",
      "outputs": [],
      "payable": false,
      "stateMutability": "nonpayable",
      "type": "function"
    },
    {
      "constant": true,
      "inputs": [],
      "name": "debugVersion",
      "outputs": [
        {
          "name": "",
          "type": "uint256"
        }
      ],
      "payable": false,
      "stateMutability": "view",
      "type": "function"
    },
    {
      "constant": true,
      "inputs": [],
      "name": "isAcceptingKeeperProposals",
      "outputs": [
        {
          "name": "",
          "type": "bool"
        }
      ],
      "payable": false,
      "stateMutability": "view",
      "type": "function"
    },
    {
      "constant": true,
      "inputs": [],
      "name": "lastOwnerCheckInAt",
      "outputs": [
        {
          "name": "",
          "type": "uint256"
        }
      ],
      "payable": false,
      "stateMutability": "view",
      "type": "function"
    },
    {
      "constant": true,
      "inputs": [
        {
          "name": "",
          "type": "uint256"
        }
      ],
      "name": "keeperProposals",
      "outputs": [
        {
          "name": "keeperAddress",
          "type": "address"
        },
        {
          "name": "publicKey",
          "type": "bytes"
        },
        {
          "name": "keepingFee",
          "type": "uint256"
        }
      ],
      "payable": false,
      "stateMutability": "view",
      "type": "function"
    },
    {
      "constant": true,
      "inputs": [],
      "name": "getNumProposals",
      "outputs": [
        {
          "name": "",
          "type": "uint256"
        }
      ],
      "payable": false,
      "stateMutability": "view",
      "type": "function"
    },
    {
      "constant": true,
      "inputs": [],
      "name": "calculateApproximateCheckInPrice",
      "outputs": [
        {
          "name": "",
          "type": "uint256"
        }
      ],
      "payable": false,
      "stateMutability": "view",
      "type": "function"
    },
    {
      "constant": true,
      "inputs": [],
      "name": "totalKeepingFee",
      "outputs": [
        {
          "name": "",
          "type": "uint256"
        }
      ],
      "payable": false,
      "stateMutability": "view",
      "type": "function"
    },
    {
      "constant": true,
      "inputs": [],
      "name": "getOwner",
      "outputs": [
        {
          "name": "",
          "type": "address"
        }
      ],
      "payable": false,
      "stateMutability": "view",
      "type": "function"
    },
    {
      "constant": true,
      "inputs": [],
      "name": "KEEPING_FEE_ROUNDING_MULT",
      "outputs": [
        {
          "name": "",
          "type": "uint256"
        }
      ],
      "payable": false,
      "stateMutability": "view",
      "type": "function"
    },
    {
      "constant": true,
      "inputs": [],
      "name": "owner",
      "outputs": [
        {
          "name": "",
          "type": "address"
        }
      ],
      "payable": false,
      "stateMutability": "view",
      "type": "function"
    },
    {
      "constant": true,
      "inputs": [],
      "name": "continuationContractAddress",
      "outputs": [
        {
          "name": "",
          "type": "address"
        }
      ],
      "payable": false,
      "stateMutability": "view",
      "type": "function"
    },
    {
      "constant": true,
      "inputs": [],
      "name": "debugTimestamp",
      "outputs": [
        {
          "name": "",
          "type": "uint256"
        }
      ],
      "payable": false,
      "stateMutability": "view",
      "type": "function"
    },
    {
      "constant": true,
      "inputs": [],
      "name": "MINIMUM_CHECK_IN_INTERVAL",
      "outputs": [
        {
          "name": "",
          "type": "uint256"
        }
      ],
      "payable": false,
      "stateMutability": "view",
      "type": "function"
    },
    {
      "constant": true,
      "inputs": [],
      "name": "checkInInterval",
      "outputs": [
        {
          "name": "",
          "type": "uint256"
        }
      ],
      "payable": false,
      "stateMutability": "view",
      "type": "function"
    },
    {
      "constant": true,
      "inputs": [],
      "name": "state",
      "outputs": [
        {
          "name": "",
          "type": "uint8"
        }
      ],
      "payable": false,
      "stateMutability": "view",
      "type": "function"
    },
    {
      "constant": false,
      "inputs": [],
      "name": "keeperCheckIn",
      "outputs": [],
      "payable": false,
      "stateMutability": "nonpayable",
      "type": "function"
    },
    {
      "constant": false,
      "inputs": [
        {
          "name": "_continuationContractAddress",
          "type": "address"
        }
      ],
      "name": "announceContinuationContract",
      "outputs": [],
      "payable": false,
      "stateMutability": "nonpayable",
      "type": "function"
    },
    {
      "constant": true,
      "inputs": [
        {
          "name": "",
          "type": "address"
        }
      ],
      "name": "activeKeepers",
      "outputs": [
        {
          "name": "publicKey",
          "type": "bytes"
        },
        {
          "name": "keyPartHash",
          "type": "bytes32"
        },
        {
          "name": "keepingFee",
          "type": "uint256"
        },
        {
          "name": "balance",
          "type": "uint256"
        },
        {
          "name": "lastCheckInAt",
          "type": "uint256"
        },
        {
          "name": "keyPartSupplied",
          "type": "bool"
        }
      ],
      "payable": false,
      "stateMutability": "view",
      "type": "function"
    },
    {
      "constant": true,
      "inputs": [
        {
          "name": "selectedProposalIndices",
          "type": "uint256[]"
        }
      ],
      "name": "calculateActivationPrice",
      "outputs": [
        {
          "name": "",
          "type": "uint256"
        }
      ],
      "payable": false,
      "stateMutability": "view",
      "type": "function"
    },
    {
      "constant": false,
      "inputs": [
        {
          "name": "sec",
          "type": "uint256"
        }
      ],
      "name": "increaseTimeBy",
      "outputs": [],
      "payable": false,
      "stateMutability": "nonpayable",
      "type": "function"
    },
    {
      "constant": true,
      "inputs": [
        {
          "name": "index",
          "type": "uint256"
        }
      ],
      "name": "getSuppliedKeyPart",
      "outputs": [
        {
          "name": "",
          "type": "bytes"
        }
      ],
      "payable": false,
      "stateMutability": "view",
      "type": "function"
    },
    {
      "constant": true,
      "inputs": [],
      "name": "getNumKeepers",
      "outputs": [
        {
          "name": "",
          "type": "uint256"
        }
      ],
      "payable": false,
      "stateMutability": "view",
      "type": "function"
    },
    {
      "constant": true,
      "inputs": [],
      "name": "getContinuationContractAddress",
      "outputs": [
        {
          "name": "",
          "type": "address"
        }
      ],
      "payable": false,
      "stateMutability": "view",
      "type": "function"
    },
    {
      "constant": true,
      "inputs": [],
      "name": "encryptedData",
      "outputs": [
        {
          "name": "encryptedData",
          "type": "bytes"
        },
        {
          "name": "aesCounter",
          "type": "bytes16"
        },
        {
          "name": "dataHash",
          "type": "bytes32"
        },
        {
          "name": "encryptedKeyParts",
          "type": "bytes"
        },
        {
          "name": "shareLength",
          "type": "uint16"
        }
      ],
      "payable": false,
      "stateMutability": "view",
      "type": "function"
    },
    {
      "constant": false,
      "inputs": [],
      "name": "cancel",
      "outputs": [],
      "payable": true,
      "stateMutability": "payable",
      "type": "function"
    },
    {
      "constant": false,
      "inputs": [
        {
          "name": "selectedProposalIndices",
          "type": "uint256[]"
        },
        {
          "name": "keyPartHashes",
          "type": "bytes32[]"
        },
        {
          "name": "encryptedKeyParts",
          "type": "bytes"
        },
        {
          "name": "shareLength",
          "type": "uint16"
        },
        {
          "name": "_encryptedData",
          "type": "bytes"
        },
        {
          "name": "dataHash",
          "type": "bytes32"
        },
        {
          "name": "aesCounter",
          "type": "bytes16"
        }
      ],
      "name": "acceptKeepers",
      "outputs": [],
      "payable": true,
      "stateMutability": "payable",
      "type": "function"
    },
    {
      "constant": true,
      "inputs": [],
      "name": "VERSION",
      "outputs": [
        {
          "name": "",
          "type": "uint256"
        }
      ],
      "payable": false,
      "stateMutability": "view",
      "type": "function"
    },
    {
      "inputs": [
        {
          "name": "_checkInInterval",
          "type": "uint256"
        }
      ],
      "payable": false,
      "stateMutability": "nonpayable",
      "type": "constructor"
    },
    {
      "anonymous": false,
      "inputs": [],
      "name": "KeysNeeded",
      "type": "event"
    },
    {
      "anonymous": false,
      "inputs": [
        {
          "indexed": false,
          "name": "continuationContractAddress",
          "type": "address"
        }
      ],
      "name": "ContinuationContractAnnounced",
      "type": "event"
    },
    {
      "anonymous": false,
      "inputs": [],
      "name": "Cancelled",
      "type": "event"
    }
  ],
  "bytecode": "0x6060604052336000806101000a81548173ffffffffffffffffffffffffffffffffffffffff021916908373ffffffffffffffffffffffffffffffffffffffff1602179055506000600160006101000a81548173ffffffffffffffffffffffffffffffffffffffff021916908373ffffffffffffffffffffffffffffffffffffffff1602179055506000600460006101000a81548160ff021916908360038111156100a557fe5b0217905550602a60115534156100ba57600080fd5b604051602080612b828339810160405280805190602001909190505080603c81101515156100e757600080fd5b806002819055505050612a83806100ff6000396000f3006060604052600436106101cd576000357c0100000000000000000000000000000000000000000000000000000000900463ffffffff16806304ed3e4e146101d2578063071f8601146101fb5780630d8e6e2c1461024c57806317995d7b146102755780632224768d146102ac578063259c3aed146102fd57806339dd4f6d1461032b5780633afd601a146103355780633f135f8614610398578063408def1e146103e95780636b72096e1461040c578063760a44401461043557806376eca21e14610462578063781970e61461048b578063798974dd1461057e5780637a54c192146105a757806387a083ca146105d0578063893d20e8146105f95780638d5946511461064e5780638da5cb5b14610677578063a3521f13146106cc578063b63c9e4414610721578063ba4ff4981461074a578063bfd25fa514610773578063c19d93fb1461079c578063c53c9bb6146107d3578063cc1b3b9c146107e8578063cdd35b2d14610821578063ce35d2461461091f578063d4cd51bf1461098d578063d830d1e5146109b0578063d97cdcbc14610a4c578063e01ee27714610a75578063e9fc715a14610aca578063ea8a1af014610c49578063f36115d914610c53578063ffa1ad7414610ce8575b600080fd5b34156101dd57600080fd5b6101e5610d11565b6040518082815260200191505060405180910390f35b341561020657600080fd5b610232600480803573ffffffffffffffffffffffffffffffffffffffff16906020019091905050610d20565b604051808215151515815260200191505060405180910390f35b341561025757600080fd5b61025f610d76565b6040518082815260200191505060405180910390f35b341561028057600080fd5b6102aa60048080359060200190820180359060200191909192908035906020019091905050610d94565b005b34156102b757600080fd5b6102e3600480803573ffffffffffffffffffffffffffffffffffffffff16906020019091905050611033565b604051808215151515815260200191505060405180910390f35b341561030857600080fd5b61032960048080359060200190820180359060200191909192905050611081565b005b61033361122f565b005b341561034057600080fd5b6103566004808035906020019091905050611329565b604051808273ffffffffffffffffffffffffffffffffffffffff1673ffffffffffffffffffffffffffffffffffffffff16815260200191505060405180910390f35b34156103a357600080fd5b6103cf600480803573ffffffffffffffffffffffffffffffffffffffff16906020019091905050611368565b604051808215151515815260200191505060405180910390f35b34156103f457600080fd5b61040a6004808035906020019091905050611388565b005b341561041757600080fd5b61041f611392565b6040518082815260200191505060405180910390f35b341561044057600080fd5b610448611398565b604051808215151515815260200191505060405180910390f35b341561046d57600080fd5b6104756113c7565b6040518082815260200191505060405180910390f35b341561049657600080fd5b6104ac60048080359060200190919050506113cd565b604051808473ffffffffffffffffffffffffffffffffffffffff1673ffffffffffffffffffffffffffffffffffffffff1681526020018060200183815260200182810382528481815460018160011615610100020316600290048152602001915080546001816001161561010002031660029004801561056d5780601f106105425761010080835404028352916020019161056d565b820191906000526020600020905b81548152906001019060200180831161055057829003601f168201915b505094505050505060405180910390f35b341561058957600080fd5b610591611425565b6040518082815260200191505060405180910390f35b34156105b257600080fd5b6105ba611432565b6040518082815260200191505060405180910390f35b34156105db57600080fd5b6105e361156f565b6040518082815260200191505060405180910390f35b341561060457600080fd5b61060c611575565b604051808273ffffffffffffffffffffffffffffffffffffffff1673ffffffffffffffffffffffffffffffffffffffff16815260200191505060405180910390f35b341561065957600080fd5b61066161159e565b6040518082815260200191505060405180910390f35b341561068257600080fd5b61068a6115aa565b604051808273ffffffffffffffffffffffffffffffffffffffff1673ffffffffffffffffffffffffffffffffffffffff16815260200191505060405180910390f35b34156106d757600080fd5b6106df6115cf565b604051808273ffffffffffffffffffffffffffffffffffffffff1673ffffffffffffffffffffffffffffffffffffffff16815260200191505060405180910390f35b341561072c57600080fd5b6107346115f5565b6040518082815260200191505060405180910390f35b341561075557600080fd5b61075d6115fb565b6040518082815260200191505060405180910390f35b341561077e57600080fd5b610786611600565b6040518082815260200191505060405180910390f35b34156107a757600080fd5b6107af611606565b604051808260038111156107bf57fe5b60ff16815260200191505060405180910390f35b34156107de57600080fd5b6107e6611619565b005b34156107f357600080fd5b61081f600480803573ffffffffffffffffffffffffffffffffffffffff1690602001909190505061177f565b005b341561082c57600080fd5b610858600480803573ffffffffffffffffffffffffffffffffffffffff16906020019091905050611b34565b604051808060200187600019166000191681526020018681526020018581526020018481526020018315151515815260200182810382528881815460018160011615610100020316600290048152602001915080546001816001161561010002031660029004801561090b5780601f106108e05761010080835404028352916020019161090b565b820191906000526020600020905b8154815290600101906020018083116108ee57829003601f168201915b505097505050505050505060405180910390f35b341561092a57600080fd5b610977600480803590602001908201803590602001908080602002602001604051908101604052809392919081815260200183836020028082843782019150505050505091905050611b7c565b6040518082815260200191505060405180910390f35b341561099857600080fd5b6109ae6004808035906020019091905050611bf7565b005b34156109bb57600080fd5b6109d16004808035906020019091905050611c0a565b6040518080602001828103825283818151815260200191508051906020019080838360005b83811015610a115780820151818401526020810190506109f6565b50505050905090810190601f168015610a3e5780820380516001836020036101000a031916815260200191505b509250505060405180910390f35b3415610a5757600080fd5b610a5f611cce565b6040518082815260200191505060405180910390f35b3415610a8057600080fd5b610a88611cdb565b604051808273ffffffffffffffffffffffffffffffffffffffff1673ffffffffffffffffffffffffffffffffffffffff16815260200191505060405180910390f35b3415610ad557600080fd5b610add611d05565b6040518080602001866fffffffffffffffffffffffffffffffff19166fffffffffffffffffffffffffffffffff191681526020018560001916600019168152602001806020018461ffff1661ffff168152602001838103835288818154600181600116156101000203166002900481526020019150805460018160011615610100020316600290048015610bb25780601f10610b8757610100808354040283529160200191610bb2565b820191906000526020600020905b815481529060010190602001808311610b9557829003601f168201915b5050838103825285818154600181600116156101000203166002900481526020019150805460018160011615610100020316600290048015610c355780601f10610c0a57610100808354040283529160200191610c35565b820191906000526020600020905b815481529060010190602001808311610c1857829003601f168201915b505097505050505050505060405180910390f35b610c51611d52565b005b610ce6600480803590602001908201803590602001919091929080359060200190820180359060200191909192908035906020019082018035906020019190919290803561ffff169060200190919080359060200190820180359060200191909192908035600019169060200190919080356fffffffffffffffffffffffffffffffff1916906020019091905050611ef3565b005b3415610cf357600080fd5b610cfb612221565b6040518082815260200191505060405180910390f35b60006005800180549050905090565b6000600c60008373ffffffffffffffffffffffffffffffffffffffff1673ffffffffffffffffffffffffffffffffffffffff16815260200190815260200160002060009054906101000a900460ff169050919050565b6000806012541415610d8b5760019050610d91565b60125490505b90565b600080806003811115610da357fe5b600460009054906101000a900460ff166003811115610dbe57fe5b141515610dca57600080fd5b6000809054906101000a900473ffffffffffffffffffffffffffffffffffffffff1673ffffffffffffffffffffffffffffffffffffffff163373ffffffffffffffffffffffffffffffffffffffff1614151515610e2657600080fd5b610e2f33610d20565b151515610e3b57600080fd5b60808585905011151515610e4e57600080fd5b84846040518083838082843782019150509250505060405180910390209150600d6000836000191660001916815260200190815260200160002060009054906101000a900460ff16151515610ea257600080fd5b600b8054806001018281610eb6919061274e565b916000526020600020906003020160006060604051908101604052803373ffffffffffffffffffffffffffffffffffffffff16815260200189898080601f016020809104026020016040519081016040528093929190818152602001838380828437820191505050505050815260200187815250909190915060008201518160000160006101000a81548173ffffffffffffffffffffffffffffffffffffffff021916908373ffffffffffffffffffffffffffffffffffffffff1602179055506020820151816001019080519060200190610f92929190612780565b50604082015181600201555050506001600c60003373ffffffffffffffffffffffffffffffffffffffff1673ffffffffffffffffffffffffffffffffffffffff16815260200190815260200160002060006101000a81548160ff0219169083151502179055506001600d6000846000191660001916815260200190815260200160002060006101000a81548160ff0219169083151502179055505050505050565b600080600e60008473ffffffffffffffffffffffffffffffffffffffff1673ffffffffffffffffffffffffffffffffffffffff16815260200190815260200160002060040154119050919050565b600080600061108f33611033565b151561109a57600080fd5b60028060038111156110a857fe5b600460009054906101000a900460ff1660038111156110c357fe5b1415156110cf57600080fd5b600e60003373ffffffffffffffffffffffffffffffffffffffff1673ffffffffffffffffffffffffffffffffffffffff16815260200190815260200160002093508360050160009054906101000a900460ff1615151561112e57600080fd5b85856040518083838082843782019150509250505060405180910390209250836001015460001916836000191614151561116757600080fd5b60058001805480600101828161117d9190612800565b9160005260206000209001600088889091929091925091906111a092919061282c565b505060018460050160006101000a81548160ff0219169083151502179055506111d184600301548560020154612226565b9150600084600301819055506000821115611227573373ffffffffffffffffffffffffffffffffffffffff166108fc839081150290604051600060405180830381858888f19350505050151561122657600080fd5b5b505050505050565b60008060009054906101000a900473ffffffffffffffffffffffffffffffffffffffff1673ffffffffffffffffffffffffffffffffffffffff163373ffffffffffffffffffffffffffffffffffffffff1614151561128c57600080fd5b600180600381111561129a57fe5b600460009054906101000a900460ff1660038111156112b557fe5b1415156112c157600080fd5b6112cb6001612244565b91506112d561238e565b6003819055506000821115611325573373ffffffffffffffffffffffffffffffffffffffff166108fc839081150290604051600060405180830381858888f19350505050151561132457600080fd5b5b5050565b600f8181548110151561133857fe5b90600052602060002090016000915054906101000a900473ffffffffffffffffffffffffffffffffffffffff1681565b600c6020528060005260406000206000915054906101000a900460ff1681565b8060128190555050565b60125481565b60008060038111156113a657fe5b600460009054906101000a900460ff1660038111156113c157fe5b14905090565b60035481565b600b818154811015156113dc57fe5b90600052602060002090600302016000915090508060000160009054906101000a900473ffffffffffffffffffffffffffffffffffffffff169080600101908060020154905083565b6000600b80549050905090565b600080600080600080600080611446612398565b965060009550600094505b600f8054905085101561152557600e6000600f8781548110151561147157fe5b906000526020600020900160009054906101000a900473ffffffffffffffffffffffffffffffffffffffff1673ffffffffffffffffffffffffffffffffffffffff1673ffffffffffffffffffffffffffffffffffffffff1681526020019081526020016000209350670de0b6b3a76400006114f0856002015489612404565b8115156114f957fe5b04925061150a846003015484612226565b91506115168683612226565b95508480600101955050611451565b61153186601054612226565b95503073ffffffffffffffffffffffffffffffffffffffff16319050858110151561155f5760009750611565565b80860397505b5050505050505090565b60105481565b60008060009054906101000a900473ffffffffffffffffffffffffffffffffffffffff16905090565b670de0b6b3a764000081565b6000809054906101000a900473ffffffffffffffffffffffffffffffffffffffff1681565b600160009054906101000a900473ffffffffffffffffffffffffffffffffffffffff1681565b60115481565b603c81565b60025481565b600460009054906101000a900460ff1681565b60008060008061162833611033565b151561163357600080fd5b61163b61238e565b9350600e60003373ffffffffffffffffffffffffffffffffffffffff1673ffffffffffffffffffffffffffffffffffffffff16815260200190815260200160002092508383600401819055506001600381111561169457fe5b600460009054906101000a900460ff1660038111156116af57fe5b141561171e576116c184600354612437565b915060025482111561171d576002600460006101000a81548160ff021916908360038111156116ec57fe5b02179055507eea067c7113f3002f0fc5fa11a22f4b7d7c84b63d99d4871ba53c077afc8da560405160405180910390a15b5b82600301549050600081111561177957600083600301819055503373ffffffffffffffffffffffffffffffffffffffff166108fc829081150290604051600060405180830381858888f19350505050151561177857600080fd5b5b50505050565b60008060009054906101000a900473ffffffffffffffffffffffffffffffffffffffff1673ffffffffffffffffffffffffffffffffffffffff163373ffffffffffffffffffffffffffffffffffffffff161415156117dc57600080fd5b60018060038111156117ea57fe5b600460009054906101000a900460ff16600381111561180557fe5b14151561181157600080fd5b6000600160009054906101000a900473ffffffffffffffffffffffffffffffffffffffff1673ffffffffffffffffffffffffffffffffffffffff1614151561185857600080fd5b3073ffffffffffffffffffffffffffffffffffffffff168373ffffffffffffffffffffffffffffffffffffffff161415151561189357600080fd5b82915061189e611575565b73ffffffffffffffffffffffffffffffffffffffff168273ffffffffffffffffffffffffffffffffffffffff1663893d20e86000604051602001526040518163ffffffff167c0100000000000000000000000000000000000000000000000000000000028152600401602060405180830381600087803b151561192057600080fd5b6102c65a03f1151561193157600080fd5b5050506040518051905073ffffffffffffffffffffffffffffffffffffffff1614151561195d57600080fd5b611965610d76565b8273ffffffffffffffffffffffffffffffffffffffff16630d8e6e2c6000604051602001526040518163ffffffff167c0100000000000000000000000000000000000000000000000000000000028152600401602060405180830381600087803b15156119d157600080fd5b6102c65a03f115156119e257600080fd5b50505060405180519050101515156119f957600080fd5b8173ffffffffffffffffffffffffffffffffffffffff1663760a44406000604051602001526040518163ffffffff167c0100000000000000000000000000000000000000000000000000000000028152600401602060405180830381600087803b1515611a6557600080fd5b6102c65a03f11515611a7657600080fd5b505050604051805190501515611a8b57600080fd5b82600160006101000a81548173ffffffffffffffffffffffffffffffffffffffff021916908373ffffffffffffffffffffffffffffffffffffffff1602179055507fd517b3f28983d7964c0ca51f29522226735af584b0a113f040f8a8b10686873b83604051808273ffffffffffffffffffffffffffffffffffffffff1673ffffffffffffffffffffffffffffffffffffffff16815260200191505060405180910390a1505050565b600e60205280600052604060002060009150905080600001908060010154908060020154908060030154908060040154908060050160009054906101000a900460ff16905086565b6000806000806000809350600092505b8551831015611beb578583815181101515611ba357fe5b906020019060200201519150600b82815481101515611bbe57fe5b90600052602060002090600302019050611bdc848260020154612226565b93508280600101935050611b8c565b83945050505050919050565b8060116000828254019250508190555050565b611c126128ac565b6005800182815481101515611c2357fe5b90600052602060002090018054600181600116156101000203166002900480601f016020809104026020016040519081016040528092919081815260200182805460018160011615610100020316600290048015611cc25780601f10611c9757610100808354040283529160200191611cc2565b820191906000526020600020905b815481529060010190602001808311611ca557829003601f168201915b50505050509050919050565b6000600f80549050905090565b6000600160009054906101000a900473ffffffffffffffffffffffffffffffffffffffff16905090565b600580600001908060010160009054906101000a9004700100000000000000000000000000000000029080600201549080600301908060040160009054906101000a900461ffff16905085565b60008060009054906101000a900473ffffffffffffffffffffffffffffffffffffffff1673ffffffffffffffffffffffffffffffffffffffff163373ffffffffffffffffffffffffffffffffffffffff16141515611daf57600080fd5b60006001816003811115611dbf57fe5b600460009054906101000a900460ff166003811115611dda57fe5b1480611e0a5750806003811115611ded57fe5b600460009054906101000a900460ff166003811115611e0857fe5b145b1515611e1557600080fd5b6000925060016003811115611e2657fe5b600460009054906101000a900460ff166003811115611e4157fe5b1415611e5457611e516000612244565b92505b6003600460006101000a81548160ff02191690836003811115611e7357fe5b02179055507f63b958841f79ab97cb5456da181454b9932c0e15a3b17f1cbd27e2a8bc61043760405160405180910390a16000831115611eee573373ffffffffffffffffffffffffffffffffffffffff166108fc849081150290604051600060405180830381858888f193505050501515611eed57600080fd5b5b505050565b60008060009054906101000a900473ffffffffffffffffffffffffffffffffffffffff1673ffffffffffffffffffffffffffffffffffffffff163373ffffffffffffffffffffffffffffffffffffffff16141515611f5057600080fd5b6000806003811115611f5e57fe5b600460009054906101000a900460ff166003811115611f7957fe5b141515611f8557600080fd5b60c06040519081016040528087878080601f0160208091040260200160405190810160405280939291908181526020018383808284378201915050505050508152602001846fffffffffffffffffffffffffffffffff19168152602001856000191681526020018a8a8080601f01602080910402602001604051908101604052809392919081815260200183838082843782019150505050505081526020018861ffff168152602001600060405180591061203d5750595b90808252806020026020018201604052801561207357816020015b6120606128c0565b8152602001906001900390816120585790505b5081525060056000820151816000019080519060200190612095929190612780565b5060208201518160010160006101000a8154816fffffffffffffffffffffffffffffffff021916908370010000000000000000000000000000000090040217905550604082015181600201906000191690556060820151816003019080519060200190612103929190612780565b5060808201518160040160006101000a81548161ffff021916908361ffff16021790555060a08201518160050190805190602001906121439291906128d4565b509050506121af8d8d808060200260200160405190810160405280939291908181526020018383602002808284378201915050505050508c8c80806020026020016040519081016040528093929190818152602001838360200280828437820191505050505050612450565b6010819055503073ffffffffffffffffffffffffffffffffffffffff1631915060105482101515156121e057600080fd5b6001600460006101000a81548160ff021916908360038111156121ff57fe5b021790555061220c61238e565b60038190555050505050505050505050505050565b600181565b600080828401905083811015151561223a57fe5b8091505092915050565b6000806000806000806000612257612398565b955060009450600093505b600f8054905084101561234057600e6000600f8681548110151561228257fe5b906000526020600020900160009054906101000a900473ffffffffffffffffffffffffffffffffffffffff1673ffffffffffffffffffffffffffffffffffffffff1673ffffffffffffffffffffffffffffffffffffffff1681526020019081526020016000209250670de0b6b3a7640000612301846002015488612404565b81151561230a57fe5b04915061231b836003015483612226565b8360030181905550612331858460030154612226565b94508380600101945050612262565b87156123555761235285601054612226565b94505b3073ffffffffffffffffffffffffffffffffffffffff1631905084811015151561237e57600080fd5b8481039650505050505050919050565b6000601154905090565b6000806123ae6123a661238e565b600354612437565b905060025481111515156123c157600080fd5b6123cd8161025861271e565b90506002548111156123df5760025490505b6002546123f4670de0b6b3a764000083612404565b8115156123fd57fe5b0491505090565b60008082840290506000841480612425575082848281151561242257fe5b04145b151561242d57fe5b8091505092915050565b600082821115151561244557fe5b818303905092915050565b60008060008060008061246161238e565b945060009350600092505b875183101561271057878381518110151561248357fe5b906020019060200201519150600b8281548110151561249e57fe5b9060005260206000209060030201905060c060405190810160405280826001018054600181600116156101000203166002900480601f0160208091040260200160405190810160405280929190818152602001828054600181600116156101000203166002900480156125525780601f1061252757610100808354040283529160200191612552565b820191906000526020600020905b81548152906001019060200180831161253557829003601f168201915b50505050508152602001888581518110151561256a57fe5b90602001906020020151600019168152602001826002015481526020016000815260200186815260200160001515815250600e60008360000160009054906101000a900473ffffffffffffffffffffffffffffffffffffffff1673ffffffffffffffffffffffffffffffffffffffff1673ffffffffffffffffffffffffffffffffffffffff168152602001908152602001600020600082015181600001908051906020019061261a929190612780565b506020820151816001019060001916905560408201518160020155606082015181600301556080820151816004015560a08201518160050160006101000a81548160ff021916908315150217905550905050600f80548060010182816126809190612934565b916000526020600020900160008360000160009054906101000a900473ffffffffffffffffffffffffffffffffffffffff16909190916101000a81548173ffffffffffffffffffffffffffffffffffffffff021916908373ffffffffffffffffffffffffffffffffffffffff16021790555050612701848260020154612226565b9350828060010193505061246c565b839550505050505092915050565b6000808314156127315760009050612748565b81826001850381151561274057fe5b046001010290505b92915050565b81548183558181151161277b5760030281600302836000526020600020918201910161277a9190612960565b5b505050565b828054600181600116156101000203166002900490600052602060002090601f016020900481019282601f106127c157805160ff19168380011785556127ef565b828001600101855582156127ef579182015b828111156127ee5782518255916020019190600101906127d3565b5b5090506127fc91906129be565b5090565b8154818355818115116128275781836000526020600020918201910161282691906129e3565b5b505050565b828054600181600116156101000203166002900490600052602060002090601f016020900481019282601f1061286d57803560ff191683800117855561289b565b8280016001018555821561289b579182015b8281111561289a57823582559160200191906001019061287f565b5b5090506128a891906129be565b5090565b602060405190810160405280600081525090565b602060405190810160405280600081525090565b828054828255906000526020600020908101928215612923579160200282015b82811115612922578251829080519060200190612912929190612780565b50916020019190600101906128f4565b5b50905061293091906129e3565b5090565b81548183558181151161295b5781836000526020600020918201910161295a91906129be565b5b505050565b6129bb91905b808211156129b757600080820160006101000a81549073ffffffffffffffffffffffffffffffffffffffff02191690556001820160006129a69190612a0f565b600282016000905550600301612966565b5090565b90565b6129e091905b808211156129dc5760008160009055506001016129c4565b5090565b90565b612a0c91905b80821115612a0857600081816129ff9190612a0f565b506001016129e9565b5090565b90565b50805460018160011615610100020316600290046000825580601f10612a355750612a54565b601f016020900490600052602060002090810190612a5391906129be565b5b505600a165627a7a7230582051e1311a65c6f4890980011cd7b3f9fe48d90066fcf84ccff1215fa78483c0730029",
  "source": "pragma solidity 0.4.18;\n\nimport \"./CryptoLegacy.sol\";\n\ncontract CryptoLegacyDebug is CryptoLegacy {\n\n  function CryptoLegacyDebug(uint _checkInInterval) CryptoLegacy(_checkInInterval) public {\n    // nop\n  }\n\n  // Time\n\n  uint public debugTimestamp = 42;\n\n  function increaseTimeBy(uint sec) external {\n    debugTimestamp += sec;\n  }\n\n  function getBlockTimestamp() internal view returns (uint) {\n    return debugTimestamp;\n  }\n\n  // Version\n\n  uint public debugVersion;\n\n  function getVersion() public view returns (uint) {\n    if (debugVersion == 0) {\n      return VERSION;\n    } else {\n      return debugVersion;\n    }\n  }\n\n  function setVersion(uint newVersion) external {\n    debugVersion = newVersion;\n  }\n\n}\n",
  "sourcePath": "/Users/sam/dev/projects/crypto-legacy/crypto-legacy/truffle/contracts/CryptoLegacyDebug.sol",
  "compiler": {
    "name": "solc",
    "version": "0.4.18+commit.9cf6e910.Emscripten.clang"
  },
  "schemaVersion": "1.0.1",
  "updatedAt": "2017-12-23T18:57:06.394Z"
}