{
  "contractName": "CryptoLegacyDebug",
  "abi": [
    {
      "constant": true,
      "inputs": [],
      "name": "getNumSuppliedKeyParts",
      "outputs": [
        {
          "name": "",
          "type": "uint256"
        }
      ],
      "payable": false,
      "stateMutability": "view",
      "type": "function"
    },
    {
      "constant": true,
      "inputs": [
        {
          "name": "addr",
          "type": "address"
        }
      ],
      "name": "didSendProposal",
      "outputs": [
        {
          "name": "",
          "type": "bool"
        }
      ],
      "payable": false,
      "stateMutability": "view",
      "type": "function"
    },
    {
      "constant": true,
      "inputs": [],
      "name": "getVersion",
      "outputs": [
        {
          "name": "",
          "type": "uint256"
        }
      ],
      "payable": false,
      "stateMutability": "view",
      "type": "function"
    },
    {
      "constant": false,
      "inputs": [
        {
          "name": "publicKey",
          "type": "bytes"
        },
        {
          "name": "keepingFee",
          "type": "uint256"
        }
      ],
      "name": "submitKeeperProposal",
      "outputs": [],
      "payable": false,
      "stateMutability": "nonpayable",
      "type": "function"
    },
    {
      "constant": true,
      "inputs": [
        {
          "name": "addr",
          "type": "address"
        }
      ],
      "name": "isActiveKeeper",
      "outputs": [
        {
          "name": "",
          "type": "bool"
        }
      ],
      "payable": false,
      "stateMutability": "view",
      "type": "function"
    },
    {
      "constant": false,
      "inputs": [
        {
          "name": "keyPart",
          "type": "bytes"
        }
      ],
      "name": "supplyKey",
      "outputs": [],
      "payable": false,
      "stateMutability": "nonpayable",
      "type": "function"
    },
    {
      "constant": false,
      "inputs": [],
      "name": "ownerCheckIn",
      "outputs": [],
      "payable": true,
      "stateMutability": "payable",
      "type": "function"
    },
    {
      "constant": true,
      "inputs": [
        {
          "name": "",
          "type": "uint256"
        }
      ],
      "name": "activeKeepersAddresses",
      "outputs": [
        {
          "name": "",
          "type": "address"
        }
      ],
      "payable": false,
      "stateMutability": "view",
      "type": "function"
    },
    {
      "constant": true,
      "inputs": [
        {
          "name": "",
          "type": "address"
        }
      ],
      "name": "proposedKeeperFlags",
      "outputs": [
        {
          "name": "",
          "type": "bool"
        }
      ],
      "payable": false,
      "stateMutability": "view",
      "type": "function"
    },
    {
      "constant": false,
      "inputs": [
        {
          "name": "newVersion",
          "type": "uint256"
        }
      ],
      "name": "setVersion",
      "outputs": [],
      "payable": false,
      "stateMutability": "nonpayable",
      "type": "function"
    },
    {
      "constant": false,
      "inputs": [
        {
          "name": "selectedProposalIndices",
          "type": "uint256[]"
        },
        {
          "name": "keyPartHashes",
          "type": "bytes32[]"
        },
        {
          "name": "encryptedKeyParts",
          "type": "bytes"
        },
        {
          "name": "_encryptedData",
          "type": "bytes"
        },
        {
          "name": "dataHash",
          "type": "bytes32"
        },
        {
          "name": "aesCounter",
          "type": "bytes16"
        }
      ],
      "name": "acceptKeepers",
      "outputs": [],
      "payable": true,
      "stateMutability": "payable",
      "type": "function"
    },
    {
      "constant": true,
      "inputs": [],
      "name": "debugVersion",
      "outputs": [
        {
          "name": "",
          "type": "uint256"
        }
      ],
      "payable": false,
      "stateMutability": "view",
      "type": "function"
    },
    {
      "constant": true,
      "inputs": [],
      "name": "isAcceptingKeeperProposals",
      "outputs": [
        {
          "name": "",
          "type": "bool"
        }
      ],
      "payable": false,
      "stateMutability": "view",
      "type": "function"
    },
    {
      "constant": true,
      "inputs": [],
      "name": "lastOwnerCheckInAt",
      "outputs": [
        {
          "name": "",
          "type": "uint256"
        }
      ],
      "payable": false,
      "stateMutability": "view",
      "type": "function"
    },
    {
      "constant": true,
      "inputs": [
        {
          "name": "",
          "type": "uint256"
        }
      ],
      "name": "keeperProposals",
      "outputs": [
        {
          "name": "keeperAddress",
          "type": "address"
        },
        {
          "name": "publicKey",
          "type": "bytes"
        },
        {
          "name": "keepingFee",
          "type": "uint256"
        }
      ],
      "payable": false,
      "stateMutability": "view",
      "type": "function"
    },
    {
      "constant": true,
      "inputs": [],
      "name": "getNumProposals",
      "outputs": [
        {
          "name": "",
          "type": "uint256"
        }
      ],
      "payable": false,
      "stateMutability": "view",
      "type": "function"
    },
    {
      "constant": true,
      "inputs": [],
      "name": "calculateApproximateCheckInPrice",
      "outputs": [
        {
          "name": "",
          "type": "uint256"
        }
      ],
      "payable": false,
      "stateMutability": "view",
      "type": "function"
    },
    {
      "constant": true,
      "inputs": [],
      "name": "totalKeepingFee",
      "outputs": [
        {
          "name": "",
          "type": "uint256"
        }
      ],
      "payable": false,
      "stateMutability": "view",
      "type": "function"
    },
    {
      "constant": true,
      "inputs": [],
      "name": "getOwner",
      "outputs": [
        {
          "name": "",
          "type": "address"
        }
      ],
      "payable": false,
      "stateMutability": "view",
      "type": "function"
    },
    {
      "constant": true,
      "inputs": [],
      "name": "KEEPING_FEE_ROUNDING_MULT",
      "outputs": [
        {
          "name": "",
          "type": "uint256"
        }
      ],
      "payable": false,
      "stateMutability": "view",
      "type": "function"
    },
    {
      "constant": true,
      "inputs": [],
      "name": "owner",
      "outputs": [
        {
          "name": "",
          "type": "address"
        }
      ],
      "payable": false,
      "stateMutability": "view",
      "type": "function"
    },
    {
      "constant": true,
      "inputs": [],
      "name": "continuationContractAddress",
      "outputs": [
        {
          "name": "",
          "type": "address"
        }
      ],
      "payable": false,
      "stateMutability": "view",
      "type": "function"
    },
    {
      "constant": true,
      "inputs": [],
      "name": "debugTimestamp",
      "outputs": [
        {
          "name": "",
          "type": "uint256"
        }
      ],
      "payable": false,
      "stateMutability": "view",
      "type": "function"
    },
    {
      "constant": true,
      "inputs": [],
      "name": "MINIMUM_CHECK_IN_INTERVAL",
      "outputs": [
        {
          "name": "",
          "type": "uint256"
        }
      ],
      "payable": false,
      "stateMutability": "view",
      "type": "function"
    },
    {
      "constant": true,
      "inputs": [],
      "name": "checkInInterval",
      "outputs": [
        {
          "name": "",
          "type": "uint256"
        }
      ],
      "payable": false,
      "stateMutability": "view",
      "type": "function"
    },
    {
      "constant": true,
      "inputs": [],
      "name": "state",
      "outputs": [
        {
          "name": "",
          "type": "uint8"
        }
      ],
      "payable": false,
      "stateMutability": "view",
      "type": "function"
    },
    {
      "constant": false,
      "inputs": [],
      "name": "keeperCheckIn",
      "outputs": [],
      "payable": false,
      "stateMutability": "nonpayable",
      "type": "function"
    },
    {
      "constant": false,
      "inputs": [
        {
          "name": "_continuationContractAddress",
          "type": "address"
        }
      ],
      "name": "announceContinuationContract",
      "outputs": [],
      "payable": false,
      "stateMutability": "nonpayable",
      "type": "function"
    },
    {
      "constant": true,
      "inputs": [
        {
          "name": "",
          "type": "address"
        }
      ],
      "name": "activeKeepers",
      "outputs": [
        {
          "name": "publicKey",
          "type": "bytes"
        },
        {
          "name": "keyPartHash",
          "type": "bytes32"
        },
        {
          "name": "keepingFee",
          "type": "uint256"
        },
        {
          "name": "balance",
          "type": "uint256"
        },
        {
          "name": "lastCheckInAt",
          "type": "uint256"
        },
        {
          "name": "keyPartSupplied",
          "type": "bool"
        }
      ],
      "payable": false,
      "stateMutability": "view",
      "type": "function"
    },
    {
      "constant": true,
      "inputs": [
        {
          "name": "selectedProposalIndices",
          "type": "uint256[]"
        }
      ],
      "name": "calculateActivationPrice",
      "outputs": [
        {
          "name": "",
          "type": "uint256"
        }
      ],
      "payable": false,
      "stateMutability": "view",
      "type": "function"
    },
    {
      "constant": false,
      "inputs": [
        {
          "name": "sec",
          "type": "uint256"
        }
      ],
      "name": "increaseTimeBy",
      "outputs": [],
      "payable": false,
      "stateMutability": "nonpayable",
      "type": "function"
    },
    {
      "constant": true,
      "inputs": [
        {
          "name": "index",
          "type": "uint256"
        }
      ],
      "name": "getSuppliedKeyPart",
      "outputs": [
        {
          "name": "",
          "type": "bytes"
        }
      ],
      "payable": false,
      "stateMutability": "view",
      "type": "function"
    },
    {
      "constant": true,
      "inputs": [],
      "name": "getNumKeepers",
      "outputs": [
        {
          "name": "",
          "type": "uint256"
        }
      ],
      "payable": false,
      "stateMutability": "view",
      "type": "function"
    },
    {
      "constant": true,
      "inputs": [],
      "name": "encryptedData",
      "outputs": [
        {
          "name": "encryptedData",
          "type": "bytes"
        },
        {
          "name": "aesCounter",
          "type": "bytes16"
        },
        {
          "name": "dataHash",
          "type": "bytes32"
        },
        {
          "name": "encryptedKeyParts",
          "type": "bytes"
        }
      ],
      "payable": false,
      "stateMutability": "view",
      "type": "function"
    },
    {
      "constant": false,
      "inputs": [],
      "name": "cancel",
      "outputs": [],
      "payable": true,
      "stateMutability": "payable",
      "type": "function"
    },
    {
      "constant": true,
      "inputs": [],
      "name": "VERSION",
      "outputs": [
        {
          "name": "",
          "type": "uint256"
        }
      ],
      "payable": false,
      "stateMutability": "view",
      "type": "function"
    },
    {
      "inputs": [
        {
          "name": "_checkInInterval",
          "type": "uint256"
        }
      ],
      "payable": false,
      "stateMutability": "nonpayable",
      "type": "constructor"
    },
    {
      "anonymous": false,
      "inputs": [],
      "name": "KeysNeeded",
      "type": "event"
    },
    {
      "anonymous": false,
      "inputs": [
        {
          "indexed": false,
          "name": "continuationContractAddress",
          "type": "address"
        }
      ],
      "name": "ContinuationContractAnnounced",
      "type": "event"
    },
    {
      "anonymous": false,
      "inputs": [],
      "name": "Cancelled",
      "type": "event"
    }
  ],
  "bytecode": "0x6060604052336000806101000a81548173ffffffffffffffffffffffffffffffffffffffff021916908373ffffffffffffffffffffffffffffffffffffffff1602179055506000600160006101000a81548173ffffffffffffffffffffffffffffffffffffffff021916908373ffffffffffffffffffffffffffffffffffffffff1602179055506000600460006101000a81548160ff021916908360038111156100a557fe5b0217905550602a60105534156100ba57600080fd5b604051602080612a628339810160405280805190602001909190505080603c81101515156100e757600080fd5b806002819055505050612963806100ff6000396000f3006060604052600436106101c2576000357c0100000000000000000000000000000000000000000000000000000000900463ffffffff16806304ed3e4e146101c7578063071f8601146101f05780630d8e6e2c1461024157806317995d7b1461026a5780632224768d146102a1578063259c3aed146102f257806339dd4f6d146103205780633afd601a1461032a5780633f135f861461038d578063408def1e146103de5780634379ee69146104015780636b72096e14610489578063760a4440146104b257806376eca21e146104df578063781970e614610508578063798974dd146105fb5780637a54c1921461062457806387a083ca1461064d578063893d20e8146106765780638d594651146106cb5780638da5cb5b146106f4578063a3521f1314610749578063b63c9e441461079e578063ba4ff498146107c7578063bfd25fa5146107f0578063c19d93fb14610819578063c53c9bb614610850578063cc1b3b9c14610865578063cdd35b2d1461089e578063ce35d2461461099c578063d4cd51bf14610a0a578063d830d1e514610a2d578063d97cdcbc14610ac9578063e9fc715a14610af2578063ea8a1af014610c62578063ffa1ad7414610c6c575b600080fd5b34156101d257600080fd5b6101da610c95565b6040518082815260200191505060405180910390f35b34156101fb57600080fd5b610227600480803573ffffffffffffffffffffffffffffffffffffffff16906020019091905050610ca5565b604051808215151515815260200191505060405180910390f35b341561024c57600080fd5b610254610cfb565b6040518082815260200191505060405180910390f35b341561027557600080fd5b61029f60048080359060200190820180359060200191909192908035906020019091905050610d19565b005b34156102ac57600080fd5b6102d8600480803573ffffffffffffffffffffffffffffffffffffffff16906020019091905050610fb8565b604051808215151515815260200191505060405180910390f35b34156102fd57600080fd5b61031e60048080359060200190820180359060200191909192905050611006565b005b6103286111b5565b005b341561033557600080fd5b61034b60048080359060200190919050506112af565b604051808273ffffffffffffffffffffffffffffffffffffffff1673ffffffffffffffffffffffffffffffffffffffff16815260200191505060405180910390f35b341561039857600080fd5b6103c4600480803573ffffffffffffffffffffffffffffffffffffffff169060200190919050506112ee565b604051808215151515815260200191505060405180910390f35b34156103e957600080fd5b6103ff600480803590602001909190505061130e565b005b61048760048080359060200190820180359060200191909192908035906020019082018035906020019190919290803590602001908201803590602001919091929080359060200190820180359060200191909192908035600019169060200190919080356fffffffffffffffffffffffffffffffff1916906020019091905050611318565b005b341561049457600080fd5b61049c611618565b6040518082815260200191505060405180910390f35b34156104bd57600080fd5b6104c561161e565b604051808215151515815260200191505060405180910390f35b34156104ea57600080fd5b6104f261164d565b6040518082815260200191505060405180910390f35b341561051357600080fd5b6105296004808035906020019091905050611653565b604051808473ffffffffffffffffffffffffffffffffffffffff1673ffffffffffffffffffffffffffffffffffffffff168152602001806020018381526020018281038252848181546001816001161561010002031660029004815260200191508054600181600116156101000203166002900480156105ea5780601f106105bf576101008083540402835291602001916105ea565b820191906000526020600020905b8154815290600101906020018083116105cd57829003601f168201915b505094505050505060405180910390f35b341561060657600080fd5b61060e6116ab565b6040518082815260200191505060405180910390f35b341561062f57600080fd5b6106376116b8565b6040518082815260200191505060405180910390f35b341561065857600080fd5b6106606117f5565b6040518082815260200191505060405180910390f35b341561068157600080fd5b6106896117fb565b604051808273ffffffffffffffffffffffffffffffffffffffff1673ffffffffffffffffffffffffffffffffffffffff16815260200191505060405180910390f35b34156106d657600080fd5b6106de611824565b6040518082815260200191505060405180910390f35b34156106ff57600080fd5b610707611830565b604051808273ffffffffffffffffffffffffffffffffffffffff1673ffffffffffffffffffffffffffffffffffffffff16815260200191505060405180910390f35b341561075457600080fd5b61075c611855565b604051808273ffffffffffffffffffffffffffffffffffffffff1673ffffffffffffffffffffffffffffffffffffffff16815260200191505060405180910390f35b34156107a957600080fd5b6107b161187b565b6040518082815260200191505060405180910390f35b34156107d257600080fd5b6107da611881565b6040518082815260200191505060405180910390f35b34156107fb57600080fd5b610803611886565b6040518082815260200191505060405180910390f35b341561082457600080fd5b61082c61188c565b6040518082600381111561083c57fe5b60ff16815260200191505060405180910390f35b341561085b57600080fd5b61086361189f565b005b341561087057600080fd5b61089c600480803573ffffffffffffffffffffffffffffffffffffffff16906020019091905050611a05565b005b34156108a957600080fd5b6108d5600480803573ffffffffffffffffffffffffffffffffffffffff16906020019091905050611d7f565b60405180806020018760001916600019168152602001868152602001858152602001848152602001831515151581526020018281038252888181546001816001161561010002031660029004815260200191508054600181600116156101000203166002900480156109885780601f1061095d57610100808354040283529160200191610988565b820191906000526020600020905b81548152906001019060200180831161096b57829003601f168201915b505097505050505050505060405180910390f35b34156109a757600080fd5b6109f4600480803590602001908201803590602001908080602002602001604051908101604052809392919081815260200183836020028082843782019150505050505091905050611dc7565b6040518082815260200191505060405180910390f35b3415610a1557600080fd5b610a2b6004808035906020019091905050611e42565b005b3415610a3857600080fd5b610a4e6004808035906020019091905050611e55565b6040518080602001828103825283818151815260200191508051906020019080838360005b83811015610a8e578082015181840152602081019050610a73565b50505050905090810190601f168015610abb5780820380516001836020036101000a031916815260200191505b509250505060405180910390f35b3415610ad457600080fd5b610adc611f1a565b6040518082815260200191505060405180910390f35b3415610afd57600080fd5b610b05611f27565b6040518080602001856fffffffffffffffffffffffffffffffff19166fffffffffffffffffffffffffffffffff19168152602001846000191660001916815260200180602001838103835287818154600181600116156101000203166002900481526020019150805460018160011615610100020316600290048015610bcc5780601f10610ba157610100808354040283529160200191610bcc565b820191906000526020600020905b815481529060010190602001808311610baf57829003601f168201915b5050838103825284818154600181600116156101000203166002900481526020019150805460018160011615610100020316600290048015610c4f5780601f10610c2457610100808354040283529160200191610c4f565b820191906000526020600020905b815481529060010190602001808311610c3257829003601f168201915b5050965050505050505060405180910390f35b610c6a611f60565b005b3415610c7757600080fd5b610c7f612101565b6040518082815260200191505060405180910390f35b6000600560040180549050905090565b6000600b60008373ffffffffffffffffffffffffffffffffffffffff1673ffffffffffffffffffffffffffffffffffffffff16815260200190815260200160002060009054906101000a900460ff169050919050565b6000806011541415610d105760019050610d16565b60115490505b90565b600080806003811115610d2857fe5b600460009054906101000a900460ff166003811115610d4357fe5b141515610d4f57600080fd5b6000809054906101000a900473ffffffffffffffffffffffffffffffffffffffff1673ffffffffffffffffffffffffffffffffffffffff163373ffffffffffffffffffffffffffffffffffffffff1614151515610dab57600080fd5b610db433610ca5565b151515610dc057600080fd5b60808585905011151515610dd357600080fd5b84846040518083838082843782019150509250505060405180910390209150600c6000836000191660001916815260200190815260200160002060009054906101000a900460ff16151515610e2757600080fd5b600a8054806001018281610e3b919061262e565b916000526020600020906003020160006060604051908101604052803373ffffffffffffffffffffffffffffffffffffffff16815260200189898080601f016020809104026020016040519081016040528093929190818152602001838380828437820191505050505050815260200187815250909190915060008201518160000160006101000a81548173ffffffffffffffffffffffffffffffffffffffff021916908373ffffffffffffffffffffffffffffffffffffffff1602179055506020820151816001019080519060200190610f17929190612660565b50604082015181600201555050506001600b60003373ffffffffffffffffffffffffffffffffffffffff1673ffffffffffffffffffffffffffffffffffffffff16815260200190815260200160002060006101000a81548160ff0219169083151502179055506001600c6000846000191660001916815260200190815260200160002060006101000a81548160ff0219169083151502179055505050505050565b600080600d60008473ffffffffffffffffffffffffffffffffffffffff1673ffffffffffffffffffffffffffffffffffffffff16815260200190815260200160002060040154119050919050565b600080600061101433610fb8565b151561101f57600080fd5b600280600381111561102d57fe5b600460009054906101000a900460ff16600381111561104857fe5b14151561105457600080fd5b600d60003373ffffffffffffffffffffffffffffffffffffffff1673ffffffffffffffffffffffffffffffffffffffff16815260200190815260200160002093508360050160009054906101000a900460ff161515156110b357600080fd5b8585604051808383808284378201915050925050506040518091039020925083600101546000191683600019161415156110ec57600080fd5b6005600401805480600101828161110391906126e0565b91600052602060002090016000888890919290919250919061112692919061270c565b505060018460050160006101000a81548160ff02191690831515021790555061115784600301548560020154612106565b91506000846003018190555060008211156111ad573373ffffffffffffffffffffffffffffffffffffffff166108fc839081150290604051600060405180830381858888f1935050505015156111ac57600080fd5b5b505050505050565b60008060009054906101000a900473ffffffffffffffffffffffffffffffffffffffff1673ffffffffffffffffffffffffffffffffffffffff163373ffffffffffffffffffffffffffffffffffffffff1614151561121257600080fd5b600180600381111561122057fe5b600460009054906101000a900460ff16600381111561123b57fe5b14151561124757600080fd5b6112516001612124565b915061125b61226e565b60038190555060008211156112ab573373ffffffffffffffffffffffffffffffffffffffff166108fc839081150290604051600060405180830381858888f1935050505015156112aa57600080fd5b5b5050565b600e818154811015156112be57fe5b90600052602060002090016000915054906101000a900473ffffffffffffffffffffffffffffffffffffffff1681565b600b6020528060005260406000206000915054906101000a900460ff1681565b8060118190555050565b60008060009054906101000a900473ffffffffffffffffffffffffffffffffffffffff1673ffffffffffffffffffffffffffffffffffffffff163373ffffffffffffffffffffffffffffffffffffffff1614151561137557600080fd5b600080600381111561138357fe5b600460009054906101000a900460ff16600381111561139e57fe5b1415156113aa57600080fd5b60a06040519081016040528087878080601f0160208091040260200160405190810160405280939291908181526020018383808284378201915050505050508152602001846fffffffffffffffffffffffffffffffff191681526020018560001916815260200189898080601f016020809104026020016040519081016040528093929190818152602001838380828437820191505050505050815260200160006040518059106114585750595b90808252806020026020018201604052801561148e57816020015b61147b61278c565b8152602001906001900390816114735790505b50815250600560008201518160000190805190602001906114b0929190612660565b5060208201518160010160006101000a8154816fffffffffffffffffffffffffffffffff02191690837001000000000000000000000000000000009004021790555060408201518160020190600019169055606082015181600301908051906020019061151e929190612660565b50608082015181600401908051906020019061153b9291906127a0565b509050506115a78c8c808060200260200160405190810160405280939291908181526020018383602002808284378201915050505050508b8b80806020026020016040519081016040528093929190818152602001838360200280828437820191505050505050612278565b600f819055503073ffffffffffffffffffffffffffffffffffffffff16319150600f5482101515156115d857600080fd5b6001600460006101000a81548160ff021916908360038111156115f757fe5b021790555061160461226e565b600381905550505050505050505050505050565b60115481565b600080600381111561162c57fe5b600460009054906101000a900460ff16600381111561164757fe5b14905090565b60035481565b600a8181548110151561166257fe5b90600052602060002090600302016000915090508060000160009054906101000a900473ffffffffffffffffffffffffffffffffffffffff169080600101908060020154905083565b6000600a80549050905090565b6000806000806000806000806116cc612546565b965060009550600094505b600e805490508510156117ab57600d6000600e878154811015156116f757fe5b906000526020600020900160009054906101000a900473ffffffffffffffffffffffffffffffffffffffff1673ffffffffffffffffffffffffffffffffffffffff1673ffffffffffffffffffffffffffffffffffffffff1681526020019081526020016000209350670de0b6b3a76400006117768560020154896125b2565b81151561177f57fe5b049250611790846003015484612106565b915061179c8683612106565b955084806001019550506116d7565b6117b786600f54612106565b95503073ffffffffffffffffffffffffffffffffffffffff1631905085811015156117e557600097506117eb565b80860397505b5050505050505090565b600f5481565b60008060009054906101000a900473ffffffffffffffffffffffffffffffffffffffff16905090565b670de0b6b3a764000081565b6000809054906101000a900473ffffffffffffffffffffffffffffffffffffffff1681565b600160009054906101000a900473ffffffffffffffffffffffffffffffffffffffff1681565b60105481565b603c81565b60025481565b600460009054906101000a900460ff1681565b6000806000806118ae33610fb8565b15156118b957600080fd5b6118c161226e565b9350600d60003373ffffffffffffffffffffffffffffffffffffffff1673ffffffffffffffffffffffffffffffffffffffff16815260200190815260200160002092508383600401819055506001600381111561191a57fe5b600460009054906101000a900460ff16600381111561193557fe5b14156119a457611947846003546125e5565b91506002548211156119a3576002600460006101000a81548160ff0219169083600381111561197257fe5b02179055507eea067c7113f3002f0fc5fa11a22f4b7d7c84b63d99d4871ba53c077afc8da560405160405180910390a15b5b8260030154905060008111156119ff57600083600301819055503373ffffffffffffffffffffffffffffffffffffffff166108fc829081150290604051600060405180830381858888f1935050505015156119fe57600080fd5b5b50505050565b60008060009054906101000a900473ffffffffffffffffffffffffffffffffffffffff1673ffffffffffffffffffffffffffffffffffffffff163373ffffffffffffffffffffffffffffffffffffffff16141515611a6257600080fd5b6001806003811115611a7057fe5b600460009054906101000a900460ff166003811115611a8b57fe5b141515611a9757600080fd5b6000600160009054906101000a900473ffffffffffffffffffffffffffffffffffffffff1673ffffffffffffffffffffffffffffffffffffffff16141515611ade57600080fd5b829150611ae96117fb565b73ffffffffffffffffffffffffffffffffffffffff168273ffffffffffffffffffffffffffffffffffffffff1663893d20e86000604051602001526040518163ffffffff167c0100000000000000000000000000000000000000000000000000000000028152600401602060405180830381600087803b1515611b6b57600080fd5b6102c65a03f11515611b7c57600080fd5b5050506040518051905073ffffffffffffffffffffffffffffffffffffffff16141515611ba857600080fd5b611bb0610cfb565b8273ffffffffffffffffffffffffffffffffffffffff16630d8e6e2c6000604051602001526040518163ffffffff167c0100000000000000000000000000000000000000000000000000000000028152600401602060405180830381600087803b1515611c1c57600080fd5b6102c65a03f11515611c2d57600080fd5b5050506040518051905010151515611c4457600080fd5b8173ffffffffffffffffffffffffffffffffffffffff1663760a44406000604051602001526040518163ffffffff167c0100000000000000000000000000000000000000000000000000000000028152600401602060405180830381600087803b1515611cb057600080fd5b6102c65a03f11515611cc157600080fd5b505050604051805190501515611cd657600080fd5b82600160006101000a81548173ffffffffffffffffffffffffffffffffffffffff021916908373ffffffffffffffffffffffffffffffffffffffff1602179055507fd517b3f28983d7964c0ca51f29522226735af584b0a113f040f8a8b10686873b83604051808273ffffffffffffffffffffffffffffffffffffffff1673ffffffffffffffffffffffffffffffffffffffff16815260200191505060405180910390a1505050565b600d60205280600052604060002060009150905080600001908060010154908060020154908060030154908060040154908060050160009054906101000a900460ff16905086565b6000806000806000809350600092505b8551831015611e36578583815181101515611dee57fe5b906020019060200201519150600a82815481101515611e0957fe5b90600052602060002090600302019050611e27848260020154612106565b93508280600101935050611dd7565b83945050505050919050565b8060106000828254019250508190555050565b611e5d612800565b600560040182815481101515611e6f57fe5b90600052602060002090018054600181600116156101000203166002900480601f016020809104026020016040519081016040528092919081815260200182805460018160011615610100020316600290048015611f0e5780601f10611ee357610100808354040283529160200191611f0e565b820191906000526020600020905b815481529060010190602001808311611ef157829003601f168201915b50505050509050919050565b6000600e80549050905090565b600580600001908060010160009054906101000a9004700100000000000000000000000000000000029080600201549080600301905084565b60008060009054906101000a900473ffffffffffffffffffffffffffffffffffffffff1673ffffffffffffffffffffffffffffffffffffffff163373ffffffffffffffffffffffffffffffffffffffff16141515611fbd57600080fd5b60006001816003811115611fcd57fe5b600460009054906101000a900460ff166003811115611fe857fe5b14806120185750806003811115611ffb57fe5b600460009054906101000a900460ff16600381111561201657fe5b145b151561202357600080fd5b600092506001600381111561203457fe5b600460009054906101000a900460ff16600381111561204f57fe5b14156120625761205f6000612124565b92505b6003600460006101000a81548160ff0219169083600381111561208157fe5b02179055507f63b958841f79ab97cb5456da181454b9932c0e15a3b17f1cbd27e2a8bc61043760405160405180910390a160008311156120fc573373ffffffffffffffffffffffffffffffffffffffff166108fc849081150290604051600060405180830381858888f1935050505015156120fb57600080fd5b5b505050565b600181565b600080828401905083811015151561211a57fe5b8091505092915050565b6000806000806000806000612137612546565b955060009450600093505b600e8054905084101561222057600d6000600e8681548110151561216257fe5b906000526020600020900160009054906101000a900473ffffffffffffffffffffffffffffffffffffffff1673ffffffffffffffffffffffffffffffffffffffff1673ffffffffffffffffffffffffffffffffffffffff1681526020019081526020016000209250670de0b6b3a76400006121e18460020154886125b2565b8115156121ea57fe5b0491506121fb836003015483612106565b8360030181905550612211858460030154612106565b94508380600101945050612142565b87156122355761223285600f54612106565b94505b3073ffffffffffffffffffffffffffffffffffffffff1631905084811015151561225e57600080fd5b8481039650505050505050919050565b6000601054905090565b60008060008060008061228961226e565b945060009350600092505b87518310156125385787838151811015156122ab57fe5b906020019060200201519150600a828154811015156122c657fe5b9060005260206000209060030201905060c060405190810160405280826001018054600181600116156101000203166002900480601f01602080910402602001604051908101604052809291908181526020018280546001816001161561010002031660029004801561237a5780601f1061234f5761010080835404028352916020019161237a565b820191906000526020600020905b81548152906001019060200180831161235d57829003601f168201915b50505050508152602001888581518110151561239257fe5b90602001906020020151600019168152602001826002015481526020016000815260200186815260200160001515815250600d60008360000160009054906101000a900473ffffffffffffffffffffffffffffffffffffffff1673ffffffffffffffffffffffffffffffffffffffff1673ffffffffffffffffffffffffffffffffffffffff1681526020019081526020016000206000820151816000019080519060200190612442929190612660565b506020820151816001019060001916905560408201518160020155606082015181600301556080820151816004015560a08201518160050160006101000a81548160ff021916908315150217905550905050600e80548060010182816124a89190612814565b916000526020600020900160008360000160009054906101000a900473ffffffffffffffffffffffffffffffffffffffff16909190916101000a81548173ffffffffffffffffffffffffffffffffffffffff021916908373ffffffffffffffffffffffffffffffffffffffff16021790555050612529848260020154612106565b93508280600101935050612294565b839550505050505092915050565b60008061255c61255461226e565b6003546125e5565b9050600254811115151561256f57600080fd5b61257b816102586125fe565b905060025481111561258d5760025490505b6002546125a2670de0b6b3a7640000836125b2565b8115156125ab57fe5b0491505090565b600080828402905060008414806125d357508284828115156125d057fe5b04145b15156125db57fe5b8091505092915050565b60008282111515156125f357fe5b818303905092915050565b6000808314156126115760009050612628565b81826001850381151561262057fe5b046001010290505b92915050565b81548183558181151161265b5760030281600302836000526020600020918201910161265a9190612840565b5b505050565b828054600181600116156101000203166002900490600052602060002090601f016020900481019282601f106126a157805160ff19168380011785556126cf565b828001600101855582156126cf579182015b828111156126ce5782518255916020019190600101906126b3565b5b5090506126dc919061289e565b5090565b8154818355818115116127075781836000526020600020918201910161270691906128c3565b5b505050565b828054600181600116156101000203166002900490600052602060002090601f016020900481019282601f1061274d57803560ff191683800117855561277b565b8280016001018555821561277b579182015b8281111561277a57823582559160200191906001019061275f565b5b509050612788919061289e565b5090565b602060405190810160405280600081525090565b8280548282559060005260206000209081019282156127ef579160200282015b828111156127ee5782518290805190602001906127de929190612660565b50916020019190600101906127c0565b5b5090506127fc91906128c3565b5090565b602060405190810160405280600081525090565b81548183558181151161283b5781836000526020600020918201910161283a919061289e565b5b505050565b61289b91905b8082111561289757600080820160006101000a81549073ffffffffffffffffffffffffffffffffffffffff021916905560018201600061288691906128ef565b600282016000905550600301612846565b5090565b90565b6128c091905b808211156128bc5760008160009055506001016128a4565b5090565b90565b6128ec91905b808211156128e857600081816128df91906128ef565b506001016128c9565b5090565b90565b50805460018160011615610100020316600290046000825580601f106129155750612934565b601f016020900490600052602060002090810190612933919061289e565b5b505600a165627a7a72305820f0ee4669624d3ca964a7824e96c2f18d6df3f163e84475adc491b3b0579fc2970029",
  "source": "pragma solidity 0.4.18;\n\nimport \"./CryptoLegacy.sol\";\n\ncontract CryptoLegacyDebug is CryptoLegacy {\n\n  function CryptoLegacyDebug(uint _checkInInterval) CryptoLegacy(_checkInInterval) public {\n    // nop\n  }\n\n  // Time\n\n  uint public debugTimestamp = 42;\n\n  function increaseTimeBy(uint sec) external {\n    debugTimestamp += sec;\n  }\n\n  function getBlockTimestamp() internal view returns (uint) {\n    return debugTimestamp;\n  }\n\n  // Version\n\n  uint public debugVersion;\n\n  function getVersion() public view returns (uint) {\n    if (debugVersion == 0) {\n      return VERSION;\n    } else {\n      return debugVersion;\n    }\n  }\n\n  function setVersion(uint newVersion) external {\n    debugVersion = newVersion;\n  }\n\n}\n",
  "sourcePath": "/Users/eugene/dev/crypto-legacy-internal/truffle/contracts/CryptoLegacyDebug.sol",
  "compiler": {
    "name": "solc",
    "version": "0.4.18+commit.9cf6e910.Emscripten.clang"
  },
  "schemaVersion": "1.0.1",
  "updatedAt": "2017-12-16T20:12:05.110Z"
}