{
  "contractName": "Registry",
  "abi": [
    {
      "constant": false,
      "inputs": [
        {
          "name": "id",
          "type": "string"
        }
      ],
      "name": "updateAddress",
      "outputs": [],
      "payable": false,
      "stateMutability": "nonpayable",
      "type": "function"
    },
    {
      "constant": true,
      "inputs": [
        {
          "name": "id",
          "type": "string"
        }
      ],
      "name": "getContractAddress",
      "outputs": [
        {
          "name": "",
          "type": "address"
        }
      ],
      "payable": false,
      "stateMutability": "view",
      "type": "function"
    },
    {
      "constant": true,
      "inputs": [
        {
          "name": "owner",
          "type": "address"
        }
      ],
      "name": "getNumContractsByOwner",
      "outputs": [
        {
          "name": "",
          "type": "uint256"
        }
      ],
      "payable": false,
      "stateMutability": "view",
      "type": "function"
    },
    {
      "constant": true,
      "inputs": [
        {
          "name": "owner",
          "type": "address"
        },
        {
          "name": "index",
          "type": "uint256"
        }
      ],
      "name": "getContractByOwner",
      "outputs": [
        {
          "name": "",
          "type": "string"
        }
      ],
      "payable": false,
      "stateMutability": "view",
      "type": "function"
    },
    {
      "constant": true,
      "inputs": [
        {
          "name": "",
          "type": "uint256"
        }
      ],
      "name": "contracts",
      "outputs": [
        {
          "name": "",
          "type": "string"
        }
      ],
      "payable": false,
      "stateMutability": "view",
      "type": "function"
    },
    {
      "constant": true,
      "inputs": [
        {
          "name": "id",
          "type": "string"
        }
      ],
      "name": "getContractInitialAddress",
      "outputs": [
        {
          "name": "",
          "type": "address"
        }
      ],
      "payable": false,
      "stateMutability": "view",
      "type": "function"
    },
    {
      "constant": false,
      "inputs": [
        {
          "name": "id",
          "type": "string"
        },
        {
          "name": "addr",
          "type": "address"
        }
      ],
      "name": "addContract",
      "outputs": [],
      "payable": false,
      "stateMutability": "nonpayable",
      "type": "function"
    },
    {
      "constant": true,
      "inputs": [],
      "name": "getNumContracts",
      "outputs": [
        {
          "name": "",
          "type": "uint256"
        }
      ],
      "payable": false,
      "stateMutability": "view",
      "type": "function"
    },
    {
      "anonymous": false,
      "inputs": [
        {
          "indexed": false,
          "name": "id",
          "type": "string"
        },
        {
          "indexed": false,
          "name": "addr",
          "type": "address"
        },
        {
          "indexed": false,
          "name": "totalContracts",
          "type": "uint256"
        }
      ],
      "name": "NewContract",
      "type": "event"
    }
  ],
  "bytecode": "0x6060604052341561000f57600080fd5b610f9e8061001e6000396000f30060606040526004361061008e576000357c0100000000000000000000000000000000000000000000000000000000900463ffffffff16806301991a231461009357806304433bbc146100c1578063044ae2271461012f5780630af764821461017c578063474da79a1461023757806348ab6a27146102d3578063bf5b601614610341578063cfe10b301461038e575b600080fd5b341561009e57600080fd5b6100bf600480803590602001908201803590602001919091929050506103b7565b005b34156100cc57600080fd5b6100ed600480803590602001908201803590602001919091929050506107ec565b604051808273ffffffffffffffffffffffffffffffffffffffff1673ffffffffffffffffffffffffffffffffffffffff16815260200191505060405180910390f35b341561013a57600080fd5b610166600480803573ffffffffffffffffffffffffffffffffffffffff1690602001909190505061083f565b6040518082815260200191505060405180910390f35b341561018757600080fd5b6101bc600480803573ffffffffffffffffffffffffffffffffffffffff1690602001909190803590602001909190505061088a565b6040518080602001828103825283818151815260200191508051906020019080838360005b838110156101fc5780820151818401526020810190506101e1565b50505050905090810190601f1680156102295780820380516001836020036101000a031916815260200191505b509250505060405180910390f35b341561024257600080fd5b6102586004808035906020019091905050610989565b6040518080602001828103825283818151815260200191508051906020019080838360005b8381101561029857808201518184015260208101905061027d565b50505050905090810190601f1680156102c55780820380516001836020036101000a031916815260200191505b509250505060405180910390f35b34156102de57600080fd5b6102ff60048080359060200190820180359060200191909192905050610a45565b604051808273ffffffffffffffffffffffffffffffffffffffff1673ffffffffffffffffffffffffffffffffffffffff16815260200191505060405180910390f35b341561034c57600080fd5b61038c6004808035906020019082018035906020019190919290803573ffffffffffffffffffffffffffffffffffffffff16906020019091905050610a98565b005b341561039957600080fd5b6103a1610e0c565b6040518082815260200191505060405180910390f35b60008060008060018686604051808383808284378201915050925050509081526020016040518091039020935060008460010160009054906101000a900473ffffffffffffffffffffffffffffffffffffffff1673ffffffffffffffffffffffffffffffffffffffff161415151561042e57600080fd5b8360010160009054906101000a900473ffffffffffffffffffffffffffffffffffffffff1692503373ffffffffffffffffffffffffffffffffffffffff168373ffffffffffffffffffffffffffffffffffffffff1663893d20e86000604051602001526040518163ffffffff167c0100000000000000000000000000000000000000000000000000000000028152600401602060405180830381600087803b15156104d857600080fd5b6102c65a03f115156104e957600080fd5b5050506040518051905073ffffffffffffffffffffffffffffffffffffffff1614151561051557600080fd5b8273ffffffffffffffffffffffffffffffffffffffff1663e01ee2776000604051602001526040518163ffffffff167c0100000000000000000000000000000000000000000000000000000000028152600401602060405180830381600087803b151561058157600080fd5b6102c65a03f1151561059257600080fd5b50505060405180519050915060008273ffffffffffffffffffffffffffffffffffffffff1614156105c2576107e4565b8190503373ffffffffffffffffffffffffffffffffffffffff168173ffffffffffffffffffffffffffffffffffffffff1663893d20e86000604051602001526040518163ffffffff167c0100000000000000000000000000000000000000000000000000000000028152600401602060405180830381600087803b151561064857600080fd5b6102c65a03f1151561065957600080fd5b5050506040518051905073ffffffffffffffffffffffffffffffffffffffff1614151561068557600080fd5b8273ffffffffffffffffffffffffffffffffffffffff16630d8e6e2c6000604051602001526040518163ffffffff167c0100000000000000000000000000000000000000000000000000000000028152600401602060405180830381600087803b15156106f157600080fd5b6102c65a03f1151561070257600080fd5b505050604051805190508173ffffffffffffffffffffffffffffffffffffffff16630d8e6e2c6000604051602001526040518163ffffffff167c0100000000000000000000000000000000000000000000000000000000028152600401602060405180830381600087803b151561077857600080fd5b6102c65a03f1151561078957600080fd5b50505060405180519050101515156107a057600080fd5b818460010160006101000a81548173ffffffffffffffffffffffffffffffffffffffff021916908373ffffffffffffffffffffffffffffffffffffffff1602179055505b505050505050565b60006001838360405180838380828437820191505092505050908152602001604051809103902060010160009054906101000a900473ffffffffffffffffffffffffffffffffffffffff16905092915050565b60008060008373ffffffffffffffffffffffffffffffffffffffff1673ffffffffffffffffffffffffffffffffffffffff168152602001908152602001600020805490509050919050565b610892610e19565b6000808473ffffffffffffffffffffffffffffffffffffffff1673ffffffffffffffffffffffffffffffffffffffff168152602001908152602001600020828154811015156108dd57fe5b90600052602060002090018054600181600116156101000203166002900480601f01602080910402602001604051908101604052809291908181526020018280546001816001161561010002031660029004801561097c5780601f106109515761010080835404028352916020019161097c565b820191906000526020600020905b81548152906001019060200180831161095f57829003601f168201915b5050505050905092915050565b60028181548110151561099857fe5b90600052602060002090016000915090508054600181600116156101000203166002900480601f016020809104026020016040519081016040528092919081815260200182805460018160011615610100020316600290048015610a3d5780601f10610a1257610100808354040283529160200191610a3d565b820191906000526020600020905b815481529060010190602001808311610a2057829003601f168201915b505050505081565b60006001838360405180838380828437820191505092505050908152602001604051809103902060000160009054906101000a900473ffffffffffffffffffffffffffffffffffffffff16905092915050565b60008060006001868660405180838380828437820191505092505050908152602001604051809103902060000160009054906101000a900473ffffffffffffffffffffffffffffffffffffffff1673ffffffffffffffffffffffffffffffffffffffff16141515610b0857600080fd5b8291508173ffffffffffffffffffffffffffffffffffffffff1663893d20e86000604051602001526040518163ffffffff167c0100000000000000000000000000000000000000000000000000000000028152600401602060405180830381600087803b1515610b7757600080fd5b6102c65a03f11515610b8857600080fd5b5050506040518051905090508073ffffffffffffffffffffffffffffffffffffffff163373ffffffffffffffffffffffffffffffffffffffff16141515610bce57600080fd5b60028054806001018281610be29190610e2d565b916000526020600020900160008787909192909192509190610c05929190610e59565b50506000808273ffffffffffffffffffffffffffffffffffffffff1673ffffffffffffffffffffffffffffffffffffffff1681526020019081526020016000208054806001018281610c579190610e2d565b916000526020600020900160008787909192909192509190610c7a929190610e59565b505060408051908101604052808473ffffffffffffffffffffffffffffffffffffffff1681526020018473ffffffffffffffffffffffffffffffffffffffff168152506001868660405180838380828437820191505092505050908152602001604051809103902060008201518160000160006101000a81548173ffffffffffffffffffffffffffffffffffffffff021916908373ffffffffffffffffffffffffffffffffffffffff16021790555060208201518160010160006101000a81548173ffffffffffffffffffffffffffffffffffffffff021916908373ffffffffffffffffffffffffffffffffffffffff1602179055509050507f4f11536f8f5f88fb024a5dce32b988e279ae53dec65941e992fc40230475186585858560028054905060405180806020018473ffffffffffffffffffffffffffffffffffffffff1673ffffffffffffffffffffffffffffffffffffffff168152602001838152602001828103825286868281815260200192508082843782019150509550505050505060405180910390a15050505050565b6000600280549050905090565b602060405190810160405280600081525090565b815481835581811511610e5457818360005260206000209182019101610e539190610ed9565b5b505050565b828054600181600116156101000203166002900490600052602060002090601f016020900481019282601f10610e9a57803560ff1916838001178555610ec8565b82800160010185558215610ec8579182015b82811115610ec7578235825591602001919060010190610eac565b5b509050610ed59190610f05565b5090565b610f0291905b80821115610efe5760008181610ef59190610f2a565b50600101610edf565b5090565b90565b610f2791905b80821115610f23576000816000905550600101610f0b565b5090565b90565b50805460018160011615610100020316600290046000825580601f10610f505750610f6f565b601f016020900490600052602060002090810190610f6e9190610f05565b5b505600a165627a7a723058208b90cee823cc8402cd8008f7370087b28d846383e8bca2716cf5105646887c920029",
  "source": "pragma solidity 0.4.18;\n\nimport \"./CryptoLegacyBaseAPI.sol\";\n\ncontract Registry {\n  event NewContract(string id, address addr, uint totalContracts);\n\n  struct Contract {\n    address initialAddress;\n    address currentAddress;\n  }\n\n  mapping(address => string[]) internal contractsByOwner;\n  mapping(string => Contract) internal contractsById;\n  string[] public contracts;\n\n  function getNumContracts() external view returns (uint) {\n    return contracts.length;\n  }\n\n  function getContractAddress(string id) external view returns (address) {\n    return contractsById[id].currentAddress;\n  }\n\n  function getContractInitialAddress(string id) external view returns (address) {\n    return contractsById[id].initialAddress;\n  }\n\n  function getNumContractsByOwner(address owner) external view returns (uint) {\n    return contractsByOwner[owner].length;\n  }\n\n  function getContractByOwner(address owner, uint index) external view returns (string) {\n    return contractsByOwner[owner][index];\n  }\n\n  function addContract(string id, address addr) external {\n    require(contractsById[id].initialAddress == 0);\n\n    CryptoLegacyBaseAPI instance = CryptoLegacyBaseAPI(addr);\n    address owner = instance.getOwner();\n\n    require(msg.sender == owner);\n\n    contracts.push(id);\n    contractsByOwner[owner].push(id);\n    contractsById[id] = Contract({initialAddress: addr, currentAddress: addr});\n\n    NewContract(id, addr, contracts.length);\n  }\n\n  function updateAddress(string id) external {\n    Contract storage ctr = contractsById[id];\n    require(ctr.currentAddress != 0);\n\n    CryptoLegacyBaseAPI instance = CryptoLegacyBaseAPI(ctr.currentAddress);\n    require(instance.getOwner() == msg.sender);\n\n    address continuationAddress = instance.getContinuationContractAddress();\n    if (continuationAddress == 0) {\n      return;\n    }\n\n    CryptoLegacyBaseAPI continuationInstance = CryptoLegacyBaseAPI(continuationAddress);\n    require(continuationInstance.getOwner() == msg.sender);\n    require(continuationInstance.getVersion() >= instance.getVersion());\n\n    ctr.currentAddress = continuationAddress;\n  }\n\n}\n",
  "sourcePath": "/Users/sam/dev/projects/crypto-legacy/crypto-legacy/truffle/contracts/Registry.sol",
  "compiler": {
    "name": "solc",
    "version": "0.4.18+commit.9cf6e910.Emscripten.clang"
  },
  "schemaVersion": "1.0.1",
  "updatedAt": "2018-01-24T17:53:14.080Z"
}