{
  "contractName": "Registry",
  "abi": [
    {
      "constant": false,
      "inputs": [
        {
          "name": "id",
          "type": "string"
        }
      ],
      "name": "updateAddress",
      "outputs": [],
      "payable": false,
      "stateMutability": "nonpayable",
      "type": "function"
    },
    {
      "constant": true,
      "inputs": [
        {
          "name": "id",
          "type": "string"
        }
      ],
      "name": "getContractAddress",
      "outputs": [
        {
          "name": "",
          "type": "address"
        }
      ],
      "payable": false,
      "stateMutability": "view",
      "type": "function"
    },
    {
      "constant": true,
      "inputs": [
        {
          "name": "owner",
          "type": "address"
        }
      ],
      "name": "getNumContractsByOwner",
      "outputs": [
        {
          "name": "",
          "type": "uint256"
        }
      ],
      "payable": false,
      "stateMutability": "view",
      "type": "function"
    },
    {
      "constant": true,
      "inputs": [
        {
          "name": "owner",
          "type": "address"
        },
        {
          "name": "index",
          "type": "uint256"
        }
      ],
      "name": "getContractByOwner",
      "outputs": [
        {
          "name": "",
          "type": "string"
        }
      ],
      "payable": false,
      "stateMutability": "view",
      "type": "function"
    },
    {
      "constant": true,
      "inputs": [
        {
          "name": "",
          "type": "uint256"
        }
      ],
      "name": "contracts",
      "outputs": [
        {
          "name": "",
          "type": "string"
        }
      ],
      "payable": false,
      "stateMutability": "view",
      "type": "function"
    },
    {
      "constant": true,
      "inputs": [
        {
          "name": "id",
          "type": "string"
        }
      ],
      "name": "getContractInitialAddress",
      "outputs": [
        {
          "name": "",
          "type": "address"
        }
      ],
      "payable": false,
      "stateMutability": "view",
      "type": "function"
    },
    {
      "constant": false,
      "inputs": [
        {
          "name": "id",
          "type": "string"
        },
        {
          "name": "addr",
          "type": "address"
        }
      ],
      "name": "addContract",
      "outputs": [],
      "payable": false,
      "stateMutability": "nonpayable",
      "type": "function"
    },
    {
      "anonymous": false,
      "inputs": [
        {
          "indexed": false,
          "name": "id",
          "type": "string"
        },
        {
          "indexed": false,
          "name": "addr",
          "type": "address"
        }
      ],
      "name": "NewContract",
      "type": "event"
    }
  ],
  "bytecode": "0x6060604052341561000f57600080fd5b610faa8061001e6000396000f300606060405260043610610083576000357c0100000000000000000000000000000000000000000000000000000000900463ffffffff16806301991a231461008857806304433bbc146100b6578063044ae227146101245780630af7648214610171578063474da79a1461022c57806348ab6a27146102c8578063bf5b601614610336575b600080fd5b341561009357600080fd5b6100b460048080359060200190820180359060200191909192905050610383565b005b34156100c157600080fd5b6100e260048080359060200190820180359060200191909192905050610812565b604051808273ffffffffffffffffffffffffffffffffffffffff1673ffffffffffffffffffffffffffffffffffffffff16815260200191505060405180910390f35b341561012f57600080fd5b61015b600480803573ffffffffffffffffffffffffffffffffffffffff16906020019091905050610865565b6040518082815260200191505060405180910390f35b341561017c57600080fd5b6101b1600480803573ffffffffffffffffffffffffffffffffffffffff169060200190919080359060200190919050506108b0565b6040518080602001828103825283818151815260200191508051906020019080838360005b838110156101f15780820151818401526020810190506101d6565b50505050905090810190601f16801561021e5780820380516001836020036101000a031916815260200191505b509250505060405180910390f35b341561023757600080fd5b61024d60048080359060200190919050506109af565b6040518080602001828103825283818151815260200191508051906020019080838360005b8381101561028d578082015181840152602081019050610272565b50505050905090810190601f1680156102ba5780820380516001836020036101000a031916815260200191505b509250505060405180910390f35b34156102d357600080fd5b6102f460048080359060200190820180359060200191909192905050610a6b565b604051808273ffffffffffffffffffffffffffffffffffffffff1673ffffffffffffffffffffffffffffffffffffffff16815260200191505060405180910390f35b341561034157600080fd5b6103816004808035906020019082018035906020019190919290803573ffffffffffffffffffffffffffffffffffffffff16906020019091905050610abe565b005b60008060008060018686604051808383808284378201915050925050509081526020016040518091039020935060008460010160009054906101000a900473ffffffffffffffffffffffffffffffffffffffff1673ffffffffffffffffffffffffffffffffffffffff16141515156103fa57600080fd5b8360010160009054906101000a900473ffffffffffffffffffffffffffffffffffffffff1692503373ffffffffffffffffffffffffffffffffffffffff168373ffffffffffffffffffffffffffffffffffffffff1663893d20e86000604051602001526040518163ffffffff167c0100000000000000000000000000000000000000000000000000000000028152600401602060405180830381600087803b15156104a457600080fd5b6102c65a03f115156104b557600080fd5b5050506040518051905073ffffffffffffffffffffffffffffffffffffffff161415156104e157600080fd5b8273ffffffffffffffffffffffffffffffffffffffff1663e01ee2776000604051602001526040518163ffffffff167c0100000000000000000000000000000000000000000000000000000000028152600401602060405180830381600087803b151561054d57600080fd5b6102c65a03f1151561055e57600080fd5b50505060405180519050915060008273ffffffffffffffffffffffffffffffffffffffff1614806105de57508360010160009054906101000a900473ffffffffffffffffffffffffffffffffffffffff1673ffffffffffffffffffffffffffffffffffffffff168273ffffffffffffffffffffffffffffffffffffffff16145b156105e85761080a565b8190503373ffffffffffffffffffffffffffffffffffffffff168173ffffffffffffffffffffffffffffffffffffffff1663893d20e86000604051602001526040518163ffffffff167c0100000000000000000000000000000000000000000000000000000000028152600401602060405180830381600087803b151561066e57600080fd5b6102c65a03f1151561067f57600080fd5b5050506040518051905073ffffffffffffffffffffffffffffffffffffffff161415156106ab57600080fd5b8273ffffffffffffffffffffffffffffffffffffffff16630d8e6e2c6000604051602001526040518163ffffffff167c0100000000000000000000000000000000000000000000000000000000028152600401602060405180830381600087803b151561071757600080fd5b6102c65a03f1151561072857600080fd5b505050604051805190508173ffffffffffffffffffffffffffffffffffffffff16630d8e6e2c6000604051602001526040518163ffffffff167c0100000000000000000000000000000000000000000000000000000000028152600401602060405180830381600087803b151561079e57600080fd5b6102c65a03f115156107af57600080fd5b50505060405180519050101515156107c657600080fd5b818460010160006101000a81548173ffffffffffffffffffffffffffffffffffffffff021916908373ffffffffffffffffffffffffffffffffffffffff1602179055505b505050505050565b60006001838360405180838380828437820191505092505050908152602001604051809103902060010160009054906101000a900473ffffffffffffffffffffffffffffffffffffffff16905092915050565b60008060008373ffffffffffffffffffffffffffffffffffffffff1673ffffffffffffffffffffffffffffffffffffffff168152602001908152602001600020805490509050919050565b6108b8610e25565b6000808473ffffffffffffffffffffffffffffffffffffffff1673ffffffffffffffffffffffffffffffffffffffff1681526020019081526020016000208281548110151561090357fe5b90600052602060002090018054600181600116156101000203166002900480601f0160208091040260200160405190810160405280929190818152602001828054600181600116156101000203166002900480156109a25780601f10610977576101008083540402835291602001916109a2565b820191906000526020600020905b81548152906001019060200180831161098557829003601f168201915b5050505050905092915050565b6002818154811015156109be57fe5b90600052602060002090016000915090508054600181600116156101000203166002900480601f016020809104026020016040519081016040528092919081815260200182805460018160011615610100020316600290048015610a635780601f10610a3857610100808354040283529160200191610a63565b820191906000526020600020905b815481529060010190602001808311610a4657829003601f168201915b505050505081565b60006001838360405180838380828437820191505092505050908152602001604051809103902060000160009054906101000a900473ffffffffffffffffffffffffffffffffffffffff16905092915050565b60008060006001868660405180838380828437820191505092505050908152602001604051809103902060000160009054906101000a900473ffffffffffffffffffffffffffffffffffffffff1673ffffffffffffffffffffffffffffffffffffffff16141515610b2e57600080fd5b8291508173ffffffffffffffffffffffffffffffffffffffff1663893d20e86000604051602001526040518163ffffffff167c0100000000000000000000000000000000000000000000000000000000028152600401602060405180830381600087803b1515610b9d57600080fd5b6102c65a03f11515610bae57600080fd5b5050506040518051905090508073ffffffffffffffffffffffffffffffffffffffff163373ffffffffffffffffffffffffffffffffffffffff16141515610bf457600080fd5b60028054806001018281610c089190610e39565b916000526020600020900160008787909192909192509190610c2b929190610e65565b50506000808273ffffffffffffffffffffffffffffffffffffffff1673ffffffffffffffffffffffffffffffffffffffff1681526020019081526020016000208054806001018281610c7d9190610e39565b916000526020600020900160008787909192909192509190610ca0929190610e65565b505060408051908101604052808473ffffffffffffffffffffffffffffffffffffffff1681526020018473ffffffffffffffffffffffffffffffffffffffff168152506001868660405180838380828437820191505092505050908152602001604051809103902060008201518160000160006101000a81548173ffffffffffffffffffffffffffffffffffffffff021916908373ffffffffffffffffffffffffffffffffffffffff16021790555060208201518160010160006101000a81548173ffffffffffffffffffffffffffffffffffffffff021916908373ffffffffffffffffffffffffffffffffffffffff1602179055509050507f208f725e4760f521e142bbc1400aa805d7e669438e05e416eddc3df3db3d453685858560405180806020018373ffffffffffffffffffffffffffffffffffffffff1673ffffffffffffffffffffffffffffffffffffffff1681526020018281038252858582818152602001925080828437820191505094505050505060405180910390a15050505050565b602060405190810160405280600081525090565b815481835581811511610e6057818360005260206000209182019101610e5f9190610ee5565b5b505050565b828054600181600116156101000203166002900490600052602060002090601f016020900481019282601f10610ea657803560ff1916838001178555610ed4565b82800160010185558215610ed4579182015b82811115610ed3578235825591602001919060010190610eb8565b5b509050610ee19190610f11565b5090565b610f0e91905b80821115610f0a5760008181610f019190610f36565b50600101610eeb565b5090565b90565b610f3391905b80821115610f2f576000816000905550600101610f17565b5090565b90565b50805460018160011615610100020316600290046000825580601f10610f5c5750610f7b565b601f016020900490600052602060002090810190610f7a9190610f11565b5b505600a165627a7a7230582081be73cee4c37cc9e4fa838be999ecb42b95c93296d8499d7e934ec7528d20790029",
  "source": "pragma solidity 0.4.18;\n\nimport \"./CryptoLegacyBaseAPI.sol\";\n\ncontract Registry {\n  event NewContract(string id, address addr);\n\n  struct Contract {\n    address initialAddress;\n    address currentAddress;\n  }\n\n  mapping(address => string[]) internal contractsByOwner;\n  mapping(string => Contract) internal contractsById;\n  string[] public contracts;\n\n  function getContractAddress(string id) external view returns (address) {\n    return contractsById[id].currentAddress;\n  }\n\n  function getContractInitialAddress(string id) external view returns (address) {\n    return contractsById[id].initialAddress;\n  }\n\n  function getNumContractsByOwner(address owner) external view returns (uint) {\n    return contractsByOwner[owner].length;\n  }\n\n  function getContractByOwner(address owner, uint index) external view returns (string) {\n    return contractsByOwner[owner][index];\n  }\n\n  function addContract(string id, address addr) external {\n    require(contractsById[id].initialAddress == 0);\n\n    CryptoLegacyBaseAPI instance = CryptoLegacyBaseAPI(addr);\n    address owner = instance.getOwner();\n\n    require(msg.sender == owner);\n\n    contracts.push(id);\n    contractsByOwner[owner].push(id);\n    contractsById[id] = Contract({initialAddress: addr, currentAddress: addr});\n\n    NewContract(id, addr);\n  }\n\n  function updateAddress(string id) external {\n    Contract storage ctr = contractsById[id];\n    require(ctr.currentAddress != 0);\n\n    CryptoLegacyBaseAPI instance = CryptoLegacyBaseAPI(ctr.currentAddress);\n    require(instance.getOwner() == msg.sender);\n\n    address continuationAddress = instance.getContinuationContractAddress();\n    if (continuationAddress == 0 || continuationAddress == ctr.currentAddress) {\n      return;\n    }\n\n    CryptoLegacyBaseAPI continuationInstance = CryptoLegacyBaseAPI(continuationAddress);\n    require(continuationInstance.getOwner() == msg.sender);\n    require(continuationInstance.getVersion() >= instance.getVersion());\n\n    ctr.currentAddress = continuationAddress;\n  }\n\n}\n",
  "sourcePath": "/Users/sam/dev/projects/crypto-legacy/crypto-legacy/truffle/contracts/Registry.sol",
  "compiler": {
    "name": "solc",
    "version": "0.4.18+commit.9cf6e910.Emscripten.clang"
  },
  "schemaVersion": "1.0.1",
  "updatedAt": "2017-12-23T00:49:21.387Z"
}